:100000000C94300A0C94680A0C94680A0C947A2EAA
:100010000C94680A0C94680A0C94680A0C94680A98
:100020000C94680A0C94680A0C94B2170C94AF1BD9
:100030000C9487290C94680A0C94680A0C94680A3A
:100040000C94680A0C94680A0C94680A0C94680A68
:100050000C94680A0C948B180C94680A0C94680A27
:100060000C94680A0C94680A0C94680A0C94680A48
:100070000C94680A0C94680A0C94680A0C94680A38
:100080000C94680A0C94680A0C94680A0C94680A28
:100090000C94680A0C94680A0C94680A0C94680A18
:1000A0000C94680A0C94680A0C94680A6B75626573
:1000B00063746C2067657420616C6C0A00207C207E
:1000C0006C6573730A002D6F79616D6C207C206CF8
:1000D0006573730A002E2E2F0A006C73202D310ACF
:1000E0000048656C6C6F2D657069632D6D656F7769
:1000F0002D313332002B002D023600370013001C47
:1001000000290004001200080018000C0000003351
:100110000214000D000E001B000000E2002352E15B
:1001200000225221522A000F00150006000A000981
:100130000028001600110017000B0007002C001DFE
:100140000019001A0010000500000000000000E087
:10015000002C00E3002B00380236021F0235022378
:1001600002290034022E0026022702250235003320
:10017000022F002F0221024B7E0000000000000031
:1001800000000000002A0031002E021E022402227C
:1001900002280033002D0038003400200200003710
:1001A000023000300231024A7E000000000000E010
:1001B00000E200E3002B002D0236003700E10000D2
:1001C0000029001E001F0020002100497E0000338E
:1001D000025000510022000000000000000000005A
:1001E00000000000002A004C7E2D004D7E490000DA
:1001F00000280027002600250024004E7E0000E194
:10020000004F0052002300000000000000000083A7
:10021000003700E2000000477E457ED3000000006A
:10022000000000467E447ED200D100000000004164
:100230007E407E437E427E00000000000000000001
:1002400000000000000000000000000000000000AE
:1002500000B900B700B6007D007C007A0000000005
:10026000000000000000000000000000000000008E
:10027000000000000001048E966E773EFE7E5F1D3A
:10028000B8F2664EFF5D19B0C20469542AD62EBF7B
:10029000DD19B0C3E529B1E023A5A9B1C10082678A
:1002A0004C1A978D795120C7068E7C7C7A764FFD4B
:1002B0005930E2460E9EBEDF1D9991A0A5A1A9D09E
:1002C00022C6EF5C1B958990A2A7CCFB5528B3E40E
:1002D0004AF76C3BF46A562EDE1F9DB8D305889210
:1002E000A6CE1EBEDF1D99B0E246EF5C07115D98F9
:1002F0000B9D9497EE4E45336B44C729562730C665
:10030000A7D5F256DFB43862CBA0B6E30F8406243B
:1003100005656F7689B577412782666582CCD5E61B
:1003200020D52717C5F803237C5F64A51DC1D636E9
:10033000CB4CD4DB66D78BB1997E6F4C364006D65A
:10034000EBD7A2E4F495515A5496D55344D78CE098
:10035000B94068D218E9DD9A239248EE7F43AFEAAC
:100360007738848C0A72AF69F8DDF12483A3F84AE8
:10037000BFF59413DBBBD8B4B3A0FB455060305934
:10038000123171A2D313E7FAE7CE0F63150B6B940A
:10039000BB378326059DFB4692FC0A15D10D73924F
:1003A000D68C1B8CB8558ACEBDFE8EFCED0912830F
:1003B0009182513123FBB40C76AD7CD9B44BB2673A
:1003C00014099C7F0C18BA3BD68E142AE41B529F4A
:1003D0002B7DE1FB6A3302FAAC5AF23E887EAED145
:1003E000F378E805D1E3DC21F6E19ABD170ED94692
:1003F0009B8803EAF666BE0E1B5049964097F1F1C2
:10040000E480A66EE87734BF294044C2FF4E98D3FB
:100410009CA3322B76510409E7A9D1A632B123530C
:10042000E247ABD6F5695C3E5FFAAE4520E5D244C3
:10043000FF39326DFD27575CFDF0DEC1B599E5F55A
:100440001C770175C56D5892F2B247000126967A65
:1004500030FFB7F0EF77C18A5DDCC0D129301E775D
:10046000387A94F1B87A7EEFA4D1AC314AF25D6467
:100470003DB2E2F00899FC70EE24A77EEE1E2069E2
:100480007D44BF8742DF883B0CDA42C904F94550FE
:10049000FC838F116A72BC9995F0AC3DA73BCD1CD3
:1004A000E2887937115F3989950A16847AF68AA429
:1004B00028E4ED83803BB123A50310F466EABB0C6E
:1004C0000FC5EC6C69C5D324ABD42AB799887608DC
:1004D000A0A8957CD8386DCD5902514BF1B52B5061
:1004E000E3B6BDD072CF9EFD6EBB44C8248A771898
:1004F0008A1306EF977DFA81F031E6FA77ED31063F
:10050000315B548A9F3068DBE240F84E73FAAB747B
:100510008B105813DCD2E678D1322E8A9F2C5806E5
:100520004827C5A95E8147894621910370A43E886A
:100530009CDA330ACEBC8B8ECF9FD3718043CF6BB6
:10054000A95183763082C56A853911501A82DC1E22
:100550001CD57DA9719933471997B35AB1DFEDA422
:10056000F2E62684A2289A9EDFA66AF4D6FC2E5BC9
:100570009D1A2A2768FBC183214B90E036DD5B3151
:100580004255A013F7D089537199570929C5F32112
:10059000F8372F40F3D4AF16083602FC77C58B042A
:1005A0009056B9C9679A99E800D386FF972D08E954
:1005B000B7B391BCDF45C6ED0F8C4C1EE65B6E38C1
:1005C00030E4AAE395DEB9E49AF5B2559A879BF632
:1005D0006AB2F2779A31F47A31D11D04C07C32A22A
:1005E0009E9AF562F8278DBF51FFD3DF64373F2A0B
:1005F0006F763A7D77069E777F5EEB3251F916660D
:100600009A09F3B008A470964630FFDA4FE91BED63
:100610008DF8741F3192B3731736DB9130D688553D
:100620006B3477877AE7EE06C61C8C190C48462394
:100630005E9C075CBFB47ED64F749CE2C5508BC5F0
:100640008B159060625729D01343A1808891004494
:10065000C74D1986CC2F2A755AFCEB972A70E37880
:10066000D891B04F9907A395EA2421D5DE51209364
:10067000270A3073A8FF8A97E9A76A8E0DE8F0DF92
:10068000ECEAB46C1D392A622D3D5A8B65F8900551
:100690002E7E912C78EF8E7AC12FAC78EEAF284564
:1006A000064C26AF3BA2DBA39306B53CA5D8EE8F44
:1006B000AF25CC3F856848A962CC978F7F2AEAE0B6
:1006C000150AAD6207BD45F841D836CB4CDB6EE666
:1006D0003AE7DA15E9291E1210A0142C0E3DF4BFDA
:1006E000394192750B257BA3CE399C1564C8FA3D20
:1006F000EF7327FE262ECEDA6EFD718EDDFE76EECE
:10070000DC125C02C53A4E4E4FBFCA4015C76E8D13
:1007100041F110E04F7E977F1CAE478E6BB12531C3
:10072000B073C71B9779F980D366223007741EE433
:10073000D08021D6EE6B6C4FBFF5B7D909872FA9B2
:1007400014BE27D9725001D41373A6A75102752580
:10075000E1B345347DA88EEBF31649CB4F8CA1B99C
:10076000368539755D0800AEEBF6EAD7133A215AA3
:100770005F3084522695C914F257556BB110C2E10F
:10078000BD3B51C0B7554C711226C70DF951A43865
:1007900002057FB8F1724BBF718914F37738D971B4
:1007A00024F30011A1D8D46927083735C9119D90C9
:1007B0001C0EE71CFF2D1EE892E11810957CE080CE
:1007C000F4964321F975216438DD9F1E9516DA569B
:1007D0001D4F9A53B2E2E418CB6B1A65EB56C63B39
:1007E000E5FED8263F3A84597266A2F375FFFB6096
:1007F000B322AD3F2D6BF9EBEA057CD88F6D2C98B9
:100800009E2B93F15E46F08749297368D77FF9F0F4
:10081000E57DDB1D7519F3C4589B1788A892E0BECF
:10082000BD8B1D8D9F5676ADAF29E2D9D552F6B559
:100830005635573AC8E156431994D3049B6D35D8C1
:100840000B5F4D198EECFA64910A72202BBC1A4A88
:10085000FE8BFDBBED1B23EAAD7282A1299971BD10
:10086000F095C103DD7BC2B23C2854D368A472C8A2
:100870006696E0D1D87FF8D1262BF7ADBA55CA15C8
:10088000B932C3E588978E5CFB92258BBFA2455594
:100890007AA76F8B575BCF0ECB1DFB208277A88C7E
:1008A000CC16CE1DFADECC0B62FECCE1B7F0C381D4
:1008B000647340A0C24D8911753355338DE84AFDEC
:1008C000EA6E300BD7312CDE47E3BFF85542E27FAA
:1008D00059E517EF99346991B1238E20872DA8FE31
:1008E000D58AF3843AF037E4090054EE674993E47B
:1008F0008170E3904DEFFE41B7997BC183BA6212DC
:100900006F7DDE6BAFDA16F95551EEA60C2B02A304
:10091000FD8DFB3017E46FDF3671C4CA872548B000
:1009200047ECEAB4BFA54D9B9F0293C4E3E4E842C1
:100930002D6881150AEB845BD6A874FB7D1DCB2C3A
:10094000DA462A7662CEBC5C9E8BE7CFBE78F57C19
:10095000EBB33A9CAA6FCC72D159F21123D63F481F
:10096000D1B7CEB0BFCBEA80DE57D45E972F75D11A
:10097000508E802C6679BF724BBD8A816CD3E101A9
:10098000DCD21526C536DA2C1AC02794EDB79B8524
:100990000B5E8097C5EC4FEC885D50073547DC0B4C
:1009A0003B3DDD60AFA85D813824255D5C15D1DE5F
:1009B000B3ABEC0569EF83ED5754B864641116329C
:1009C00069DA9F2D7F36BB445A34E87FBF03EB00C2
:1009D0007F59682279CF736C2C29A7A15F38A11D9C
:1009E000F02053E01A6314587110AA080C3E161A2E
:1009F0006022827FBAA443A0D0AC1BD56B64B5142F
:100A000093319E5350D05766EE5A4FFB032A6958D4
:100A100076F183F74EBA8C4206605D6DCE6088AE8B
:100A2000A4C3F103A54B98A1FF67E1ACA2B862D7BC
:100A30006FA031B4D277AF211006C69AFF1D0917F7
:100A40000E5FF1AA54344B458A8763A6DCF9243043
:100A500067C6B2D6613369EE50615728E77EEEEC87
:100A60003A5A734EA88DE418EAEC4164C8E2E8668D
:100A7000B62DB6FB6A6C16B3DD4643B973006A71D6
:100A8000ED4E9D251AC33C4A95159935811402D621
:100A9000989BECD8233B8429AF0C9983A69A344FBA
:100AA000FAE8D03C4BD0FBB668B89E8FCDF7602DEE
:100AB0007A22E57DAB651B95A7A87FB677477B5F5C
:100AC0008B1272D0D491EFDE19503CA78BC4A9B31E
:100AD00023CB76E681F0C1048FA3B8545B97AC19A1
:100AE000FF3F55272FE01D429B57FC4B4E0FCE98E2
:100AF000A9435703BDE7C894DF6E367332B4EF2EB7
:100B0000857A6EFC6C188275359007F3E49F3EDCA5
:100B100068F3B5F31980920699A2E86FFF2E7FAEB5
:100B200042A45FFBD40E812BC304FF2BB3744E365B
:100B30005B9C1500C6472BE88B3DF19C039A587FC0
:100B40009B9CBF854979352E567B411439478326B6
:100B5000AA078998111B86E7737AD87D786153E9D3
:100B600079F5368D449284F91350583BA46A366562
:100B7000498E3C0EF16FD284C47E8E3F39AE7C84A8
:100B8000F163378E3CCC3E448145F14BB9ED6B3679
:100B90005DBB20601A0FA3AA55773AA9AE374DBAAC
:100BA000B8866BBC0850F6CCA4BD1D4072A586FA71
:100BB000E210AE3D584B97F34374A99EEB21B70169
:100BC000A4869397EE2F4F3B86A1416F41269078E4
:100BD0005C7F30384B3FAAECED5C6F0EAD4387FD78
:100BE0009335E601EF412690999EFB195BADD291BA
:100BF0008AE046AF65FA4F84C1A12DCF458BD385DE
:100C000050557CF96788D44EE9D76B6154A1A4A6EE
:100C1000A2C2BF309C409F5FD7692B24825ED9D689
:100C2000A712541AF7559F7650A99584E66B6DB5B7
:100C30009654D6CDB3A19B46A7944DC494B498E3E3
:100C4000E1E234D533160754CDB77753DB4F4D4629
:100C50009DE9D49C8A36B6B838266C0EFF9C1B439F
:100C60008B80CCB93DDAC7F18AF26DB8D7742F7E8C
:100C70001EB7D34AB4ACFC79486CBC96B6944657C0
:100C80002DB0A3FC1EB95260852D41D043011E1C1E
:100C9000D57DFCF3960DC7CB2A299A93DD882D3795
:100CA0005DAAFB4968A09C50867F685657F9791861
:100CB00039D4E001843361CAA5D2D6E4C98A4A2373
:100CC000444EBCF0DC24A1A0C4E2073C10C4B5250E
:100CD0004B6563F480E7CF61B1718221872CF59178
:100CE00000320CECA9B59A7485E3368F764F9C6D73
:100CF000CEBCAD0A4BED7604CBC3B9339E019396BF
:100D0000697DC5A245799B045C8409ED8843C7AB26
:100D1000931426A140B5CE4EBF2A42853E2C3B54AB
:100D2000E8121F0E9759B22789FAF2DF8E6859DC54
:100D300006BCB6850D0622ECB1CBE504E63DB3B0AA
:100D40004173083F3C588663EB50EE1D2C3774A965
:100D5000D318A3476E9354AD0A5DB82A555D78F653
:100D6000EEBE8E3C7669B940C234EC2AB9ED7E20E5
:100D7000E48D0038C7E68F44A886CEEB2AE990F1CF
:100D80004CDF32FB731B6D921E95FEB4DB65DF4DAD
:100D900023548948BF4A2E70D6D762B43329B13A5A
:100DA000334C236DA676A5216348E6905DED9095C2
:100DB0000B7A84BEB80D5E630C62264C145AB3AC39
:100DC00023A474A76F333005600142A028B7EE1941
:100DD00038F164808243E141271F1F90547AD52364
:100DE0002ED13DCB28BA587FDC7C9124E928518351
:100DF0006EC5562142EDA05622A140806BA8F79403
:100E0000CA136B0C39D9FDE9F36FA69EFC708AB347
:100E1000BC593C1E1D6CF97CAFF9887195EB5700ED
:100E2000BD9F8C4FE12483C522EAFDD30CE2171845
:100E30007C6A4CDE77B4539B4C81CD2360AA0E258F
:100E4000739C02793230DF74DF7519F4A5145CF7F6
:100E50007AA8A591847C6003063BCD50B6279CFE02
:100E6000B1DDCCD3B05924B2CAE21C81229D078FD8
:100E70008EB9BE4EFAFC3965BABF9D12375E977EB9
:100E8000F389F55DF5E3098C62B5209D0C538A6802
:100E90001BD28F75175DD4E5DA756219146A262D99
:100EA000EBF8AF37F06CA455B1BCE233C09ACAB0CE
:100EB00011494F689B3B6B3CCC13F6C78561684278
:100EC000AEBBDDCD4516291DEADBC803943CEE4FD1
:100ED0008211C3EC28BD970599DED7BB5E221FD4D3
:100EE000EB64D992D985B76A056AE42441F1CDF063
:100EF000D83FF89E0ECD0B7A706B5A750A6A33880C
:100F0000EC17750870102F24CFC4E942006194CA11
:100F10001F3A7606FAD24881F077600345D961F42A
:100F2000A46F3DD930C3046B542AB7EC3BF44BF5A6
:100F3000685226CEFF5D1991A0A3A5A9B1E023C4F4
:100F40000A774DF95120A3A5A9B1C10082868E7FF1
:100F50005D1991A0A3C4EB540B756852078C9A9746
:100F60008D79706246EF5C1B95897141E121A1A1E9
:100F7000A1C002674C1AB6CFFD785324ABB5C9F1B6
:100F80006023A5C812876D5813858892876D5832E3
:100F9000C70C9A97ACDA36EE5E3EDF1DB8F2662FCC
:100FA000BDF87247ED5813858892878C7B55099060
:100FB000A2C6EF3DF85324ABD42AB7EC5A36EE5E06
:100FC0003EDF3CFA764FFD5930E246EF3DF85305DF
:100FD0006931C10082868E7F5D19B0E227CCFB7437
:100FE0004B148B948B756833C50892878C9AB6CF57
:100FF0001CBAD70D98B2E62FDC1B9589716023C40B
:101000000A968F9CBAF66E3FFC5B15A8D226AFBD40
:10101000F872662FDC1BB4CB148B94AAB7CDF951B0
:10102000018082866F3DD930E227CCFB744B14AA35
:10103000B7CDF97043046B35C9F16023A5C8F345FA
:101040000892876D5832E62FBDF872664E1EBEFEBE
:101050007E7E7E5F1D9991A0A3C40A774D1893A44C
:10106000ABD40B754910A2C6EF3DF85324ABB5E8DD
:1010700033E44A16AEDE1FBCDB15A8B3C5087345C2
:10108000E931C1E121A1A1A1C002866F5C3AD70D6F
:101090009893A4CA16AEDE1F9D99B0E246EF3DF8C4
:1010A00072470C9AB6CFFD5911A0A3A5C8F3450805
:1010B00092876D39F043048A96AEDE3EDF1D99912A
:1010C000A0C2066F3DF872470C9A978D9893858859
:1010D0007345E931E023A5A9D003848A96AEDE1FCB
:1010E000BCDB15A8D226CEFF5D1991818082672DC9
:1010F000D813A4ABD40B94AAB7CDF95120A3A5C89B
:10110000F345E95022C6EF5C3AD70D989385887372
:10111000644AF74DF95120A3C40A96AEDE3EFE7E26
:101120007E7E5F3CFA764FFD7872662FBDD930C364
:10113000E54812878C7B5528D2078C9A97ACDA1732
:101140008D795120A3C4EB540B948B94AAD62EBF57
:10115000FC5B15A8D226AFDC1BB4EA37EC3BF46A83
:1011600037CD1893856931C1E140E325C812878CDA
:101170009AB6CFFD5911A0C2068E7F5D38F2470C9A
:101180007B746A37EC5A36EE3FFC7A764F1C9B959F
:10119000897141006344EB542AD60F9CBAD70D984D
:1011A00093856931C10082868E9EBEDF3CFA572C42
:1011B000DA36EE3FFC5B158971410082868E7F5DD9
:1011C00038F247ED5813A4CAF74DF9510180634432
:1011D000EB542AD62EBFDD1991A0A3A5A9B1E042F8
:1011E000068E7F5D1991A0A3C40A968F7D78724701
:1011F0000C7B746A562EDE1FBCFA570D79510161C3
:1012000021A1C0E325A9B1C1E14002674C1A978D25
:101210009893A4ABD42AD60F9C9BB4CB14AAB7CD79
:10122000F95120A3C4EB35C9F16042068E7F7C7A68
:10123000766E3FFC7A766E5E3EFE7E5F3CDB158905
:101240007141E121C0E344EB542AB7CDF970622724
:10125000ADD832C70C7B744B14AAB7EC3BD528D25F
:10126000076D39D120C2E74C1A978D98B2C70C5937
:1012700028F39B05010902A10185020901A10005CE
:101280000919012908150025019508750181020534
:1012900001093009311581257F95027508810609FC
:1012A000381581257F950175088106050C0A3802DD
:1012B0001581257F950175088106C0C0050109804B
:1012C000A101850319012AB700150126B700950170
:1012D00075108100C0050C0901A101850419012ABE
:1012E000A002150126A002950175108100C005011C
:1012F0000906A101050719E029E715002501950850
:10130000750181029501750881010507190029FF02
:10131000150026FF009506750881000508190129AA
:1013200005950575019102950175039101C00902AA
:101330003B00020100A0FA090400000103010100C2
:101340000921110100012240000705810308000165
:10135000090401000103000000092111010001221C
:101360007B0007058203200001120100020000003B
:1013700008EDFE60600100010200011A036D0069C2
:10138000006D007000610072006100740020003484
:101390000078003600000012036D0069006D0070D7
:1013A0000061007200610074000000040309040081
:1013B000000000000000000000000000000000002D
:1013C000000000000000000000000000000000001D
:1013D0000000007E0F00D4FFFFFFC7000000780070
:1013E000000000000000002A2B2800000000000080
:1013F0000000000000000000000029000000002C98
:101400001E3420212224342627252E362D37382736
:101410001E1F202122232425263333362E37381F42
:101420000405060708090A0B0C0D0E0F1011121304
:101430001415161718191A1B1C1D2F3130232D35A2
:101440000405060708090A0B0C0D0E0F10111213E4
:101450001415161718191A1B1C1D2F3130354C0086
:1014600011241FBECFEFDAE0DEBFCDBF04B603FE0E
:1014700018C080911E0390911F03A0912003B0918A
:1014800021038730904BA740B04B59F410921E03B4
:1014900010921F031092200310922103E0E0F8E362
:1014A000099511E0A0E0B1E0E4E6F1E602C00590A4
:1014B0000D92AE3AB107D9F723E0AEEAB1E001C030
:1014C0001D92AE31B207E1F70E94AE290C9469304B
:1014D0000C940000482F209117039091DE0257E0F2
:1014E000291302C080E0089530E0529FF001539F1D
:1014F000F00D1124E152FD4F8181681306C08081F7
:10150000481303C085818111EECF2F5F3F4F2770B5
:10151000E7CFE8EDF0E080818E7F80831092E200DB
:101520001092DA001092E100A0EEB0E08C918160A0
:101530008C9380818F77808319BCA7EDB0E08C916C
:101540008E7F8C9380818F7E80831092C502089558
:101550002091E4003091E50095E6A9012091EC008E
:10156000822F817020FF06C08091E80080FF06C0B6
:1015700080E008952091E80022FD1AC08091D202F7
:10158000882389F0853089F08091EB0085FD0FC0BC
:101590002091E4003091E50042175307F9F2915091
:1015A000E1F684E0089582E0089583E0089581E003
:1015B00008958091D40287FF13C08091E80082FFD4
:1015C00006C08091E8008B778093E80004C080918A
:1015D000D2028111F2CF08958091D2028823D9F3EB
:1015E0008091E80080FFF8CF8091E8008E77ECCF03
:1015F000982F9093E900242F762F50E0891731F02F
:101600007091EC002091ED005091F00021FD07C099
:101610009F5F973071F78093E90081E008953091E2
:10162000EB003E7F3093EB003091ED003D7F309337
:10163000ED003091EB0031603093EB007093EC00E3
:101640002093ED005093F0002091EE0027FDE0CFB5
:1016500080E00895B0E0A0E0E0E3FBE00C94A02F70
:10166000C8EDD0E088818F7E8883E7EDF0E080814F
:101670008160808384E082BF81E08093C50288819D
:101680008E7F888302EE10E0F80110821092DA005B
:1016900081EEC82ED12CF601108288818F77888345
:1016A00088818068888388818F7D888319BC1092A7
:1016B000D2021092D3021092D1021092D00290EE78
:1016C000E92EF12CF70180818B7F808388818160F6
:1016D000888342E060E080E00E94F80AF6018081A1
:1016E0008E7F8083F8018081816080838081886023
:1016F0008083F70180818E7F8083888180618883E9
:10170000CDB7DEB7E8E00C94BC2FFC018091DA0283
:101710009091DB0286179707A0F06115710529F4F7
:101720009091E8009E779093E80090E06115710534
:1017300051F4911108C08091E80082FF34C080E02C
:101740000895BC01F2CF8091D2028823C1F1853087
:10175000C1F18091E80083FD30C08091E80082FDF6
:10176000EACF8091E80080FFE1CF8091F3002091E3
:10177000F200382F6115710519F02830310558F045
:1017800091E02830310509F090E02091E8002E77B3
:101790002093E800CBCF81918093F10061507109D3
:1017A0002F5F3F4FE7CF8091D202882341F08530F1
:1017B00041F08091E80083FFBECF81E0089582E090
:1017C000089583E008958091C70208959C014FB762
:1017D000F8948091C1029091C202A091C302B0918D
:1017E000C4024FBF821B930B08952FB7F8946091EA
:1017F000C1027091C2028091C3029091C4022FBFB6
:101800000895A3E0B0E0E7E0FCE00C94A62F20915F
:10181000BE023091BF0228173907A1F09093BF0292
:101820008093BE02E091BC02F091BD02309751F06E
:1018300024E029839B838A830680F781E02DCE01F3
:10184000019609952396E2E00C94C22FA3E0B0E044
:10185000ECE2FCE00C94A62F2091BA023091BB027E
:1018600028173907A1F09093BB028093BA02E09148
:10187000BC02F091BD02309751F023E029839B8395
:101880008A830680F781E02DCE0101960995239683
:10189000E2E00C94C22FE091BC02F091BD023097BF
:1018A00039F022E0DC012C930480F581E02D0995CC
:1018B0000895FC01680F791F8FEF91E32191822732
:1018C00028E030E087FF09C0880F892721503109BF
:1018D000C9F7E617F70791F70895880FF7CF8091BA
:1018E0008F0280FF0CC06091650170E0759567956F
:1018F000759567956115710549F1862F089581FFEA
:1019000006C06091650170E075956795F3CF6091B1
:10191000650182FD0BC090918E029923A1F0609128
:10192000640180916501961738F0682F70E0603887
:10193000710500F38FE70895899FC001112470E0BD
:101940000E94E12FF4CF61E070E0D7CF81E00895ED
:1019500080918F0280FF0DC06091630170E0660F7F
:10196000771F6038710570F56115710569F1862F73
:10197000089581FF07C06091630184E0689FB00112
:101980001124EFCF82FF04C06091630188E0F6CF9D
:1019900080918D02882399F020916201609163010A
:1019A0008217A0F7869FC001112433E0880F991F8A
:1019B0003A95E1F7622F70E00E94E12FD2CF68E004
:1019C00070E0D5CF8FE7089581E00895813021F44C
:1019D000FB01808180931B03089580E0089563E0FC
:1019E00070E08EE092E00E94590C90910D028913F4
:1019F00018C0E0910E02EB30A4F488E0E802F00198
:101A00001124E65FFE4F0680F781E02D309749F004
:101A100021E332E04091100261E172E080910F0217
:101A200009950895EBEFF1E084898093420185895F
:101A3000809355010895F894E82FE295EF70F0E057
:101A400031A1282F2F7081E090E001C0880F2A95E6
:101A5000EAF7982F9095932391A392A1892B82A3C3
:101A6000789408959091730292FF06C0282F2871F0
:101A70002830F9F4877F846093FF06C0282F2871EF
:101A80002831F1F4877E84612091740220FF06C022
:101A9000382F38713830D9F4877F816021FF06C034
:101AA000282F28712831D1F4877E816194FD877EAB
:101AB0000895282F24712430F9F68B7F8860DCCFBD
:101AC000282F2471243101F78B7E8861DDCF382FD8
:101AD0003171313019F78E7F8860E0CF282F217166
:101AE000213121F78E7E8861E1CF82389105B9F1ED
:101AF000B0F48133910509F47DC048F48932910531
:101B000009F46DC08A32910509F47BC008958533CC
:101B1000910509F45FC08933910509F10895833E69
:101B20009105D9F138F4803E910529F1823E910565
:101B300079F10895863E9105D9F1873E910509F422
:101B40003EC0843E910541F52091740221FF24C0DE
:101B50008091730284FD19C087EE90E00895209172
:101B60007302237009F05AC02091740223FF14C03D
:101B700089E290E008952091730220FD38C03091F1
:101B8000740230FF09C024FF43C090E080E0089554
:101B90002091730222FDF7CF08952091730222FD58
:101BA0003AC03091740230FD39C024FFF5CFEDCF3B
:101BB0002091730223FFF0CF24FDE7CFCDCF2091FA
:101BC000730223FD2EC03091740231FFEECF84EEFC
:101BD00090E008952091730225FFDECFC9CF2091B8
:101BE000730225FD21C02091740223FFD5CF89E324
:101BF00090E0D2CF2091730226FFCECF8AE290E010
:101C000008952091730226FFC7CF81E390E00895E5
:101C100083EE90E0089582EE90E0089580EE90E0EB
:101C2000089586EE90E0089585E390E00895972F5B
:101C30007830B8F46630A8F48430B0F470E026E070
:101C4000929F600D711D1124FB0190E3899FE00DAF
:101C5000F11D1124EE0FFF1FEB50FF4F8591949162
:101C6000089580E090E0089581E0FCCF1F93CF932A
:101C7000DF930E94750DEC01C11580E5D807F0F5E2
:101C8000C11580E4D80708F09CC0C03ED10520F5FE
:101C9000CD3CD10508F082C0C83AD10578F4C53AE8
:101CA000D10508F073C0C130D10519F1209709F1B1
:101CB000C430D105F0F4D0E0C0E01BC0C33CD10576
:101CC000D0F7C85AD0E0CC0FDD1FC559DE4F0990C0
:101CD000D881C02DD4640DC0C11580E2D80708F0AA
:101CE000D1C0C11581E0D80708F05AC0C83ED1055F
:101CF00010F7CE01DF91CF911F910895C03682E594
:101D0000D80718F5C03482E5D80708F06BC0C03298
:101D100082E5D80708F05FC0C11582E5D80708F44E
:101D200097C02C2F2695269580E2289F900111249C
:101D30008C2F8370C1E0D0E002C0CC0FDD1F8A95EC
:101D4000E2F7C22BD32BDD68D4CFC03A82E5D807A7
:101D500060F4C03882E5D80708F459C0CF71D0E0EC
:101D6000DC2FCC27C46FD06AC4CFC03C82E5D80733
:101D700008F462C0C03E82E5D80708F09CCFDC2F93
:101D8000CC27CC27DF71C06FD06AB3CFC55AD0E063
:101D9000C859DE4FC881D0E0D064ABCFD065A9CFA1
:101DA0008D2F0E94320D182FCE0199270E94750D9C
:101DB000C12FD0E0DC2FCC27CC27DF71C82BD92B4B
:101DC00098CFCE0199270E94750DCC27DF70C82BC4
:101DD000D92BD06A8ECFCF71D0E0DC2FCC27C16F4A
:101DE000D06A87CF2C2F26952695277080E2289FD2
:101DF000900111248C2F8370C1E0D0E002C0CC0F81
:101E0000DD1F8A95E2F7C22BD32BDC6872CF2C2F13
:101E100026952695277080E2289F900111248C2F0B
:101E20008370C1E0D0E002C0CC0FDD1F8A95E2F7DD
:101E3000C22BD32BDA685DCF8C2F8F710E94320DAD
:101E4000C82FD0E0DC2FCC27CC27DF71D06251CF58
:101E50008C2F8F710E94320D55E0D695C7955A95FB
:101E6000E1F7CF70D0E0DC2FCC27282F30E084FFC3
:101E700005C044E0220F331F4A95E1F7C22BD32B54
:101E8000D06937CF8D2F8F710E94320D182FCE0160
:101E900099270E94750DC12FD0E0DC2FCC27CC27CD
:101EA000DF71C82BD92BD2CF80959091E701982371
:101EB0009093E7010895E2EBF1E09191891303C05B
:101EC000DF0111971C9291E0E83BF907B1F7089503
:101ED000A2EBB1E0EFEF90E02D91821751F0EF3FD0
:101EE00019F4211101C0E92F9F5F9630A9F7EF3F48
:101EF00009F408950E2E000CFF0BE055FE4F82836F
:101F00000895809117039091DE02981301C00895FF
:101F10008F5F8770FACFB0E0A0E0E1E9FFE00C94BA
:101F20009F2F7C0100917102109172028091E80153
:101F30009091E901082B192BCFE0D0E0CC24C39479
:101F4000D12CBC2EC6010C2E02C0880F991F0A94FA
:101F5000E2F780239123892B49F4219790F7B12C44
:101F60008B2DCDB7DEB7E9E00C94BB2FB7018C2FDA
:101F70000E94170E0E94360E019779F3F1CFCF938E
:101F8000DF93EC010E948B0FBE010E94170E0E948E
:101F9000360EDF91CF910895983078F5863068F548
:101FA000E82FF0E086E0989FE00DF11D11249E2FB0
:101FB000977083E0F695E7958A95E1F7EE0FFF1F9E
:101FC000EE0FFF1FE354FE4F50E040E080E0219110
:101FD00030E0092E02C0369527950A94E2F7217069
:101FE0003327042E01C0220F0A94EAF7822B4F5F99
:101FF0005F4F4430510559F7089580E008959830B7
:1020000098F5863088F5E82FF0E086E0989FE00D9F
:10201000F11D11248E2F877041E001C0440F8A9575
:10202000EAF783E0F695E7958A95E1F7EE0FFF1F53
:10203000EE0FFF1FE354FE4F30E020E070E05191BF
:10204000DF011197CB01022E02C0969587950A9465
:10205000E2F7817081958527842385278C932F5FF4
:102060003F4F2430310559F70895909372028093C1
:102070007102089521E030E002C0220F331F8A95DB
:10208000E2F720953095809171029091720282233F
:1020900093230E94351008959091DC018095892347
:1020A0008093DC01282F277069F4891759F09091EB
:1020B000740292FF07C08695869586950E943A1015
:1020C0001092DC01089521E030E002C0220F331F9E
:1020D0008A95E2F78091710290917202822B932B84
:1020E0000E94351008959093E9018093E8010895C6
:1020F000FC0124812223C1F0808191810E94BF0FC5
:1021000092959F70963091F058F4925F9F70923044
:1021100058F4803F19F030F4883E30F481E008959F
:102120009A5FF4CF843FD1F380E00895883EB0F306
:10213000813FD1F7F3CFA6E0B0E0E1EAF0E10C9403
:10214000A52F49835A8349815A819923A1F02223DB
:1021500091F0CA010E948B0F182F682F89819A81F4
:102160000E94FF0F69817A81812F0E94170E2696A7
:10217000E3E00C94C12FCA010E94CC0F182FF2CFBC
:102180009091E5018091E701892B0E94320D982FF3
:10219000927281E009F480E008950F931F93CF932A
:1021A000DF938B01EA019091D202943061F5809324
:1021B000E9008FEF9091E800815095FD06C095ED04
:1021C0009A95F1F700008111F5CF8091E80085FF25
:1021D0001AC00E94A80A811111C08091E80085FDF3
:1021E00006C08091E8008E778093E800F2CFF80176
:1021F00081918F018093F100219779F78091E80018
:102200008E778093E800DF91CF911F910F91089511
:1022100043E050E0BC0182E00E94CD10089546E00A
:1022200050E0BC0182E00E94CD100895CF93DF936F
:10223000EC0148E050E0BC0181E00E94CD1088E054
:10224000FE01A8ECB2E001900D928A95E1F7DF91D2
:10225000CF910895B0E0A0E0E0E3F1E10C949E2F6F
:102260007C015B016A018091870201E010E08A3005
:1022700010F40AE010E0C1E0D0E0B501C701F601BA
:102280000995811104C021960C171D072CF4CDB7B8
:10229000DEB7EAE00C94BA2FCC9F9001CD9F300DB1
:1022A000300D112490E080E045E34A95F1F70000FD
:1022B000019682179307C1F7E0CF8091FA0181114F
:1022C00010C08091D80080618093D8008AE18A95FF
:1022D000F1F700C08091D90080FF0AC081E08093AF
:1022E000FA0181E09091FA01913009F080E00895BF
:1022F00082E08093FA010E94890A1092D202F1CF03
:102300000E945D11882359F0E091BC02F091BD025A
:10231000309729F00190F081E02D0995089580E033
:102320000895CF93DF93EC010E945D11811106C0E7
:10233000CE010E942612DF91CF910895D093B6026C
:10234000C093B502F8CF80911B0386FF05C088ECCF
:1023500090E00E949111089587FF09C082958370D3
:1023600022E3829FC001112488539F4FF2CF8F70C8
:1023700022E3829FC001112480579E4FEACF0F9322
:102380001F930E945D11882329F00E94F50B1F9175
:102390000F9108950E94F50B009163021091640261
:1023A0002091650230916602600F711F821F931F9A
:1023B000EECFCF930E945D1128E030E043E060E073
:1023C00086E30E94D82CC82F811105C00E94B02D31
:1023D0008C2FCF91089585E08A95F1F70000F8CF12
:1023E000A2E0B0E0E6EFF1E10C94A32F182FF62E57
:1023F0000E94D911082F811106C000E0802F22967B
:10240000E5E00C94BF2F103549F00E945D11ECED12
:10241000F2E0882311F0EDEDF2E0108210681983EC
:10242000FA8262E070E0CE0101960E94802D892B35
:1024300021F78AEB8A95F1F700C00E94B02D83E462
:1024400092E00197F1F700C00000D8CFCF93DF935F
:10245000EC010E945D11CE0164E670E00E94CD2F78
:10246000615071096837710510F067E770E08FE01F
:102470000E94F011DF91CF910895CF93C82F0E9451
:10248000D9118823C9F08C2F0E94502D8FE792E03C
:102490000197F1F700C000000E94682DC82F95E059
:1024A0009A95F1F700000E94B02D85E68A95F1F724
:1024B00000008C2FCF910895C0E0FBCF0E945D11EA
:1024C0008FE00E943D128F5F24E6829FC00111249D
:1024D0000895A8E1B0E0EFE6F2E10C94A42F4B8B55
:1024E0005C8B6D8B7E8B8F8B988F8E01095F1F4F5E
:1024F00086E0F80111928A95E9F70E945D110E9429
:102500005D118823A1F18091DD0281113DC060E061
:1025100080E50E94F01181112DC086E0FE01379602
:10252000DE01119601900D928A95E1F786E0FE0199
:102530003196DE011D9601900D928A95E1F78D8509
:1025400083FF4FC086E0FE017396DE01179601906F
:102550000D928A95E1F72F81388549855A856B85DB
:102560007C8580E090E06896E4E00C94C02F809138
:10257000DC02CBCF0E945D11ECEDF2E0882311F07C
:10258000EDEDF2E081E080830E94D911882329F2E9
:1025900080E50E94502DFAEBFA95F1F700C066E055
:1025A00070E0C8010E94982D8F81877049F00E94C9
:1025B0005D11ECEDF2E0882311F0EDEDF2E0108218
:1025C0000E94B02D89859A859195819591099A8768
:1025D00089878B859C859195819591099C878B87AF
:1025E0009CCF898187FD03C01092B702ABCF2B81AE
:1025F0003C818D819E814091B702411103C041E031
:102600004093B70220384FEF34078CF02038310563
:1026100014F02FE730E08038EFEF9E0754F0803859
:10262000910514F08FE790E02D8B8E8B8BCF20E8F7
:10263000F2CF80E8F9CF0F931F93CF93DF930E94DF
:102640005D110E94D02C0E94D911882309F48AC000
:1026500025ED2A95F1F700000E94B02D85ED8A95B1
:10266000F1F700006AE58AE30E94F011882309F47B
:1026700079C09FEFE0E7F2E09150E040F040E1F7F1
:1026800000C0000082E00E943D1283E00E943D12E3
:1026900084E00E943D1285E00E943D1286E00E9487
:1026A0003D126DE183E10E94F011882309F45AC0C4
:1026B0008FE39CE90197F1F700C0000068E183E136
:1026C0000E94F0110E94D911882309F44BC082EEB8
:1026D0000E94502D90E59A95F1F7C5E7D2E003E707
:1026E00012E1FE0184910E94502DF0E5FA95F1F778
:1026F00021960C171D07A9F78FE193E00197F1F7D9
:1027000000C000008AE20E943D1260E080E10E9469
:10271000F0110E94B02DEFE3FCE93197F1F700C012
:1027200000000E945D116FE08FE00E94F0118FE9C0
:102730009FE00197F1F700C0000060E080E10E9497
:10274000F01167EE81E10E94F01162E083E60E94E1
:10275000F01180E00E943D128FE30E943D128AE258
:102760000E943D12DF91CF911F910F9108958091AA
:10277000E7019091E601892B8093B0019091E501EA
:10278000992391F0892B8093B00120E082EB91E0B6
:10279000FC013191CF0131112F5FF1E0883B9F07A0
:1027A000B9F721111092E50148E050E06DED71E0BC
:1027B00080EB91E00E945330892BA9F088E0E0EB98
:1027C000F1E0ADEDB1E001900D928A95E1F7E09175
:1027D000BC02F091BD02309731F00280F381E02D10
:1027E00080EB91E009950895882321F00E94540F11
:1027F0000E94B7130895882339F09091E701982B30
:102800009093E7010E94B7130895CF93DF9346E0BA
:1028100050E064E972E08BEA92E00E945330EC01F0
:10282000892B21F08BEA92E00E944B0C9091AC0234
:1028300086E0EBEAF2E0DF01282F1D922A95E9F706
:102840009093AC02A4E9B2E001900D928A95E1F771
:1028500081E0CD2B19F4911101C080E08170DF91EE
:10286000CF910895AEE1B0E0E8E3F4E10C94A12F3C
:102870000E945D11811105C080E06E96E7E00C9426
:10288000BD2F4091B1025091B2026091B30270919C
:10289000B4022FB7F8948091C1029091C202A09126
:1028A000C302B091C4022FBF481759076A077B07BC
:1028B00019F30E94F50B6093B1027093B2028093FA
:1028C000B3029093B4020E945D118111FEC0409149
:1028D000AB025091AC026091AD027091AE0280915A
:1028E000AF029091B0020E9469122093AB02309324
:1028F000AC024093AD025093AE026093AF0270936E
:10290000B00286E0EBEAF2E0DE01179601900D924C
:102910008A95E1F7D090AE02D194DA8686E0FE0186
:102920003796DE01539601900D928A95E1F786E085
:10293000FE017396DE01119601900D928A95E1F7E2
:1029400086E0FE013196ABEAB2E001900D928A95E5
:10295000E1F786E0EBEAF2E0DE01599601900D9294
:102960008A95E1F71091AD02E090AE02F090AF02CF
:102970000091B0020E945D11882309F46EC080911D
:102980001B0386FF42C020919C0230919D02210FC3
:10299000311D17FD3A9530939D0220939C02809142
:1029A0009A0290919B028D0D911DD7FC9A95909360
:1029B0009B0280939A02A90137FF04C04427552740
:1029C000421B530B473051054CF00FEF1216130604
:1029D0000CF401E010929D0210929C029C0197FF62
:1029E00004C022273327281B390B273031055CF020
:1029F000FF24FA941816190614F4FF24F394109285
:102A00009B0210929A02E12C10E01B8FEC8EFD8E3F
:102A10000E8F86E0FE017996DE011D9601900D92E3
:102A20008A95E1F786E0FE013D96DE011196019060
:102A30000D928A95E1F786E0FE013196DE01179648
:102A400001900D928A95E1F786E0FE013796DE014E
:102A5000599601900D928A95E1F71B8FEC8EFD8EB1
:102A60000E8F86E0FE017996DE01179601900D9299
:102A70008A95E1F786E0FE013796DE011D9601900A
:102A80000D928A95E1F786E0FE013D96ABEAB2E051
:102A900001900D928A95E1F786E0EEE9F2E0DE0121
:102AA0001D9601900D928A95E1F78091AC029E856A
:102AB000892B8093AC020E940514811110C0809173
:102AC000A40281701092A402D8CE86E0E5EAF2E07A
:102AD000ABEAB2E001900D928A95E1F712CF81E066
:102AE00090E0EFCFB0E0A0E0E8E7F5E10C94A12F93
:102AF0007901C82F880FDD0B41155105A9F0FE01A2
:102B000093E0EE0FFF1F9A95E1F7E65FFE4F81819C
:102B1000928185509E4F208130E04217530708F480
:102B20009A01A9010E946030CE010E94202FD82E68
:102B30008823D1F001151105B9F083E0CC0FDD1F1A
:102B40008A95E1F7FE01E65FFE4F438150E00417EE
:102B5000150708F4A801C65FDE4F6C817D816550C2
:102B60007E4FC7010E9460308D2DCDB7DEB7E7E004
:102B70000C94BD2FA4E0B0E0E0ECF5E10C94A42FA0
:102B80004091590250915A0260915B0270915C022F
:102B90002FB7F8948091C1029091C202A091C30214
:102BA000B091C4022FBF841B950BA60BB70B11E08D
:102BB00084369105A105B10518F10E94BF116E5F21
:102BC0007F4F8F4F9F4F69837A838B839C8310E065
:102BD00000E030E020E044E050E0BE016F5F7F4F56
:102BE00082E00E947215182F882351F00E94F50B85
:102BF0006093590270935A0280935B0290935C0237
:102C0000812F2496E4E00C94C02FA1E0B0E0EBE02B
:102C1000F6E10C949B2F762E4A015901680101E0E0
:102C200010E09E012F5F3F4F50E040E070E060E019
:102C30000E947215182F882309F440C0F4014081C6
:102C40005181628173812FB7F8948091C102909174
:102C5000C202A091C302B091C4022FBF841B950B86
:102C6000A60BB70B84369105A105B10538F4B70161
:102C7000C6010E94590C9981891701F187019501BC
:102C800050E040E070E060E0872D0E947215B82EA1
:102C9000B701C6010E94590C11E09981981310E008
:102CA0001B2139F00E94F50BF4016083718382834C
:102CB0009383812F2196EDE00C94B72FA701B601E5
:102CC000C5010E946030F5CFACE0B0E0EAE6F6E185
:102CD0000C94A22F0E945D11882309F449C086E05C
:102CE000E82EF12C05E012E09E01295F3F4F4FE5F1
:102CF00052E064E083E00E940516882391F096E09C
:102D0000FE013796DE01119601900D929A95E1F73A
:102D100096E0FE013196A5EAB2E001900D929A95F7
:102D2000E1F7E090B502F090B602E114F104E1F0B1
:102D300020915D0230915E022E153F05A9F0F092C0
:102D40000C02E0920B0210E000E030E020E042E0F4
:102D500050E06BE072E085E00E947215882321F05C
:102D6000F0925E02E0925D022C96E6E00C94BE2F9B
:102D700081E0FACFA4E0B0E0E0ECF6E10C94A02F03
:102D80006B0184E0E82EF12C0CEF11E09E012F5F27
:102D90003F4F45E552E061E080E00E940516882340
:102DA00061F049815A816B817C814093510250933B
:102DB0005202609353027093540240915102509119
:102DC00052026091530270915402F6014083518384
:102DD000628373832496E8E00C94BC2F90911B03CC
:102DE0009F70811115C08FEF980F9F7080911B030A
:102DF000807F982B90931B030E94A31140911B038B
:102E000050E070E060E08FE090E00E943130089583
:102E100081E0EACF90911B0392959370811117C0C6
:102E20008FEF980F93709295907F80911B038F7C0A
:102E3000982B90931B030E94A31140911B0350E019
:102E400070E060E08FE090E00E943130089581E012
:102E5000E8CFA8E0B0E0EFE2F7E10C94A62F66EE31
:102E60007EEF90E080E00E943D3060E082E090E004
:102E70000E941F3060E083E090E00E941F301092BB
:102E8000E9011092E80160E074E184E090E00E94C2
:102E90003D3060E086E090E00E941F306FEF87E0F9
:102EA00090E00E941F3040E050E0BA0188E090E0DE
:102EB0000E94313060E084E290E00E941F3060E0C8
:102EC00087E190E00E941F3060E08CE090E00E947B
:102ED0001F3060E08DE090E00E941F3019821A825E
:102EE0001B821C821D821E821F82188648E050E0D1
:102EF00068E170E0CE0101960E940F3040E050E0A2
:102F0000BA0180E290E00E94313010921B0340E051
:102F100050E0BA018FE090E00E9431300E94A3118E
:102F200040E050E0BA0183E190E00E943130289601
:102F3000E2E00C94C22F9091740292FB222720F9B8
:102F4000281779F080FB92F99093740260917302D4
:102F50007091740284E090E00E943D3082E00E9413
:102F60004C1008951F920F920FB60F9211242F93B9
:102F70003F934F935F936F937F938F939F93AF9301
:102F8000BF93EF93FF938091E10082FF09C080918E
:102F9000E20082FF05C08091E1008B7F8093E10019
:102FA0008091DA0080FF24C08091D80080FF20C08B
:102FB0008091DA008E7F8093DA008091D90080FFC3
:102FC0009DC080E189BD82E189BD09B400FEFDCFCD
:102FD00081E08093D2028091C502811109C00E94D4
:102FE000890A0E942A0B8091E20084608093E200AB
:102FF0008091E10080FF17C08091E20080FF13C044
:103000008091E2008E7F8093E2008091E2008061F7
:103010008093E2008091D80080628093D80019BC30
:1030200085E08093D2028091E10084FF2BC08091E3
:10303000E20084FF27C080E189BD82E189BD89B5B6
:10304000982F917080FFFBCF8091D8008F7D809367
:10305000D8008091E1008F7E8093E1008091E200B2
:103060008F7E8093E2008091E20081608093E20095
:103070008091D302882309F447C084E08093D20270
:103080008091D2028091E10083FF27C08091E2000D
:1030900083FF23C08091E100877F8093E10082E07D
:1030A0008093D2021092D3028091E1008E7F8093B0
:1030B000E1008091E2008E7F8093E2008091E20047
:1030C00080618093E20042E060E080E00E94F80AC4
:1030D0008091F00088608093F000FF91EF91BF91A4
:1030E000AF919F918F917F916F915F914F913F91A0
:1030F0002F910F900FBE0F901F90189519BC109232
:10310000D2021092C50274CF8091E30087FD93E054
:103110009093D202B5CF78941F921FB61F921124BC
:103120008F939F93AF93BF938091C1029091C202FE
:10313000A091C302B091C4020196A11DB11D80935C
:10314000C1029093C202A093C302B093C402BF9184
:10315000AF919F918F911F901FBE1F9018952FB711
:10316000F8948091C1029091C202A091C302B091E3
:10317000C4022FBF08950E94AF189C019091A00235
:103180008091A102982B21F0309393022093920218
:103190009091A2028091A302982B21F0309391028A
:1031A000209390028EE992E00E944B0C0895CF93F9
:1031B0001092E701C6E0E2EBF1E0DF018C2F1D92F7
:1031C0008A95E9F790E080E00E94260C90E080E08C
:1031D0000E94010C1092E6010E94B713EEE9F2E0A2
:1031E000DF011D92CA95E9F710928D0210928E02AE
:1031F00010928F020E94BB18CF910895AAE2B0E00E
:10320000E4E0F9E10C94A52F84ED92E02091F10027
:10321000FC012193CF01F2E08C3D9F07B9F780912B
:10322000D502833009F470C0B8F4813009F447C086
:10323000823009F4B1C08091E80083FF7EC28091A2
:10324000D4029091D5029A3008F077C2E92FF0E0CD
:10325000E559FF4C0C94F52F8A3009F48CC08B3063
:1032600009F46FC0893039F78091D402813219F79F
:103270008091D8029091D9020297E8F68091E800F7
:10328000877F8093E8008091E80082FF38C09091AA
:10329000F3008091F200029731F48091F1008130C7
:1032A00011F0863021F48091F1008093C702809163
:1032B000E8008B778093E8000E94D90ABCCF809108
:1032C000D402813A09F0B7CF8091E800877F8093DC
:1032D000E8008091D8029091D902892B61F468E0CE
:1032E00088EC92E070E00E94850B8091E8008B777B
:1032F0008093E800A0CF60E090E080E0F3CF809181
:10330000D2028111C0CF97CF8091D402813A09F0C7
:1033100092CF8091D8029091D902892B09F08BCF5E
:103320008091E800877F8093E8008091E80080FF2B
:10333000FCCF809166018093F1008091E8008E7748
:10334000B9CF8091D402813209F075CF8091D80233
:103350009091D902892B09F06ECF8091E800877F88
:103360008093E8000E94D90A8091D602809366017A
:103370000E94D71860CF8091D402813209F05BCFD0
:103380008091E800877F8093E8000E94D90A8091AD
:10339000D7028093C6024FCF8091D402813A09F0C0
:1033A0004ACF8091E800877F8093E8008091E80011
:1033B00080FFFCCF8091C602BECF803899F0823862
:1033C00009F0BBC18091D8028F70873008F0B5C179
:1033D0008093E9008091EB0085FB882780F91092AB
:1033E000E90006C08091D0029091D10291118260D3
:1033F0009091E800977F9093E8008093F1001092FD
:10340000F1008091E8008E7794C1882309F482C18D
:10341000823009F092C18091D602811185C18091DC
:10342000D8028F702FEF280F263008F086C18093C6
:10343000E9002091EB0020FF77C1933031F48091B7
:10344000EB0080628093EB006FC19091EB00906184
:103450009093EB0021E030E001C0220F8A95EAF75B
:103460002093EA001092EA008091EB008860EACF96
:10347000811163C11091D6021F778091E30080789B
:10348000812B8093E3008091E800877F8093E800A0
:103490000E94D90A8091E80080FFFCCF8091E30070
:1034A00080688093E30082E0111183E08093D20270
:1034B00044C18058823008F040C18091D60290917A
:1034C000D7028C3D23E09207A1F583E08A838AE24C
:1034D00089834FB7F894DE01139620E03EE051E275
:1034E000E32FF0E050935700E49120FF03C0E295F2
:1034F000EF703F5FEF708E2F90E0EA30C0F0C7961C
:103500008D939D932F5F243159F74FBF8091E80031
:10351000877F8093E8006AE270E0CE0101960E9406
:10352000850B8091E8008B778093E80006C1C096F8
:10353000E7CF4091D8025091D902292F3327233069
:10354000310509F444C078F52130310509F46FC024
:103550008BE390E0EEE2F3E12230310509F0EDC0BB
:103560002091E800277F2093E8002091DA02309133
:10357000DB028217930708F49C0140E02115310516
:1035800009F064C0411162C08091E80082FDC9CF9A
:103590008091D202882329F2853019F28091E800C7
:1035A00083FFF2CFBECF21323105A9F1223231059E
:1035B00009F0C3C04115510509F443C0413051051C
:1035C00009F0BBC08BE790E0E3E7F2E1C9CF9927B0
:1035D00081309105C1F0009759F0029709F0ADC014
:1035E000EBE7F3E1E4918E2F90E0EBE7F3E107C026
:1035F000EBEAF3E1E4918E2F90E0EBEAF3E1009740
:1036000009F49BC0ADCFE7E9F3E1E4918E2F90E0A0
:10361000E7E9F3E1F4CF4115510571F0413051056F
:1036200009F08BC089E090E0E9E5F3E199CF82E110
:1036300090E0E9E6F3E194CF89E090E0E0E4F3E1A3
:103640008FCF80E490E0EEEEF2E18ACF8091D2025B
:10365000882309F466CF853009F463CF8091E800B0
:1036600083FD5FCF8091E80082FD8ECF8091E800DE
:1036700080FF84CF9091F3008091F20021153105F5
:1036800019F08830910550F041E0089709F040E0CA
:103690008091E8008E778093E80070CF449140934A
:1036A000F1003196215031090196E8CF803809F0B8
:1036B00044C08091E800877F8093E8008091D30226
:1036C0008093F1009ECE811138C01091D602123045
:1036D000A0F58091E800877F8093E8001093D302E3
:1036E0000E94D90A112311F084E005C08091E30003
:1036F00087FDFACF81E08093D20242E061EC81E065
:103700000E94F80A42E261EC82E00E94F80A80918D
:10371000D20213C08091D602813079F481E09330D7
:1037200009F080E08093D1021092E9008091E800D6
:10373000877F8093E8000E94D90A8091E80083FF88
:103740000AC08091E800877F8093E8008091EB00B9
:1037500080628093EB00AA96E3E00C94C12F1F9245
:103760000F920FB60F9211242F933F934F935F93B5
:103770006F937F938F939F93AF93BF93CF93DF9379
:10378000EF93FF93D091E900DF708091EC00C82F98
:10379000C17080FDC0E81092E9008091F000877F41
:1037A0008093F00078940E94FE181092E9008091B6
:1037B000F00088608093F000CD2BCF70C093E900BB
:1037C000FF91EF91DF91CF91BF91AF919F918F9139
:1037D0007F916F915F914F913F912F910F900FBE0D
:1037E0000F901F9018950E94D7182FEF84E39CE04C
:1037F000215080409040E1F700C0000081E08093BC
:10380000E00080E28093D8001092C9008FE19EE42E
:103810000197F1F700C0000087E090EBDC01809396
:103820001E0390931F03A0932003B093210388E10C
:103830009CE00FB6F894A895809360000FBE90931B
:103840006000FFCF8B3109F464C040F58B3071F01C
:1038500078F4863009F446C020F4853059F180E0D0
:103860000895873009F447C08830C9F781E008958A
:10387000803109F45CC068F48E3089F79091B90208
:10388000892F8B7F92FF84608093B90282FD4BC0A9
:10389000EDCF863159F3893149F3E1CF8A32F9F01E
:1038A00058F48732A9F020F48E31C8F28D514BC004
:1038B0008932A9F60E94F31B833440F48A3308F05E
:1038C00041C0853329F0883389F2C9CF833439F672
:1038D00081E090E00E9473100E94D718C7CF0E9429
:1038E0002917C4CF8091B902807F8093B90281E00B
:1038F0008093B80208959091B902892F8E7F90FF2E
:1039000081608093B90280FDB1CF817F8093B9023D
:10391000ADCF9091B902892F8D7F91FF8260809306
:10392000B90281FFA3CF8091B9028160EFCF90915E
:10393000B902892F877F93FF88608093B90283FD46
:10394000F2CF94CF895321E030E0A90102C0440FA7
:10395000551F8A95E2F7CA01BDCF0E94D7182FEFF5
:1039600084E39CE0215080409040E1F700C00000DB
:1039700088E19CE00FB6F894A895809360000FBE94
:1039800090936000FFCF662309F472C08D3C41F430
:103990000E94A80C81958093A1020E94BB180895F3
:1039A0008E3C19F40E94A80CF6CF8F3C31F40E9493
:1039B000A80C81958093A002F0CF803D19F40E945D
:1039C000A80CF8CF893D29F40E946F0C8093A202C5
:1039D000E4CF8A3D21F40E946F0C8195F7CF8B3D97
:1039E00031F40E946F0C81958093A302D6CF8C3D59
:1039F00019F40E946F0CF8CF9FE2980F983020F5D1
:103A0000282F215D330BA90121E030E001C0220FF6
:103A10004A95EAF790919F02922B90939F02815DC5
:103A200021E030E0A90102C0440F551F8A95E2F75A
:103A3000CA012091AC02662309F493C0822B8093C3
:103A4000AC020E94051408958D3D31F480918F02DF
:103A5000816080938F02A1CF8E3D21F480918F02EF
:103A60008260F7CF8F3D19F580918F028460F1CF8E
:103A70009091A0028D3C59F42091A10227FF0DC026
:103A80001092A10291110BC010928D0208C08E3CC1
:103A9000B1F42091A10212169CF39923B1F09091F8
:103AA000A2022091A302922B11F410928E02482FB1
:103AB000415D550B4830510508F4B1CF6ECF8F3CB6
:103AC00039F497FFEACF1092A0029091A102DACFC9
:103AD000803D19F41916BCF3E0CF2091A202893D74
:103AE00029F41216D4F61092A202D7CF8A3D19F407
:103AF00027FFD3CFF8CF2091A3028B3D29F427FFD6
:103B0000CCCF1092A302C9CF8C3D19F41216CCF37E
:103B1000C4CF2FE2280F283088F4282F215D330BE3
:103B2000A90121E030E001C0220F4A95EAF7209573
:103B300030919F02232320939F02AFCF20918F02C9
:103B40002E7F8D3D59F020918F022D7F8E3D31F0DB
:103B50008F3D09F0A2CF20918F022B7F20938F02FF
:103B60009CCF809582236BCF882309F456C082387E
:103B700079F40E94801181FF50C089E30E94680F90
:103B80000E94B71389E30E945B0F0E94B713089548
:103B9000833859F40E94801180FF3FC083E50E9462
:103BA000680F0E94B71383E5EECF843859F40E9462
:103BB000801182FF32C087E40E94680F0E94B71311
:103BC00087E4E1CF9CEF980F913AE8F290E2980FEA
:103BD000983050F4877091E001C0990F8A95EAF708
:103BE000892F0E94540FD1CF9BE5980F933028F472
:103BF00090E080E00E94260C089598E5980F9B3194
:103C000028F490E080E00E94010C089593E3980F5F
:103C1000933118F460E00E94C31C0895CF93C82F1D
:103C20008823C9F08238C9F40E94801181FD13C035
:103C300089E30E94680F0E94B7132FEF87EE93E08D
:103C4000215080409040E1F700C0000089E30E94CD
:103C50005B0F0E94B713CF9108958338A1F40E949F
:103C6000801180FDF8CF83E50E94680F0E94B71392
:103C70002FEF81EE94E0215080409040E1F700C0AA
:103C8000000083E5E4CF8438A1F40E94801182FD16
:103C9000E2CF87E40E94680F0E94B7132FEF81EEF6
:103CA00094E0215080409040E1F700C0000087E49C
:103CB000CECF8CEF8C0F813A08F0BEC08091B80255
:103CC0008130F9F0882399F08230B1F11092B80276
:103CD000E2EBF1E088EB91E02191C21709F4E1C039
:103CE0008E179F07C9F78C2F0E94680FB2CF809163
:103CF000E701823269F78C2F0E94221C8111ABCF21
:103D0000E7CF8091E7018232B1F3C43171F038F42A
:103D1000CB3049F0C03161F080E08170EFCFC93223
:103D200021F0C833C9F781E0F8CF1092B802F4CF80
:103D300082E08093B802F7CFC93209F451C070F520
:103D4000C43109F44DC0A0F4C73009F084CF1092FB
:103D5000850284E180930901C09363018CE3809321
:103D6000620188E08093650188E28093640173CFEB
:103D700082EE8C0F8A3008F06ECFCD51C093BC011B
:103D8000C33009F448C0C0F5C13009F441C089E02E
:103D900091E0C230C1F11092BC015DCFC03509F491
:103DA00043C0C0F48AE0CF3409F055CFE091BA01A6
:103DB000F091BB01309709F44ECF2081082E000C02
:103DC000990B820F911D8F3F910591F18CF18FEF2F
:103DD000808341CFC13551F181E0C23539F33BCF0A
:103DE0008091BC01882309F436CF1092BC01109257
:103DF000BB011092BA012FCFC53099F078F084E65C
:103E000091E0C63041F69093BB018093BA0123CF75
:103E100085E892E0F8CF83E691E0F5CF82E691E085
:103E2000F2CF85E691E0EFCF86EFC0CF8FEFBECF28
:103E300097FFCECF10820FCF80E28C0F883068F4CE
:103E4000C77021E030E001C0220FCA95EAF78091E7
:103E5000E701822B8093E701FCCEEBE5EC0FE3302A
:103E600040F4F0E0E859FE4F808190E00E94260C7B
:103E7000F2CEE8E5EC0FEB3150F4F0E0EE0FFF1F6F
:103E8000E559FE4F808191810E94010CE4CE83E3CD
:103E90008C0F833108F0DFCE61E08C2F0E94C31CB1
:103EA000DACE8C2F0E945B0F0E94B7131CCF1F939A
:103EB000CF93DF93182FD0E0C0E0893311F4C0E531
:103EC000D0E0812F0E940E1E209739F4812F0E948E
:103ED000B41DDF91CF911F9108958FE99FE0019765
:103EE000F1F700C000002197EFCFB0E0A0E0EBE7D2
:103EF000FFE10C949E2FEC018AE0A82EFE01249194
:103F0000222309F497C0213009F03EC031968491F4
:103F1000813031F42296FE0184910E94571F07C020
:103F2000823039F42296FE0184910E940E1E219661
:103F3000E5CF833031F42296FE0184910E94B41DB6
:103F4000F6CF843009F074C02296FE01249190E0EF
:103F500080E0FE0131962053330B2A30310548F0C2
:103F6000019728F3EFE9FFE03197F1F700C0000077
:103F7000F7CFA89EA001A99E500D1124C901840F5E
:103F8000951F2491EF01E5CFE22FF0E0E152FC4EC6
:103F9000B490822F86958695869590E0FC01E1533A
:103FA000FC4EE4902770F12C022E02C0F594E794A9
:103FB0000A94E2F731E0E322FF24FC01E154FC4ED5
:103FC000C490D12C022E02C0D594C7940A94E2F773
:103FD000E1E0CE22DD24FC01E155FC4E049110E02D
:103FE00002C0159507952A95E2F701701127E11493
:103FF000F10419F081EE0E940E1EC114D10419F0D3
:1040000086EE0E940E1E8B2D0E94571FC114D104F4
:1040100019F086EE0E94B41DE114F10419F081EE4E
:104020000E94B41D0115110509F481CF8CE275CFF2
:10403000EF017DCFCDB7DEB7EAE00C94BA2F0F9336
:104040001F93CF93DF93C62FD42F022FFC018581BE
:104050008823A9F060931A030E94AF189093190364
:1040600080931803C77081E001C0880FCA95EAF7F2
:104070000E94FB13DF91CF911F910F9108958091C2
:104080001A03681332C080911803909119030E949B
:10409000E60B883C910548F510E21D0FCD17B9F0ED
:1040A00080E28C0F883040F4C77081E001C0880F37
:1040B000CA95EAF70E94F413183048F481E09D2F66
:1040C000977001C0880F9A95EAF70E94FB13802F22
:1040D0000E94571F183070F6D77081E001C0880F1A
:1040E000DA95EAF70E94F413C5CFC77081E001C0EA
:1040F000880FCA95EAF7F6CFB0E0A0E0E2E8F0E278
:104100000C949E2F8C01DC0114968C9114978823BB
:1041100009F4EAC021E04C9111965C911197129636
:104120006C91129713967C91139715969C910E940F
:104130009B10EC018B34BEE79B0709F45AC0B0F426
:104140008934FEE79F0731F18A349E4709F44AC05B
:10415000FE01E054FE47E830F10508F0A4C0EB583A
:10416000FF4CD80115968C910C94F52F8D349E47F9
:1041700009F44EC0CD348EE7D80708F442C0CE34DF
:104180009EE7D90729F7F8018581882361F08CEA39
:1041900090E007C0D80115968C91882321F081EE1C
:1041A00090E00E94751FF8018581882309F40CC4F2
:1041B00010921A03CE019057839708F0F1C384E060
:1041C00090E00E9409309093740280937302FE0184
:1041D000E150F047E232F10508F0A2C0E358FF4C8D
:1041E0000C94F52FF80185818823E9F28AED90E09F
:1041F000D8CFD80115968C918823A9F285ED90E04F
:10420000D0CFF8018581882371F286EC90E0C9CF88
:10421000D80115968C91882331F28DEB90E0C1CFB7
:10422000882309F20E94C01091E089270E94EE16AF
:10423000BACF882309F4B7CF0E94C010F7CF8823E4
:1042400009F4B1CF0E94C01091E089270E940A179B
:10425000AACF882309F4A7CF0E94C010F7CF90916E
:104260001B0380FB97F990931B030BC0882309F471
:104270009ACF90911B03892F97FB87F980588093E1
:104280001B030E94A3118FCF90911B0380FB96F913
:10429000EACF882309F487CF90911B03892F8F7B66
:1042A00096FF8064ECCFFE01E851FC47E730F10552
:1042B00008F079CFE156FF4C0C94F52F26E241EE41
:1042C00061EEC8010E941F208091DC01877061F0BF
:1042D000D80115968C91882339F08091740282FF61
:1042E00003C082E00E944C10CDB7DEB7EAE00C9428
:1042F000BA2F27E245EE65EEE4CF26E241EE60EE0E
:10430000E0CF27E245EE64EEDCCF26E241EE62EE3E
:10431000D8CF27E245EE66EED4CF28E241E0EBCFDE
:104320008091730281608093730295C080917402C2
:104330008860809374028FC0809173028260F3CF93
:10434000809173028460EFCF809173028860EBCF1D
:10435000809174028160EDCF809174028260E9CF18
:10436000809173028061DFCF809173028062DBCF26
:10437000809173028064D7CF0E94D7188091730216
:104380008068D1CF809173028C60CDCF8091740210
:104390008360CFCF809173028E7FC5CF80917402EE
:1043A000877FC7CF809173028D7FBDCF80917302CD
:1043B0008B7FB9CF80917302877FB5CF80917402D4
:1043C0008E7FB7CF809174028D7FB3CF80917302BF
:1043D0008F7EA9CF809173028F7DA5CF80917302CC
:1043E0008F7BA1CF0E94D718809173028F779BCFCC
:1043F00080917302837F97CF809174028C7F99CFD5
:104400008091730282FB992790F921E0922790FB1B
:1044100082F990FB83F987CF80917402982F909551
:1044200091708E7F892B90FB81F983CF90917302DD
:10443000892F8F7B96FF806476CF0E94D71890914A
:104440007302892F97FB87F980586DCF61E08EE06A
:1044500090E00E941F30609173027091740284E0BA
:1044600090E00E943D300E94D7182ECF60E0EFCF41
:1044700090917302892F8F7E94FF806154CF909129
:104480007302892F8E7F90FF81604DCF90917402CF
:10449000892F877F93FF88604CCF85E390C285E3A7
:1044A0009CC20E94F31B6FEF7FEF90E080E00E94C0
:1044B0003D300E94AD1C8091740282FB882780F9F8
:1044C00091E089270E949B17F8018581C081D181E5
:1044D000882309F44DC0CE010E948B0FF82E682F5F
:1044E000CE010E94FF0FBE018F2D0E94170E0E9469
:1044F000360ED82FC92FA82ED8011596CC90159717
:104500001696BC90B2943FE0B3228091DC01877094
:10451000F1F0EC2CCC20E1F0892F807F803451F039
:1045200080E28D0F883098F0B11004C0892F807E12
:10453000803269F08091740282FF09C082E00E949B
:104540004C108091DC018770EE24E3948111E12C02
:10455000DC2ED2942FE0D222BBE0BD1508F46DC052
:10456000ED2DF0E0EA55FF4C0C94F52F80E0AACF3A
:10457000CE010E94CC0FF82EB6CFEC2FEF70FE2E9E
:10458000C07F19F0F29490EFF922CC20B9F0FF200F
:1045900069F080E28D0F883010F0A11009C0809181
:1045A000E701F82AF092E7010E94B7138D2F43C06C
:1045B0008091E601F82AF092E601F6CF8D2F0E9455
:1045C000B41DFF20D1F1D05ED83010F0A11004C08E
:1045D0008F2D0E94540F06C0F0948091E601F822BE
:1045E000F092E6010E94B71328C0FC2FFF70FF2E47
:1045F000C07FC03219F0F29480EFF822AA2059F05F
:1046000021E0A21609F479C0CC2009F485C0BB20B2
:1046100009F447C0CBCF8091740282FD3EC0CC200C
:10462000B1F1FF2039F08091E701F82AF092E7011B
:104630000E94B71380E00E940E1EED2DE850FF0B84
:10464000349710F40E948011EE20B1F08091DC01CB
:1046500080FD12C0D80115961C9286958695869588
:104660000E946310C8010E947C208091DC01869525
:10467000869586950E943A1020E0F801408151818C
:1046800062817381848195810E949B102DCE80E090
:104690000E94B41DFF2089F29BCFCC20A1F0B11065
:1046A00004C08F2D0E94FB13C8CF31E0B312C5CFD9
:1046B0008091E5019F2D9823F91609F4BECFF82AC1
:1046C000F092E501BACFB110B8CF8F2D0E94F4134C
:1046D0009091E5018F2D892329F08F2D80958923D5
:1046E0008093E5018091B9019F2D982309F4A5CF0E
:1046F000F094F822F092B901A0CFCC2029F085E007
:104700008B1508F49ACFCDCF94E09B1508F495CF84
:104710008F2D0E94F41391CFBB20D1F3A9E3AA12ED
:1047200009C0BFEFE7EEF3E0B150E040F040E1F741
:1047300000C000008D2F0E94B41D7FCF8C2F869566
:104740008695837069F0813009F077CF8D2F9C2F8B
:104750009370C11002C080E090E00E94010C6DCF08
:104760008D2F9C2F9370C11002C080E090E00E94BA
:10477000260C63CF6C2D8D2F0E94C31C5ECF8C2F17
:10478000837009F03FC0C11058CF4D2F4295469518
:104790004770440F440F2D2F2F7030E0042E02C0BD
:1047A000220F331F0A94E2F790E080E0D4FF09C0A3
:1047B0008FE090E002C0880F991F4A95E2F780953C
:1047C0009095C695C695C370C23099F078F4409123
:1047D000E8015091E901C13039F0822B932B8423F9
:1047E00095230E94731029CF242B352B822B932BDA
:1047F000F8CF822B932B2091E8013091E901822799
:104800009327EFCF8695CC2011F08C2F81708823D1
:1048100009F413CF4D2F429546954770440F440F2E
:104820002D2F2F7030E0042E02C0220F331F0A9468
:10483000E2F790E080E0D4FF09C08FE090E002C092
:10484000880F991F4A95E2F780959095C695C69571
:10485000C370C23099F078F44091710250917202A5
:10486000C13039F0822B932B842395230E9435107D
:10487000E4CE242B352B822B932BF8CF822B932B3A
:10488000209171023091720282279327EFCFCF706F
:10489000CC2029F08C2F0E9463108D2F03CF8D2FF9
:1048A0000E94F4138C2F0E943A10C7CE8D2F22EF56
:1048B000A21699F12A1570F030EFA316D1F091EFFE
:1048C000A91691F0CC2009F45BC0B1106FCE8C2FEB
:1048D0008F7127C0A3EFAA1639F1B4EFAB12F2CF54
:1048E0008091740282FD2EC08C2F8F71CC20D9F262
:1048F00018C0CC2069F0E4E0EB1508F49ECECF712F
:1049000081E090E002C0880F991FCA95E2F7B8CF06
:10491000F5E0FB1508F491CEF2CF8C2F8F71C1100A
:10492000C2CF0E94631089CE90E080E0CC2009F4D1
:104930009DCFCF7181E090E002C0880F991FCA958A
:10494000E2F794CFCC2089F0CF718C2F0E946310B6
:104950008091740282FF07C028E0C29FC001112429
:1049600083608093DC018C2FDCCF81E00E944C10AF
:1049700031E03B1508F061CE82E00E944C105DCE24
:10498000BB2059F0893309F0D5CE8FEF97EEA3E025
:1049900081509040A040E1F7CBCE8C2F8F7183CF18
:1049A000C631FCE7DF07E1F48091E7018A7A91E004
:1049B00009F490E09093B80181116FCD89E20E94D3
:1049C000680F0E94B71380CCC631DC4709F07CCD5C
:1049D0008091B801811163CD89E20E945B0FF1CF14
:1049E000C3303CE7D30709F45ECD50F4C1159CE712
:1049F000D90709F456CDC130DC4709F45ACD64CD4E
:104A0000CB35BCE7DB0709F4B1CDCC35ECE7DE07ED
:104A100009F451CDCA35DC4709F056CD81E052CDBD
:104A2000CF93DF938091DB01807F09F04DC08091AF
:104A3000DA01882309F448C0E09117035091DE029F
:104A4000C091D601D091D5016091D7017091D80164
:104A500047E05E17C9F18E2F90E0E49FF00111242A
:104A6000E152FD4F2481222391F1489FF001499F9B
:104A7000F00D1124DF01A152BD4F11962C91119719
:104A80002C1325C02C912D1322C015962C9115970F
:104A900021111DC012962D913C91261B370B283CED
:104AA0003105A8F48091DB018F7080618093DB0178
:104AB000EB51FD4F80818F708061808385ED91E0A7
:104AC0000E947C200E94810FDF91CF910895FC010C
:104AD0003196E770BECFA4E1B0E0E1E7F5E20C94D7
:104AE0009C2F8C0186E0F801DE011F9601900D924B
:104AF0008A95E1F7D80114968C9114971596EC904D
:104B0000159795ED892E91E0992E9091D9019111EB
:104B100028C0882319F1EE20F1F0C8010E94781016
:104B2000F82E8823C1F087E0F801D40101900D929E
:104B30008A95E1F78091D901813031F48091D501D6
:104B40009091D6010E94BF0F0E9410258F2D649670
:104B5000ECE00C94B82FC8010E947C20FF24F39451
:104B6000F5CFF801D080C180A280B380F090DA0147
:104B70002091D7013091D801A501421B530BFF2092
:104B800009F4E6C0483C510508F0A8C08823F1F2BA
:104B90009091D6018091DB01282F207F09F05FC022
:104BA000C91215C09091D5019D1111C0E11051C0DD
:104BB0008F7080618093DB0185ED91E00E947C2005
:104BC0008091DB01D80116968C93F12CBFCFE110B8
:104BD00040C06C2D8D2D0E946A0AE82E882361F05A
:104BE00085ED91E00E947C2087E0E5EDF1E0DF01BA
:104BF0001D928A95E9F7E9CFDF86C88A8F85988963
:104C00000E94BF0F292F22952F70243058F49F70D7
:104C1000223088F0992399F0F8019681907F79F4F9
:104C2000FE2C94CF2A5F2F70223068F0C8010E94BA
:104C30007C20EF2CF5CF992311F0882389F3805E37
:104C4000883070F3F3CF803F58F3815F833070F783
:104C5000E7CF8091DB0181608093DB01B6CFC91281
:104C600014C09091D5019D1110C0E1100EC0169690
:104C70008C93C8010E947C2087E0F801A5EDB1E08B
:104C800001900D928A95E1F761CFC8010E947810DA
:104C9000882309F460CFEE2009F45DCF8091DB0119
:104CA000803288F02091D5013091D601398728874C
:104CB000BB86AA869091D9019C871D868E87CE01DE
:104CC00008960E947C2087E0F801A5EDB1E00190F4
:104CD0000D928A95E1F70E94102540CF9091DB015B
:104CE000292F207F09F47CCF882309F42FCF8091CE
:104CF000D6018C1110C08091D5018D110CC0E1102E
:104D00000AC09683C8010E947C2087E0D4011D92CE
:104D10008A95E9F71BCFC8010E947810882309F40F
:104D20001ACFEE2009F417CF8091DB01803258F2C0
:104D30002091D5013091D6013A832983BC82AB8280
:104D40009091D9019D831E828F83CE010196B9CFA8
:104D5000483C5105D0F6882309F400CFFE2CEE2004
:104D600009F4F9CE8091D6018C1117C08091D5013C
:104D70008D1113C08091DB0180FD7ECF982F907F35
:104D800009F47ACF8683903F09F473CF982F907FF0
:104D9000905F8F70892B86836CCFC8010E9478103A
:104DA000811191CF8091DB0181608093DB01C8018B
:104DB0000E947C20CBCEABE1B0E0E1EEF6E20C94B9
:104DC000A42F4E8B5F8B688F798F8A8F9B8F192FC3
:104DD00091111092E6011D8A86E0FE017696DE01B1
:104DE0001F9601900D928A95E1F70A8D002341F0FC
:104DF00021E04F85588969897A89C8010E949B10F2
:104E00000B8B1C8B87E0FE013F96DE01189601900C
:104E10000D928A95E1F7CE0108960E946B258111CB
:104E20002AC087E0FE013896DE01119601900D92AE
:104E30008A95E1F78C858823F1F02091DE0230E03D
:104E4000C9010196877099274091170348171906E1
:104E5000E9F097E0929FD001939FB00D1124A152E9
:104E6000BD4FFE01319601900D929A95E1F7809326
:104E7000DE020E94810F17E0809117039091DE02FD
:104E8000891312C06B96E4E00C94C02F0E94D718CF
:104E90001092DE021092170387E0E5EDF1E0DF01EA
:104EA0001D928A95E9F7E7CF819FC00111248152B5
:104EB0009D4F0E946B25882329F38091170390E072
:104EC00001968770992780931703D6CF6F927F92B0
:104ED0009F92AF92BF92CF92DF92EF92FF920F9389
:104EE0001F93CF93DF93CDB7DEB767970FB6F894D4
:104EF000DEBF0FBECDBF8E01065F1F4F88E0D80119
:104F00001D928A95E9F793EAE92E91E0F92E99240A
:104F10009394CC24C394D12C3DEAA32E31E0B32E3C
:104F2000F70181917F018F3F09F447C0F894E82F82
:104F3000E295EF70F0E021A18F70A60102C0440F4E
:104F4000551F8A95E2F7CA01922F982B91A392A13F
:104F50008095892382A3789400C089EA682E81E035
:104F6000782ED801692D6095F30191913F018D91C3
:104F70009D01215031099F3F09F466C0492F429598
:104F80004F7050E0FA0140A150E09F7002C055956B
:104F900047959A95E2F740FD57C08929F90180832A
:104FA000A614B70409F7F701319780818F3F11F0FC
:104FB0000E941B0DF0EAFA95F1F7990C29EAE21626
:104FC00021E0F20609F0ACCF48E050E0B80187E6F6
:104FD00092E00E945330009741F028E0F801A7E6E4
:104FE000B2E001900D922A95E1F700917002892BB1
:104FF00069F181E08093EE010E94AF189093ED017A
:105000008093EC018091EC019091ED010E94E60B00
:10501000059700F110E00B581D4F44E050E067E6A3
:1050200072E0C8010E945330B12C892B51F084E00A
:10503000E7E6F2E0D80101900D928A95E1F7BB24F2
:10504000B3941092EE0107C08623A8CF8091EE01A1
:105050008111D8CFB12C0E945D11F82EE091700221
:10506000882309F48CC019821A821B821C820E2F9D
:1050700010E00B581D4F809187028A30B0F54AEB43
:1050800056E1BE016F5F7F4FC8010E942A1188233D
:1050900009F464C04AEB55E1BE016F5F7F4FC80160
:1050A0000E942A11882309F459C044E656E1BE0142
:1050B0006F5F7F4FC8010E942A11882309F44EC0F8
:1050C0001092870280916F0290E044E050E0BE01B0
:1050D0006F5F7F4F8B589D4F0E94533021E020938C
:1050E000F901892BC1F4F12C23C08091EF0190913B
:1050F000F0010E94E60B843F914008F68091F9018F
:10510000882389F384E0FE013196DF011D928A95A0
:10511000E9F71092F901E0916F02F0E0EB58FD4FD2
:1051200089819A81AB81BC8180839183A283B3837F
:105130008F2D8B2967960FB6F894DEBF0FBECDBFBB
:10514000DF91CF911F910F91FF90EF90DF90CF9063
:10515000BF90AF909F907F906F900895909187023D
:105160009F3F31F09F5F909387029A3008F4AACF57
:105170000E94AF189093F0018093EF01BFCFF0E051
:10518000EB58FD4F84E0ACEFB1E001900D928A95B1
:10519000E1F764E070E08CEF91E00E94590C80939D
:1051A000FB01C0900002D0900102E0900202F0905A
:1051B00003028091F5019091F601A091F701B09161
:1051C000F801C816D906EA06FB06D1F0C092F5012F
:1051D000D092F601E092F701F092F8010E945D1181
:1051E00081110EC00E94F50BC61AD70AE80AF90A07
:1051F000C0926302D0926402E0926502F09266026D
:105200000E945D11F82E81116ECF4091F1015091F5
:10521000F2016091F3017091F4012FB7F89480913D
:10522000C1029091C202A091C302B091C4022FBFEB
:10523000481759076A077B0709F455CF0E94F50BF9
:105240006093F1017093F2018093F3019093F40164
:105250000E945E129C0199E0E4E0F2E0DE0111960A
:1052600001900D929A95E1F788859985009729F02C
:105270002817390711F00E942612FE01729686E067
:10528000DF011D928A95E9F74A895B896C897D89DE
:105290008E899F890E9469122A833B834C835D8398
:1052A0006E837F8366E070E0CE0102960E94590C07
:1052B000898389E0FE013196A4E0B2E001900D926D
:1052C0008A95E1F735CFA6E0B0E0E9E6F9E20C9483
:1052D000A42F0E94AF188C018091EA019091EB01FC
:1052E0008017910781F019821A820E94AF18682FE7
:1052F00049815A81792F80E090E00E94DB2610934B
:10530000EB010093EA012696E4E00C94C02F1F9273
:105310001FB61F9211248F939F93AF93BF938091D9
:10532000C002811113C08091C1029091C202A0916C
:10533000C302B091C4024196A11DB11D8093C10268
:105340009093C202A093C302B093C402BF91AF91E5
:105350009F918F911F901FBE1F901895CDB7DEB7FC
:105360002D970FB6F894DEBF0FBECDBF85B780680E
:1053700085BF85B7806885BF84B7877F84BF0FB638
:10538000F894A895809160008861809360001092E5
:1053900060000FBE80E890E00FB6F8948093610043
:1053A000909361000FBE8DEE9CE09093AF018093CF
:1053B000AE010E94890A0E942A0B8091E20084605B
:1053C0008093E20078948091D2028823A1F010911A
:1053D000E9001F709091EC00892F817090FD80E8AA
:1053E000182B1092E9008091E80083FD0E94FE18BE
:1053F0001F701093E90082E084BD93E095BD9AEFA1
:1054000097BD80936E001092630210926402109216
:105410006502109266020E945D11809300010E9455
:105420005D1181110E94342E809100018091000154
:1054300094E0811190E09093700284E0891B809346
:105440006F0203EA11E0D8018D918D018F3F11F0B9
:105450000E941B0DB1E0093A1B07A9F784EF0E94D7
:105460001B0D85EF0E941B0D86EF0E941B0D87EF21
:105470000E941B0D88E0E5E7F2E0DF01282F1D9276
:105480002A95E9F7E7E6F2E0DF011D928A95E9F750
:105490008FE090E00E9403306F7360931B0390E0F5
:1054A00080E00E940930863E9E4F11F00E9429172D
:1054B00082E090E00E94FB2F8093B90284E090E0AC
:1054C0000E940930909374028093730283E090E00D
:1054D0000E94FB2F90E00E9473100E945D118111C9
:1054E00002C00E94372E0E945D11811102C00E94ED
:1054F0001B130E94A31186EE9CE0909361018093A0
:10550000600186E190E090935C0180935B0186E30B
:1055100090E090935F0180935E0181E091E0909331
:10552000BD028093BC0228E1C22ED12C30E4B32E00
:10553000EE24E394FF24F39490E1A92E8091D2020B
:1055400012E1853009F483C00E9466270DE712E05E
:1055500085E7882E82E0982ED401F80191918D91F3
:1055600042E0E538F40709F47CC09817B9F30E94CB
:105570005D11282E712CD4016D904D01F8013190F0
:105580008F01361429F1512C442443943624832D61
:105590008421B1F02220A1F05F8278860E94AF18AA
:1055A0009A878987FB8691E0862D842109F490E013
:1055B0009C874F81588569857A858B850E94DB267B
:1055C0005394440CF6E05F12E2CFF8013197608209
:1055D000739428E07212CFCF0E94BF1146C0809111
:1055E000D202843019F10E9432141092C0020FB618
:1055F000F894A895C09260000FBEB092600083B787
:10560000817F846083BF83B7816083BF78948895EE
:1056100083B78E7F83BF0FB6F894A8958091600002
:10562000886180936000109260000FBE8091D1026B
:10563000882369F00E9432140E946627E5E7F2E0B1
:105640008191811193C122E0ED37F207C9F7809172
:10565000D202853009F4C3CF0E94D7180E9480116E
:1056600073CF981384CF0E9463290E945D110E941A
:10567000321481110E94BF1186E0EEE9F2E0DE01F2
:10568000119601900D928A95E1F71092A002109266
:10569000A1021092A2021092A3028B819C81892BFD
:1056A00091F080919202909193020E94E60BAC01DE
:1056B00090918D02992309F404C180910901841706
:1056C000150608F40CC18D819E81892B09F44AC00E
:1056D00080919002909191020E94E60B9C01909122
:1056E0008E02992309F458C121353105D8F19F3F25
:1056F00019F09F5F90938E021D81112359F00E9433
:105700006F0C9FEF11160CF491E0899F802D1124EE
:105710008093A2021E81112359F00E946F0C9FEF0B
:1057200011160CF491E0899F802D11248093A3021F
:105730003091A2023323B1F02091A302222391F0F1
:1057400045EB3403C0011124992309F407C1909358
:10575000A20245EB240390011124332309F401C173
:105760003093A30246E050E0BE016F5F7F4F8EE9A9
:1057700092E00E945330892B61F48091A0029091B5
:10578000A102892B9091A202892B9091A302892BCF
:1057900011F00E94BB1886E0FE013196AEE9B2E03E
:1057A00001900D928A95E1F70E94801190918602F6
:1057B000891721F0809386020E94F50B0E945D11EB
:1057C000882309F4BBCE90911B0320918C02921781
:1057D00009F4CAC090938C0200918802109189024A
:1057E00020918A0230918B029FB7F8944091C102B8
:1057F0005091C2026091C3027091C4029FBF401BCE
:10580000510B620B730B453F51406105710518F454
:10581000882309F491CE8AE08D87909187029A308F
:1058200008F08ACE1A8219828A83EB821C8263E096
:1058300070E0CE0102960E94590C8983E0924201E9
:105840001092550110E000E030E020E044E050E02C
:10585000BE016F5F7F4F86E00E947215882309F4B6
:105860006BCE30E020E041E050E06BE173E087E098
:105870000E947215882309F45FCE30E020E041E0F9
:1058800050E0BE01635F7F4F88E00E94721588235D
:1058900009F452CE30E020E050E040E070E060E0FB
:1058A00089E00E947215882309F446CE0E94F50B08
:1058B000609388027093890280938A0290938B028E
:1058C0003BCE209185028AE0289F90011124241765
:1058D000350708F0F8CE9F5F90938D0202C09F3F7E
:1058E000D1F71B81112359F00E94A80C9FEF1116CC
:1058F0000CF491E0899F802D11248093A0021C81DB
:10590000112359F00E94A80C9FEF11160CF491E09E
:10591000899F802D11248093A1023091A00233230E
:1059200009F4D1CE2091A102222309F4CCCE45EB7B
:105930003403C0011124992359F09093A00245EB40
:10594000240390011124332331F03093A102BBCE04
:10595000F092A002F4CFF092A102B5CEF092A20292
:10596000F8CEF092A302FECE80E036CFA9BC19BDDE
:1059700009B400FEFDCF8091D8008F7D8093D800C0
:105980008091E00082608093E0008091E00081FDE2
:10599000FCCF0E94D7185BCE232B09F0AACEE2CE13
:1059A000289A219A229A23982B9880E58CBD0895F5
:1059B000909167019F3F09F071C08F3F09F46EC05D
:1059C000611144C010921D0390911D03423009F4EF
:1059D00041C0433009F442C094604130E1F141E0FC
:1059E00050E042175307E0F190911D0340315105FB
:1059F00009F452C0C0F54230510509F446C04830A0
:105A0000510509F446C09CB520911D03922B9CBD05
:105A100090911C03992319F09DB591609DBD8093D1
:105A20006701E82FE295EF70F0E031A1282F2F7089
:105A300081E090E001C0880F2A95EAF7382B31A366
:105A400092A18095892382A381E0089590E29093AA
:105A50001D03BACF986090931D03C1CF9C60FBCF0C
:105A6000440F551FBECF4034510549F04038510511
:105A700041F04032510539F621E020931C03926039
:105A800001C0936090931D03BECF91E090931C03DF
:105A9000BACF21E020931C039160F4CF80E00895F9
:105AA000CF93DF938EBD0E94AF18EC010DB407FEBB
:105AB00005C08EB590E0DF91CF9108950E94AF1898
:105AC0008C1B9D0B8436910588F38EEF9FEFF3CFEF
:105AD000CF93DF931EBC0E94AF18EC010DB407FEFC
