:100000000C948B0A0C94C30A0C94C30A0C94442ECF
:100010000C94C30A0C94C30A0C94C30A0C94C30A2C
:100020000C94C30A0C94C30A0C94312B0C941F2A11
:100030000C94CF2C0C94C30A0C94C30A0C94C30ADE
:100040000C94C30A0C94C30A0C94C30A0C94C30AFC
:100050000C94C30A0C94662C0C94C30A0C94C30A27
:100060000C94C30A0C94C30A0C94C30A0C94C30ADC
:100070000C94C30A0C94C30A0C94C30A0C94C30ACC
:100080000C94C30A0C94C30A0C94C30A0C94C30ABC
:100090000C94C30A0C94C30A0C94C30A0C94C30AAC
:1000A0000C94C30A0C94C30A0C94C30A320C380C87
:1000B000410C470C4F0C550C5B0C6F0C770C7F0CF4
:1000C000870C8F0C940CA10CA80CCF0CD50CC30C76
:1000D000C90CDB0CE10CE70C440DB80D4C0D160DF2
:1000E0001A0D500D1D0D530D5E0D280DAE0D2C0D6E
:1000F000620D300D660D900D340D6A0D9A0D3A0D9E
:10010000700D7A0D210D570D240D5A0D3F0D750DF3
:10011000860DA60DA80D120D480DC10D8A0E8A0E72
:10012000BC0EBC0E380F560F7A107A105B0FE90F19
:10013000FA0FFA0FA727CE276629CE276629162899
:100140003928662928293B296B75626563746C2000
:1001500067657420616C6C0A00207C206C65737389
:100160000A002D6F79616D6C207C206C6573730AB9
:10017000002E2E0A006C73202D310A0048656C6C2D
:100180006F2D657069632D6D656F772D313332008A
:100190006578756C74616E742A52554D4D414745B2
:1001A00030746962696165002B002D0236003700EA
:1001B00013001C00290004001200080018000C00A5
:1001C0000000330214000D000E001B000000E200CE
:1001D0002352E100225221522A000F00150006008E
:1001E0000A00090028001600110017000B00070084
:1001F0002C001D0019001A0010000500000000006E
:100200000000E0002C00E3002B00380236021F0241
:1002100035022302290034022E002602270225027D
:10022000350033022F002F0221024C7E0000000017
:1002300000000000000000002A0031002E021E0213
:1002400024022202280033002D003800340020024E
:10025000000037023000300231024B7E0000000007
:100260000000E000E200E3002B002D023600370022
:10027000E100000029001E001F00200021004A7E2E
:100280000000330250005100220000000000000076
:1002900000000000000000002A004D7E2D004E7E70
:1002A00049000000280027002600250024004F7E7A
:1002B0000000E1004F005200230000000000000099
:1002C000000053003700E2000000477E457ED30067
:1002D000000000000000467E447ED200D1000000F5
:1002E000497E417E407E437E427E00000000000049
:1002F00000000000000000000000000000000000FE
:1003000000000000B900B700B6007D007C007A0054
:1003100000000000000000000000000000000000DD
:10032000000000000000000001048E966E773EFE83
:100330007E5F1DB8F2664EFF5D19B0C20469542A93
:10034000D62EBFDD19B0C3E529B1E023A5A9B1C1FF
:100350000082674C1A978D795120C7068E7C7C7A73
:10036000764FFD5930E2460E9EBEDF1D9991A0A545
:10037000A1A9D022C6EF5C1B958990A2A7CCFB5502
:1003800028B3E44AF76C3BF46A562EDE1F9DB8D3BF
:10039000058892A6CE1EBEDF1D99B0E246EF5C072F
:1003A000115D980B9D9497EE4E45336B44C72956CB
:1003B0002730C6A7D5F256DFB43862CBA0B6E30F1C
:1003C00084062405656F7689B57741278266658244
:1003D000CCD5E620D52717C5F803237C5F64A51D7F
:1003E000C1D636CB4CD4DB66D78BB1997E6F4C36F9
:1003F0004006D6EBD7A2E4F495515A5496D553440F
:10040000D78CE0B94068D218E9DD9A239248EE7F94
:1004100043AFEA7738848C0A72AF69F8DDF1248340
:10042000A3F84ABFF59413DBBBD8B4B3A0FB455087
:10043000603059123171A2D313E7FAE7CE0F63157A
:100440000B6B94BB378326059DFB4692FC0A15D1A6
:100450000D7392D68C1B8CB8558ACEBDFE8EFCEDEA
:100460000912839182513123FBB40C76AD7CD9B44F
:100470004BB26714099C7F0C18BA3BD68E142AE441
:100480001B529F2B7DE1FB6A3302FAAC5AF23E8885
:100490007EAED1F378E805D1E3DC21F6E19ABD1711
:1004A0000ED9469B8803EAF666BE0E1B504996405D
:1004B00097F1F1E480A66EE87734BF294044C2FF8B
:1004C0004E98D39CA3322B76510409E7A9D1A632CA
:1004D000B12353E247ABD6F5695C3E5FFAAE4520E7
:1004E000E5D244FF39326DFD27575CFDF0DEC1B522
:1004F00099E5F51C770175C56D5892F2B247000178
:1005000026967A30FFB7F0EF77C18A5DDCC0D1293B
:10051000301E77387A94F1B87A7EEFA4D1AC314AA4
:10052000F25D643DB2E2F00899FC70EE24A77EEE25
:100530001E20697D44BF8742DF883B0CDA42C90434
:10054000F94550FC838F116A72BC9995F0AC3DA7B8
:100550003BCD1CE2887937115F3989950A16847A78
:10056000F68AA428E4ED83803BB123A50310F4664A
:10057000EABB0C0FC5EC6C69C5D324ABD42AB79980
:10058000887608A0A8957CD8386DCD5902514BF1DA
:10059000B52B50E3B6BDD072CF9EFD6EBB44C824D0
:1005A0008A77188A1306EF977DFA81F031E6FA7799
:1005B000ED3106315B548A9F3068DBE240F84E73C0
:1005C000FAAB748B105813DCD2E678D1322E8A9FA6
:1005D0002C58064827C5A95E81478946219103709A
:1005E000A43E889CDA330ACEBC8B8ECF9FD3718019
:1005F00043CF6BA95183763082C56A853911501A71
:1006000082DC1E1CD57DA9719933471997B35AB165
:10061000DFEDA4F2E62684A2289A9EDFA66AF4D62D
:10062000FC2E5B9D1A2A2768FBC183214B90E03684
:10063000DD5B314255A013F7D089537199570929D1
:10064000C5F321F8372F40F3D4AF16083602FC77F4
:10065000C58B049056B9C9679A99E800D386FF976D
:100660002D08E9B7B391BCDF45C6ED0F8C4C1EE6F3
:100670005B6E3830E4AAE395DEB9E49AF5B2559A98
:10068000879BF66AB2F2779A31F47A31D11D04C0B1
:100690007C32A29E9AF562F8278DBF51FFD3DF64AA
:1006A000373F2A6F763A7D77069E777F5EEB325131
:1006B000F916669A09F3B008A470964630FFDA4F2F
:1006C000E91BED8DF8741F3192B3731736DB91304F
:1006D000D688556B3477877AE7EE06C61C8C190CE2
:1006E0004846235E9C075CBFB47ED64F749CE2C52F
:1006F000508BC58B159060625729D01343A1808819
:10070000910044C74D1986CC2F2A755AFCEB972AC5
:1007100070E378D891B04F9907A395EA2421D5DEEC
:10072000512093270A3073A8FF8A97E9A76A8E0D94
:10073000E8F0DFECEAB46C1D392A622D3D5A8B6576
:10074000F890052E7E912C78EF8E7AC12FAC78EE42
:10075000AF2845064C26AF3BA2DBA39306B53CA5CC
:10076000D8EE8FAF25CC3F856848A962CC978F7FA4
:100770002AEAE0150AAD6207BD45F841D836CB4CF0
:10078000DB6EE63AE7DA15E9291E1210A0142C0EEA
:100790003DF4BF394192750B257BA3CE399C15647E
:1007A000C8FA3DEF7327FE262ECEDA6EFD718EDD80
:1007B000FE76EEDC125C02C53A4E4E4FBFCA4015C3
:1007C000C76E8D41F110E04F7E977F1CAE478E6B58
:1007D000B12531B073C71B9779F980D366223007F2
:1007E000741EE4D08021D6EE6B6C4FBFF5B7D909EB
:1007F000872FA914BE27D9725001D41373A6A7510D
:10080000027525E1B345347DA88EEBF31649CB4F35
:100810008CA1B9368539755D0800AEEBF6EAD713C1
:100820003A215A5F3084522695C914F257556BB15C
:1008300010C2E1BD3B51C0B7554C711226C70DF92E
:1008400051A43802057FB8F1724BBF718914F37758
:1008500038D97124F30011A1D8D46927083735C9D4
:10086000119D901C0EE71CFF2D1EE892E1181095BB
:100870007CE080F4964321F975216438DD9F1E9554
:1008800016DA561D4F9A53B2E2E418CB6B1A65EB99
:1008900056C63BE5FED8263F3A84597266A2F375E8
:1008A000FFFB60B322AD3F2D6BF9EBEA057CD88FDF
:1008B0006D2C989E2B93F15E46F08749297368D77B
:1008C0007FF9F0E57DDB1D7519F3C4589B1788A8E7
:1008D00092E0BEBD8B1D8D9F5676ADAF29E2D9D576
:1008E00052F6B55635573AC8E156431994D3049B8E
:1008F0006D35D80B5F4D198EECFA64910A72202B7E
:10090000BC1A4AFE8BFDBBED1B23EAAD7282A12906
:100910009971BDF095C103DD7BC2B23C2854D36808
:10092000A472C86696E0D1D87FF8D1262BF7ADBA6D
:1009300055CA15B932C3E588978E5CFB92258BBFEB
:10094000A245557AA76F8B575BCF0ECB1DFB20823C
:1009500077A88CCC16CE1DFADECC0B62FECCE1B7AC
:10096000F0C381647340A0C24D8911753355338D36
:10097000E84AFDEA6E300BD7312CDE47E3BFF8556D
:1009800042E27F59E517EF99346991B1238E2087B0
:100990002DA8FED58AF3843AF037E4090054EE67B7
:1009A0004993E48170E3904DEFFE41B7997BC18399
:1009B000BA62126F7DDE6BAFDA16F95551EEA60CF6
:1009C0002B02A3FD8DFB3017E46FDF3671C4CA879D
:1009D0002548B047ECEAB4BFA54D9B9F0293C4E302
:1009E000E4E8422D6881150AEB845BD6A874FB7D90
:1009F0001DCB2CDA462A7662CEBC5C9E8BE7CFBE3E
:100A000078F57CEBB33A9CAA6FCC72D159F21123E2
:100A1000D63F48D1B7CEB0BFCBEA80DE57D45E9781
:100A20002F75D1508E802C6679BF724BBD8A816C38
:100A3000D3E101DCD21526C536DA2C1AC02794ED95
:100A4000B79B850B5E8097C5EC4FEC885D500735F2
:100A500047DC0B3B3DDD60AFA85D813824255D5C44
:100A600015D1DEB3ABEC0569EF83ED5754B8646480
:100A700011163269DA9F2D7F36BB445A34E87FBFA6
:100A800003EB007F59682279CF736C2C29A7A15FF3
:100A900038A11DF02053E01A6314587110AA080CF5
:100AA0003E161A6022827FBAA443A0D0AC1BD56B3D
:100AB00064B51493319E5350D05766EE5A4FFB03E2
:100AC0002A695876F183F74EBA8C4206605D6DCE86
:100AD0006088AEA4C3F103A54B98A1FF67E1ACA267
:100AE000B862D76FA031B4D277AF211006C69AFF93
:100AF0001D09170E5FF1AA54344B458A8763A6DCA3
:100B0000F9243067C6B2D6613369EE50615728E7E1
:100B10007EEEEC3A5A734EA88DE418EAEC4164C8B4
:100B2000E2E866B62DB6FB6A6C16B3DD4643B973D0
:100B3000006A71ED4E9D251AC33C4A951599358181
:100B40001402D6989BECD8233B8429AF0C9983A63A
:100B50009A344FFAE8D03C4BD0FBB668B89E8FCDA4
:100B6000F7602D7A22E57DAB651B95A7A87FB67748
:100B7000477B5F8B1272D0D491EFDE19503CA78B6C
:100B8000C4A9B323CB76E681F0C1048FA3B8545B2C
:100B900097AC19FF3F55272FE01D429B57FC4B4E4A
:100BA0000FCE98A9435703BDE7C894DF6E36733262
:100BB000B4EF2E857A6EFC6C188275359007F3E4DD
:100BC0009F3EDC68F3B5F31980920699A2E86FFFA7
:100BD0002E7FAE42A45FFBD40E812BC304FF2BB348
:100BE000744E365B9C1500C6472BE88B3DF19C0389
:100BF0009A587F9B9CBF854979352E567B41143985
:100C0000478326AA078998111B86E7737AD87D78CF
:100C10006153E979F5368D449284F91350583BA419
:100C20006A3665498E3C0EF16FD284C47E8E3F39A0
:100C3000AE7C84F163378E3CCC3E448145F14BB9A8
:100C4000ED6B365DBB20601A0FA3AA55773AA9AEAB
:100C5000374DBAB8866BBC0850F6CCA4BD1D4072A7
:100C6000A586FAE210AE3D584B97F34374A99EEB6C
:100C700021B701A4869397EE2F4F3B86A1416F4188
:100C80002690785C7F30384B3FAAECED5C6F0EAD60
:100C90004387FD9335E601EF412690999EFB195B52
:100CA000ADD2918AE046AF65FA4F84C1A12DCF4500
:100CB0008BD38550557CF96788D44EE9D76B615446
:100CC000A1A4A6A2C2BF309C409F5FD7692B2482FB
:100CD0005ED9D6A712541AF7559F7650A99584E687
:100CE0006B6DB59654D6CDB3A19B46A7944DC494D5
:100CF000B498E3E1E234D533160754CDB77753DB2C
:100D00004F4D469DE9D49C8A36B6B838266C0EFF06
:100D10009C1B438B80CCB93DDAC7F18AF26DB8D702
:100D2000742F7E1EB7D34AB4ACFC79486CBC96B61F
:100D30009446572DB0A3FC1EB95260852D41D04377
:100D4000011E1CD57DFCF3960DC7CB2A299A93DD95
:100D5000882D375DAAFB4968A09C50867F6856574E
:100D6000F9791839D4E001843361CAA5D2D6E4C92F
:100D70008A4A23444EBCF0DC24A1A0C4E2073C1004
:100D8000C4B5254B6563F480E7CF61B171822187DB
:100D90002CF59100320CECA9B59A7485E3368F7668
:100DA0004F9C6DCEBCAD0A4BED7604CBC3B9339EE0
:100DB000019396697DC5A245799B045C8409ED8801
:100DC00043C7AB931426A140B5CE4EBF2A42853E01
:100DD0002C3B54E8121F0E9759B22789FAF2DF8E86
:100DE0006859DC06BCB6850D0622ECB1CBE504E6FD
:100DF0003DB3B04173083F3C588663EB50EE1D2C69
:100E00003774A9D318A3476E9354AD0A5DB82A5519
:100E10005D78F6EEBE8E3C7669B940C234EC2AB9F4
:100E2000ED7E20E48D0038C7E68F44A886CEEB2AFD
:100E3000E990F14CDF32FB731B6D921E95FEB4DB23
:100E400065DF4D23548948BF4A2E70D6D762B4332C
:100E500029B13A334C236DA676A5216348E6905D0F
:100E6000ED90950B7A84BEB80D5E630C62264C142F
:100E70005AB3AC23A474A76F333005600142A02895
:100E8000B7EE1938F164808243E141271F1F905467
:100E90007AD5232ED13DCB28BA587FDC7C9124E92A
:100EA0002851836EC5562142EDA05622A140806B89
:100EB000A8F794CA136B0C39D9FDE9F36FA69EFC11
:100EC000708AB3BC593C1E1D6CF97CAFF9887195D2
:100ED000EB5700BD9F8C4FE12483C522EAFDD30C64
:100EE000E217187C6A4CDE77B4539B4C81CD2360AB
:100EF000AA0E25739C02793230DF74DF7519F4A5D0
:100F0000145CF77AA8A591847C6003063BCD50B6AB
:100F1000279CFEB1DDCCD3B05924B2CAE21C812299
:100F20009D078F8EB9BE4EFAFC3965BABF9D123748
:100F30005E977EF389F55DF5E3098C62B5209D0C23
:100F4000538A681BD28F75175DD4E5DA7562191460
:100F50006A262DEBF8AF37F06CA455B1BCE233C074
:100F60009ACAB011494F689B3B6B3CCC13F6C785BE
:100F7000616842AEBBDDCD4516291DEADBC803948E
:100F80003CEE4F8211C3EC28BD970599DED7BB5EBE
:100F9000221FD4EB64D992D985B76A056AE424414B
:100FA000F1CDF0D83FF89E0ECD0B7A706B5A750AD2
:100FB0006A3388EC17750870102F24CFC4E94200FB
:100FC0006194CA1F3A7606FAD24881F077600345E9
:100FD000D961F4A46F3DD930C3046B542AB7EC3BFC
:100FE000F44BF5685226CEFF5D1991A0A3A5A9B1D7
:100FF000E023C40A774DF95120A3A5A9B1C100820D
:10100000868E7F5D1991A0A3C4EB540B75685207BF
:101010008C9A978D79706246EF5C1B95897141E1DE
:1010200021A1A1A1C002674C1AB6CFFD785324AB11
:10103000B5C9F16023A5C812876D581385889287BA
:101040006D5832C70C9A97ACDA36EE5E3EDF1DB8AB
:10105000F2662FBDF87247ED5813858892878C7B16
:10106000550990A2C6EF3DF85324ABD42AB7EC5AE9
:1010700036EE5E3EDF3CFA764FFD5930E246EF3DFC
:10108000F853056931C10082868E7F5D19B0E22771
:10109000CCFB744B148B948B756833C50892878C8A
:1010A0009AB6CF1CBAD70D98B2E62FDC1B95897182
:1010B0006023C40A968F9CBAF66E3FFC5B15A8D2DB
:1010C00026AFBDF872662FDC1BB4CB148B94AAB785
:1010D000CDF951018082866F3DD930E227CCFB7477
:1010E0004B14AAB7CDF97043046B35C9F16023A541
:1010F000C8F3450892876D5832E62FBDF872664EE8
:101100001EBEFE7E7E7E5F1D9991A0A3C40A774D10
:101110001893A4ABD40B754910A2C6EF3DF8532425
:10112000ABB5E833E44A16AEDE1FBCDB15A8B3C589
:10113000087345E931C1E121A1A1A1C002866F5C1C
:101140003AD70D9893A4CA16AEDE1F9D99B0E24619
:10115000EF3DF872470C9AB6CFFD5911A0A3A5C870
:10116000F3450892876D39F043048A96AEDE3EDF80
:101170001D9991A0C2066F3DF872470C9A978D9801
:101180009385887345E931E023A5A9D003848A9625
:10119000AEDE1FBCDB15A8D226CEFF5D1991818083
:1011A00082672DD813A4ABD40B94AAB7CDF95120E4
:1011B000A3A5C8F345E95022C6EF5C3AD70D989332
:1011C000858873644AF74DF95120A3C40A96AEDEB0
:1011D0003EFE7E7E7E5F3CFA764FFD7872662FBDC6
:1011E000D930C3E54812878C7B5528D2078C9A9753
:1011F000ACDA178D795120A3C4EB540B948B94AACD
:10120000D62EBFFC5B15A8D226AFDC1BB4EA37ECA8
:101210003BF46A37CD1893856931C1E140E325C8B5
:1012200012878C9AB6CFFD5911A0C2068E7F5D3809
:10123000F2470C7B746A37EC5A36EE3FFC7A764FF5
:101240001C9B95897141006344EB542AD60F9CBACC
:10125000D70D9893856931C10082868E9EBEDF3C92
:10126000FA572CDA36EE3FFC5B1589714100828615
:101270008E7F5D38F247ED5813A4CAF74DF951013E
:10128000806344EB542AD62EBFDD1991A0A3A5A9F3
:10129000B1E042068E7F5D1991A0A3C40A968F7DAE
:1012A0007872470C7B746A562EDE1FBCFA570D7994
:1012B00051016121A1C0E325A9B1C1E14002674C00
:1012C0001A978D9893A4ABD42AD60F9C9BB4CB14B9
:1012D000AAB7CDF95120A3C4EB35C9F16042068EFF
:1012E0007F7C7A766E3FFC7A766E5E3EFE7E5F3C59
:1012F000DB15897141E121C0E344EB542AB7CDF9F4
:10130000706227ADD832C70C7B744B14AAB7EC3B84
:10131000D528D2076D39D120C2E74C1A978D98B2E3
:10132000C70C5928F39B05010902A1018502090197
:10133000A100050919012908150025019508750165
:1013400081020501093009311581257F9502750853
:10135000810609381581257F950175088106050CE0
:101360000A38021581257F950175088106C0C005E0
:10137000010980A101850319012AB700150126B7CB
:1013800000950175108100C0050C0901A1018504BB
:1013900019012AA002150126A002950175108100ED
:1013A000C005010906A101050719E029E715002577
:1013B00001950875018102950175088101050719DC
:1013C0000029FF150026FF00950675088100050815
:1013D0001901290515002501950575019102950151
:1013E00075039101C009023B00020100A0FA090443
:1013F0000000010301010009211101000122440044
:101400000705810308000109040100010300000031
:10141000092111010001227B000705820320000140
:101420001201000200000008EDFE606001000102F0
:1014300000011A036D0069006D0070006100720008
:1014400061007400200034007800360000001203B0
:101450006D0069006D007000610072006100740031
:101460000000040309040000000000000000000068
:10147000000000000000000000000000000000006C
:10148000000000000000000000007E0F00D4FFFFFD
:10149000FFC70000007800000000000000002A2BB9
:1014A0002800000000000000000000000000000014
:1014B0000029000000002C1E34202122243426277D
:1014C000252E362D3738271E1F202122232425269E
:1014D0003333362E37381F0405060708090A0B0C6C
:1014E0000D0E0F101112131415161718191A1B1CB4
:1014F0001D2F3130232D350405060708090A0B0C72
:101500000D0E0F101112131415161718191A1B1C93
:101510001D2F3130354C11241FBECFEFDAE0DEBF76
:10152000CDBF04B603FE18C0809120039091210323
:10153000A0912203B09123038730904BA740B04B7A
:1015400059F410922003109221031092220310925A
:101550002303E0E0F8E3099511E0A0E0B1E0E6E85C
:10156000F2E602C005900D92A03BB107D9F723E047
:10157000A0EBB1E001C01D92A032B207E1F70E94DA
:101580005B180C9441310C940000813021F4FB0174
:101590008081809311030895A6E0B0E0E2EDFAE0C7
:1015A0000C947D3049835A8349815A81992361F093
:1015B000222351F0CA010E948D1B182F682F8981A8
:1015C0009A810E94AB1D04C0CA010E94781D182F89
:1015D00069817A81812F0E9475122696E3E00C942E
:1015E00099300E940B1E2FEF84E39CE02150804035
:1015F0009040E1F700C000009CE088E10FB6F8944D
:10160000A895809360000FBE90936000FFCF9091EB
:10161000FE0180910802892B0E942612982F927257
:1016200081E009F480E00895909111039295937000
:10163000811102C08FEF01C081E0890F8370982F64
:101640009295907F809111038F7C892B8093110359
:101650000E9483254091110350E060E070E08FE02C
:1016600090E00E94DB300895909111039F708111EA
:1016700002C08FEF01C081E0890F982F9F70809189
:101680001103807F892B809311030E948325409151
:10169000110350E060E070E08FE090E00E94DB30EA
:1016A0000895ABE1B0E0E7E5FBE00C947C304E8BB5
:1016B0005F8B688F798F8A8F9B8F192F9111109272
:1016C000FF01DE011F9687E0FD0111928A95E9F77F
:1016D00086E0FE01769601900D928A95E1F70A8DDB
:1016E000002341F021E04F85588969897A89C80132
:1016F0000E94CC0A0B8B1C8B87E0FE013F96DE011B
:10170000189601900D928A95E1F7CE0108960E94F5
:10171000F11B81112CC087E0FE013896DE01119685
:1017200001900D928A95E1F76C85662301F1209175
:10173000C30130E0C9010196877099274091FC01EF
:1017400050E08417950761F16D8397E0929FD00177
:10175000939FB00D1124AC53BE4FFE013196019002
:101760000D929A95E1F78093C3010E94B21417E09D
:101770008091FC019091C3018917F9F0189FC00175
:1017800011248C539E4F0E94F11B8823B1F080914D
:10179000FC0190E00196877099278093FC01E8CFC7
:1017A0000E940B1E1092C3011092FC01ECEBF1E0C1
:1017B00087E0DF011D928A95E9F76B96E4E00C94CF
:1017C00098300E940B1E2FEF84E39CE02150804054
:1017D0009040E1F700C0000081E08093E00080E2EB
:1017E0008093D8001092C9008FE19EE40197F1F731
:1017F00000C0000087E090EBDC0180932003909311
:101800002103A0932203B09323039CE088E10FB649
:10181000F894A895809360000FBE90936000FFCF6E
:10182000A0E0B0E0E6E1FCE00C947730FC018481BC
:10183000882309F49EC47F0121E0408151816281A7
:10184000738195810E94CC0AEC01FC01E954FE47AA
:10185000E730F105B0F5EA5AFF4FD70115968C91A4
:101860000C942531882321F080E991E00E94A22583
:10187000F7018581882329F18CE791E00E94A22558
:1018800020C0882309F4ACC085E791E005C0882317
:1018900009F4A6C081E791E00E94A225A1C0882397
:1018A00009F49EC082E691E0F7CF882309F498C03E
:1018B00089E591E0F1CF882309F492C088E491E0B2
:1018C000EBCFFE01E054FE47E830F10508F051C0CF
:1018D000E35AFF4FD70115968C910C94253188233C
:1018E00009F47EC00E94070B91E0892705C0882378
:1018F00009F476C00E94070B0E94340B71C0882344
:1019000009F46EC00E94070B91E0892705C0882367
:1019100009F466C00E94070B0E94140B61C09091ED
:10192000110380FB97F911C0882309F459C08091F5
:10193000110387FB222720F991E0922790FB87F97A
:1019400013C09091110380FB96F9909311030EC080
:10195000882309F445C08091110386FB222720F9D2
:1019600091E0922790FB86F9809311030E948325D2
:1019700037C0FE01E851FC47E730F10588F5EB5927
:10198000FF4F0C94253106E221EE41EE6AE17CE73F
:1019900023C007E225EE45EE6BE17CE71DC006E2C1
:1019A00021EE40EE68E17CE717C007E225EE44EE49
:1019B00069E17CE711C006E221EE42EE6CE17CE7D2
:1019C0000BC007E225EE46EE6DE17CE705C008E2BC
:1019D00021E045EE6EE17CE7C7010E94E024FCC0F7
:1019E000F7018581882309F43AC11092F602CE01ED
:1019F0009057839708F0DBC084E090E00E94B330FA
:101A00009093940280939302FE01E150F047E232FA
:101A1000F10520F4E459FF4F0C9425318091930295
:101A20008160ACC0809194028860B4C080919302C0
:101A30008260A4C08091930220C08091930288604C
:101A40009DC0809194021EC0809194028260A2C0C9
:101A500080919302806192C08091930280628EC0D7
:101A60008091930280648AC00E940B1E8091930231
:101A7000806884C080919302886084607FC0809178
:101A800094028260816086C0809193028E7F76C0CE
:101A900080919402877F7EC0809193028D7F6EC07B
:101AA0008091930220C080919302877F67C08091CC
:101AB00094021EC0809194028D7F6CC0809193022D
:101AC0008F7E5CC0809193028F7D58C0809193027D
:101AD0008F7B54C00E940B1E809193028F774EC063
:101AE00080919302877F8B7F49C0809194028D7F84
:101AF0008E7F50C08091930282FB222720F991E0D3
:101B0000922790FB82F990FB83F938C08091940270
:101B1000982F909591708E7F892B90FB81F93AC018
:101B20008091930286FB222720F991E0922790FB77
:101B300086F924C00E940B1E8091930287FB222706
:101B400020F991E0922790FB87F918C061E001C06D
:101B500060E08EE090E00E94C9301EC08091930248
:101B600084FB222720F991E0922790FB84F906C09C
:101B700080919302982F909590FB80F98093930227
:101B80000BC08091940283FB222720F991E09227D9
:101B900090FB83F980939402609193027091940278
:101BA00084E090E00E94E7300E940B1E15C0C63111
:101BB000BCE7DB0721F5809108028A7A91E009F4FD
:101BC00090E09093B2018111BEC269E284EB91E092
:101BD0000E94262D0E942A148091FD01877009F42D
:101BE000C8C2D70115968C91882309F4C2C280918E
:101BF000940282FFBEC282E00E946414BAC2C33063
:101C0000FCE7DF07C1F040F4C1158CE7D80789F085
:101C1000C130DC47B1F027C0CB35ACE7DA07D9F0EB
:101C2000CC35BCE7DB0779F0CA35DC47E1F481E06D
:101C300013C00E94E10B6FEF7FEF80E090E00E9405
:101C4000E7300E94F10A8091940282FB882780F994
:101C500091E0892701C080E00E947B1404C0C63156
:101C6000DC4709F472C2D70115968C911597CD9176
:101C7000DC91882349F0CE010E948D1B182F682F1C
:101C8000CE010E94AB1D04C0CE010E94781D182F0A
:101C9000BE01812F0E9475120E949212D82FC92F67
:101CA000C82EF7011581068102950F708091FD0104
:101CB000877001F11123F1F0892F807F803469F062
:101CC00080E28D0F8830B0F0892F807E803229F439
:101CD000F1E0FD1778F4002369F08091940282FF0F
:101CE00009C082E00E9464148091FD018770DD24A8
:101CF000D3948111D12CBC2EB2948FE0B8228B2DBD
:101D000090E08C30910508F0F5C1FC01E257FF4FDF
:101D10000C9425318C2F807FCF70882311F0C295D1
:101D2000C07F1123B9F0CC2309F4D2C180E28D0F1A
:101D3000883010F0C11006C090910802C92BC093E2
:101D4000080205C09091FF01C92BC093FF010E94BA
:101D50002A14BEC18D2F0E944F1FCC2309F4CAC183
:101D6000D05ED83080F1CC2071F1C0959091FF0108
:101D7000C923C093FF012AC08C2F807FCF7080328F
:101D800011F0C295C07FCC2029F021E0C21609F4E1
:101D90004CC055C08091940282FD1BC0112369F094
:101DA000CC2339F090910802C92BC09308020E94FD
:101DB0002A1480E00E948B1F9DC180E00E944F1F6B
:101DC000CC2309F497C18C2F0E9423140E942A145B
:101DD00091C1112381F00023B1F1013009F08AC1D2
:101DE0009091FE018C2F8923C81709F483C1C92B58
:101DF000C093FE017FC101117DC18C2F0E94321E54
:101E00008091FE019C2F982329F09C2F9095892387
:101E10008093FE018091B3019C2F982309F46AC13D
:101E2000C0958C238093B30165C1112321F0063046
:101E300008F060C108C0053008F05CC115C011236E
:101E400031F0011145C18C2F0E94391E53C100236E
:101E500059F0D93309F04BC18FEF97EEA3E08150D1
:101E60009040A040E1F741C18C2F0E94321E42C138
:101E70008C2F86958695837019F0813061F03AC178
:101E8000112321F08D2F9C2F937002C080E090E0F1
:101E90000E94652D35C1112321F08D2F9C2F937049
:101EA00002C080E090E00E94402D2AC1612F8D2F5A
:101EB0000E94431E25C18C2F837009F041C011116F
:101EC0001DC12D2F229526952770220F220F8D2FB1
:101ED0008F7090E0022E02C0880F991F0A94E2F7DB
:101EE000D4FF0BC04FE050E002C0440F551F2A95AD
:101EF000E2F79A012095309502C020E030E0C695C7
:101F0000C695C370C23099F068F4409109025091AF
:101F10000A02C13029F0822B932B8423952304C01D
:101F2000842B952B822B932B0E94061EE7C0822BBD
:101F3000932B2091090230910A0282279327F4CF34
:101F4000112319F08C2F817001C08695882309F424
:101F5000D5C02D2F229526952770220F220F8D2F69
:101F60008F7090E0022E02C0880F991F0A94E2F74A
:101F7000D4FF0BC04FE050E002C0440F551F2A951C
:101F8000E2F79A012095309502C020E030E0C69536
:101F9000C695C370C23079F0B8F440919102509167
:101FA0009202C13029F0822B932B842395230EC0FB
:101FB000842B952B09C0822B932B20919102309179
:101FC00092028227932702C0822B932B0E94DF1D4F
:101FD00095C0CF70112339F08C2F0E94F61D8D2FE4
:101FE0000E94391E8BC08D2F0E94321E8C2F0E94A2
:101FF000E41D84C08D2FB2EFCB1689F1BC1538F0EB
:10200000E0EFCE1659F0F1EFCF1621F15DC023EFCE
:10201000C21661F194EFC916C9F056C0112391F0B0
:10202000053008F067C0CF7181E090E002C0880FF2
:10203000991FCA95E2F7209191023091920282276E
:10204000932721C0063008F055C0EDCF809194024F
:1020500082FD1CC0112329F08C2F8F7129C0112300
:10206000D9F38C2F8F710E94E41D44C0112349F0D5
:10207000CF7181E090E002C0880F991FCA95E2F706
:1020800002C080E090E00E94DF1D34C0112399F06F
:10209000CF718C2F0E94F61D8091940282FF07C0A1
:1020A000A8E0CA9FC001112483608093FD018C2F9A
:1020B0000E94F61D1FC081E00E9464140230D0F01F
:1020C00082E00E94641416C0112321F0002321F243
:1020D0008D2F70CE002329F2893349F4BFEFE7EE4C
:1020E000F3E0B150E040F040E1F700C000008D2F78
:1020F0000E944F1F88EF8B0D843010F40E94982DA2
:10210000DD20B1F08091FD0180FD12C0D701159650
:102110001C928695869586950E94F61DC7010E94A1
:10212000100C8091FD018695869586950E94E41D90
:1021300020E0F70140815181628173818481958122
:102140000E94CC0A16C065E341CD8091B201811195
:102150000EC089E2E4EBF1E02AEB31E092818913D1
:1021600001C0128231962E173F07C1F733CD85E3A8
:10217000F1CFCDB7DEB7E9E00C94933080E008955D
:102180008238910569F1B0F48133910509F475C085
:1021900048F48932910509F467C08A32910509F43F
:1021A00071C008958533910509F459C089339105AB
:1021B000B9F00895833E910589F138F4803E910588
:1021C000D1F0823E910529F10895863E9105C9F12D
:1021D000873E9105D9F1843E910509F06CC027C076
:1021E0002091930220FD57C021FD55C020919402FB
:1021F00023FD5BC008958091930280FD48C08091CB
:10220000940280FF48C08091930284FD46C083EE13
:1022100051C08091930282FF3CC0F5CF8091930220
:1022200082FD37C08091940280FD35C0ECCF809153
:10223000940281FF36C08091930284FD2EC087EE08
:1022400039C08091930283FF2AC0F5CF8091930219
:1022500083FD25C08091940281FD23C0ECCF809145
:10226000930285FD22C01FC08091930285FD1BC093
:102270008091940283FF19C00AC08091930286FD69
:1022800016C017C08091930286FD13C010C089E369
:1022900011C082EE0FC080EE0DC080E00BC086EE54
:1022A00009C084EE07C085E305C089E203C08AE265
:1022B00001C081E390E00895A0E0B0E0E2E6F1E142
:1022C0000C9479307901C82F880FDD0B4115510529
:1022D000A9F0FE0193E0EE0FFF1F9A95E1F7E55F8D
:1022E000FE4F81819281855E9D4F208130E04217B3
:1022F000530708F49A01A9010E943831CE010E94C7
:10230000EA2ED82E8823D1F001151105B9F083E00B
:10231000CC0FDD1F8A95E1F7FE01E55FFE4F43819B
:1023200050E00417150708F4A801C55FDE4F6C8163
:102330007D81655E7D4FC7010E9438318D2DCDB7FF
:10234000DEB7E7E00C949530A1E0B0E0EAEAF1E115
:102350000C947330762E4A015901680101E010E0B7
:102360009E012F5F3F4F40E050E060E070E00E9430
:102370005C11182F882379F1F401608171818281C9
:1023800093810E948C2C643671058105910538F487
:10239000B701C6010E94292299818917E1F08701BE
:1023A000950140E050E060E070E0872D0E945C11F4
:1023B000182FB701C6010E94292291E02981281314
:1023C00090E0192369F00E94B72CF40160837183B7
:1023D0008283938305C0A701B601C5010E943831ED
:1023E000812F2196EDE00C948F30F894E82FE29540
:1023F000EF70F0E031A1282F2F7081E090E001C054
:10240000880F2A95EAF7982F9095932391A392A18C
:10241000892B82A3789408950F931F9380910F03C3
:10242000882319F00E94B72C0EC00E94B72C00918F
:102430008302109184022091850230918602600F00
:10244000711F821F931F1F910F9108959091930206
:1024500092FF10C041E0282F2471243009F040E0A1
:1024600031E0282F2871283009F030E0431711F0AF
:102470002CE0822793FF10C041E0282F24712431E3
:1024800009F040E031E0282F2871283109F030E0D0
:10249000431711F02CE082273091940230FF10C0D6
:1024A00051E0282F2171213009F050E041E0282F20
:1024B0002871283009F040E0541711F029E08227F4
:1024C00031FF10C041E0282F2171213109F040E097
:1024D00031E0282F2871283109F030E0431711F03E
:1024E00029E0822794FD877E08957830B0F4663025
:1024F000A0F48430A0F490E3899FF001112486E0D9
:10250000789FE00DF11D1124E60FF11DEE0FFF1F66
:10251000E855FE4F85919491089580E001C081E0D7
:1025200090E008951F93CF93DF930E94C010EC01B9
:10253000C11580E5D807E8F5C11590E4D90708F082
:10254000A8C0C03ED10530F5CD3CD10508F094C0FF
:10255000C83AD10578F4C53AD10508F083C0C13036
:10256000D10509F47CC008F4F2C0C430D10508F0EC
:10257000F1C0EDC0C33CD10508F0E9C0C85AD0E0B5
:10258000CC0FDD1FC259DE4F0990D881C02DCE017E
:102590009464E1C0C11580E2D80708F0CBC0C11532
:1025A00091E0D90708F06BC0C83ED10508F4D2C04D
:1025B000CEC0C03682E5D80728F5C03492E5D907E9
:1025C00008F079C0C03282E5D80708F06CC0C115A8
:1025D00092E5D90708F481C04C2F4695469580E2D4
:1025E000489FA0011124C37021E030E0C90102C05E
:1025F000880F991FCA95E2F7EA01C82BD92BCE01A3
:102600009D68A9C0C03A82E5D807B8F48C2F8F71B5
:10261000C03892E5D90708F07BC08695869590E290
:10262000899F90011124C37081E090E002C0880F5F
:10263000991FCA95E2F79A6868C0C03C82E5D8073E
:1026400008F46DC0C03E92E5D90708F080C0CF7194
:10265000DD27DC2FCC27CE01806F906A7CC081E023
:1026600090E079C0C55AD0E0C559DE4F8881C82FA7
:10267000D0E0CE0190646FC0CE0190656CC08D2F0C
:102680000E942612182FCE0199270E94C0101F7198
:102690005CC0CE0199270E94C010CC27DF70D06AA1
:1026A0008C2B9D2B58C0CF71D0E0DC2FCC27CE01D6
:1026B000816F906A50C08C2F8F718695869590E2BD
:1026C000899F90011124C37081E090E002C0880FBF
:1026D000991FCA95E2F79C6818C08C2F8F710E94D1
:1026E000261295E0D695C7959A95E1F7CF70D0E080
:1026F000DC2FCC27282F30E084FF05C084E0220F98
:10270000331F8A95E1F7D069CE01822B932B23C02A
:1027100090E0D82FCC27CE01846F906A1CC08C2FFC
:102720008F710E9426128F7190E0D82FCC27CE0196
:10273000906211C08D2F8F710E942612182FCE012A
:1027400099270E94C0101F719062912B04C080E0F5
:1027500090E001C0CE01DF91CF911F910895A8E0D4
:10276000B0E0E5EBF3E10C947E3066EE7EEF80E0C6
:1027700090E00E94E73060E082E090E00E94C93083
:1027800081E090E090930A028093090261E083E087
:1027900090E00E94C93060E074E184E090E00E9423
:1027A000E73060E086E090E00E94C93060E087E0BA
:1027B00090E00E94C93040E050E0BA0188E090E02B
:1027C0000E94DB3060E084E290E00E94C93060E06B
:1027D00087E190E00E94C93060E08CE090E00E94C8
:1027E000C93060E08DE090E00E94C93019821A8201
:1027F0001B821C821D821E821F82188648E050E0C8
:1028000068E170E0CE0101960E94B93040E050E0EE
:10281000BA0180E290E00E94DB301092110340E0A8
:1028200050E0BA018FE090E00E94DB300E948325E7
:1028300040E050E0BA0183E190E00E94DB3028964E
:10284000E2E00C949A30809590910802892380935D
:1028500008020895909108028091FF01892B9091C0
:10286000FE01992379F0892BE6EBF1E027E090E077
:10287000215029F031913323D9F39F5FF9CF911182
:102880001092FE018093B40148E050E060E072E0F5
:1028900084EB91E00E942B31892BA9F088E0E4EBD6
:1028A000F1E0A0E0B2E001900D928A95E1F7E091AD
:1028B0001403F0911503309731F00280F381E02D7D
:1028C00084EB91E0099508959091FD01809589230D
:1028D0008093FD01282F277069F4981759F0909183
:1028E000940292FF07C08695869586950E94E41D06
:1028F0001092FD0108959091940292FB222720F9F5
:10290000281779F080FB92F99093940260919302DA
:102910007091940284E090E00E94E73082E00E948F
:10292000641408952091FC019091C30157E0291788
:10293000A9F030E0529FF001539FF00D1124EC53A9
:10294000FE4F7181761306C07081781303C07581C4
:10295000741306C02F5F3F4F2770E9CF80E00895C2
:1029600081E008958091FC019091C301891719F0CD
:102970008F5F8770FBCF0895CF93DF938091C20163
:1029800082958F7009F04EC08091C101882309F4AF
:1029900049C08091FC014091C3015091BD016091FB
:1029A000BC01C091BE01D091BF0177E08417D1F185
:1029B00090E0789FF001799FF00D1124DF01AC5376
:1029C000BE4F14962C911497222349F111962C9105
:1029D0001197251324C02C91261321C015962C91F4
:1029E000159721111CC012962D913C9113972C1B09
:1029F0003D0B283C310598F48091C2018F708061B5
:102A00008093C201E653FE4F80818F708061808386
:102A10008CEB91E00E94100C0E94B21403C001964E
:102A20008770C4CFDF91CF9108954F925F927F92CC
:102A30008F929F92AF92BF92CF92DF92EF92FF92CE
:102A40000F931F93CF93DF93CDB7DEB767970FB682
:102A5000F894DEBF0FBECDBF7E012AE0E20EF11C6E
:102A600088E0D7011D928A95E9F706EA11E09CEA11
:102A7000C92E91E0D92E77247394AA24A394B12C63
:102A80004E01BEE08B0E911CF80180818F3F09F44E
:102A900047C0F894E82FE295EF70F0E021A18F7025
:102AA000A50102C0440F551F8A95E2F7CA01922F73
:102AB000982B91A392A18095892382A3789400C03A
:102AC0008CEA482E81E0582EF701472D4095D2011F
:102AD0008D912D018F3FA1F0282F22952F7030E08E
:102AE000D90190962C9130E08F70B90102C0759594
:102AF00067958A95E2F760FD03C08081872902C04F
:102B000080818423808331968E169F0601F7D80139
:102B10008C918F3F11F00E94F511B0EABA95F1F750
:102B2000770C0F5F1F4FC016D10609F0ADCF48E0FC
:102B300050E0B70187E892E00E942B31892B99F091
:102B400088E0F701A7E8B2E001900D928A95E1F7DD
:102B500081E080930F020E94C32C90930E02809319
:102B60000D02F12C27C080910F028823D1F3009130
:102B7000900280910D0290910E020E94A82C059760
:102B800080F310E00B561D4F44E050E067E872E020
:102B9000C8010E942B31892B09F436C184E0E7E893
:102BA000F2E0D80101900D928A95E1F7FF24F394A9
:102BB00010920F0280910F03E0919002882309F494
:102BC00077C019821A821B821C820E2F10E00B56CE
:102BD0001D4F8091A6028A3058F442EF57E1BE01A2
:102BE0006F5F7F4FC8010E942618882399F10AC0A1
:102BF00080911002909111020E94A82C843F914074
:102C000060F739C046E557E1BE016F5F7F4FC801ED
:102C10000E9426188823F1F046E957E1BE016F5F54
:102C20007F4FC8010E9426188823A1F01092A602A7
:102C300080918F0290E044E050E0BE016F5F7F4FD3
:102C40008B569D4F0E942B3121E020931A02892B35
:102C500001F5C2C08091A6028F3F19F08F5F80936B
:102C6000A6028091A6028A3018F30E94C32C90938A
:102C700011028093100280911A02882309F4ACC0DB
:102C8000FE01319684E0DF011D928A95E9F71092EA
:102C90001A02E0918F02F0E0EB56FD4F89819A8194
:102CA000AB81BC8180839183A283B38381E095C093
:102CB000F0E0EB56FD4F84E0ACE1B2E001900D9204
:102CC0008A95E1F764E070E08CE192E00E942922AD
:102CD00080931B028090200290902102A0902202FB
:102CE000B09023028091120290911302A0911402DD
:102CF000B091150288169906AA06BB06B1F080921B
:102D0000120290921302A0921402B09215020E9435
:102D1000B72C861A970AA80AB90A80928302909261
:102D20008402A0928502B0928602809110038111E4
:102D300053C0609116027091170280911802909111
:102D400019020E948C2C672B682B692B09F444C054
:102D50000E94B72C6093160270931702809318029A
:102D6000909319020E94FA209C0199E0E4E2F2E0BB
:102D7000DE01119601900D929A95E1F7888599856B
:102D8000009729F08217930711F00E943B20FE0163
:102D9000729686E0DF011D928A95E9F74A895B8980
:102DA0006C897D898E899F890E944F202A833B836D
:102DB0004C835D836E837F8366E070E0CE01029674
:102DC0000E942922898389E0FE013196A4E2B2E0C3
:102DD00001900D928A95E1F780E08F2967960FB6F2
:102DE000F894DEBF0FBECDBFDF91CF911F910F9141
:102DF000FF90EF90DF90CF90BF90AF909F908F901B
:102E00007F905F904F900895F12CD2CEA6E0B0E075
:102E1000ECE0F7E10C947C300E94C32C8C01809193
:102E20000B0290910C020817190781F019821A827F
:102E30000E94C32C682F49815A81792F80E090E04D
:102E40000E94510B10930C0200930B022696E4E0B3
:102E50000C949830EBE1F2E08489809343018589FA
:102E600080935601089563E070E08EE292E00E9444
:102E7000292290912D02891318C0E0912E02EB3087
:102E8000A4F488E0E802F0011124E55FFE4F06801B
:102E9000F781E02D309749F021E532E04091300292
:102EA00061E372E080912F0209950895A4E0B0E0FB
:102EB000ECE5F7E10C947C306091790270917A0234
:102EC00080917B0290917C020E948C2C643671056B
:102ED0008105910528F10E940C12DC01CB010296BC
:102EE000A11DB11D89839A83AB83BC8300E010E0F0
:102EF00020E030E044E050E0BE016F5F7F4F82E0B1
:102F00000E945C11182F882361F00E94B72C6093F7
:102F1000790270937A0280937B0290937C0201C0C5
:102F200011E0812F2496E4E00C949830ACE0B0E0FE
:102F3000ECE9F7E10C947930D0901003DD2009F42E
:102F400046C086E0E82EF12C05E212E09E01295FE2
:102F50003F4F4FE752E064E083E00E94A4118823D2
:102F600091F096E0FE013796DE01119601900D92E8
:102F70009A95E1F796E0FE013196AFECB2E0019050
:102F80000D929A95E1F7E090DF02F090E002E114F3
:102F9000F10401F120917D0230917E022E153F0552
:102FA000C9F0F0922C02E0922B0200E010E020E049
:102FB00030E042E050E06BE272E085E00E945C119C
:102FC000882351F0F0927E02E0927D0206C0DD245B
:102FD000D39403C0D82E01C0D12C8D2D2C96E7E0C0
:102FE0000C949530A4E0B0E0E8EFF7E10C94783071
:102FF0006B0184E0E82EF12C0CE112E09E012F5FC2
:103000003F4F45E752E061E080E00E94A411882331
:1030100061F049815A816B817C81409371025093A8
:103020007202609373027093740240917102509126
:1030300072026091730270917402F60140835183B1
:10304000628373832496E8E00C949430A0E0B0E0AF
:10305000ECE2F8E10C9476307C015B016A0180912E
:10306000A6028A3018F001E010E002C00AE010E089
:10307000C1E0D0E0B501C701F6010995811115C085
:1030800021960C171D0794F0CC9F9001CD9F300D19
:10309000300D112480E090E045E34A95F1F70000FF
:1030A000019682179307C1F7E5CF81E0CDB7DEB770
:1030B000EAE00C949230ADE0B0E0E1E6F8E10C9487
:1030C0006F3085B7806885BF85B7806885BF84B756
:1030D000877F84BF0FB6F894A895809160008861BF
:1030E00080936000109260000FBE90E080E80FB601
:1030F000F89480936100909361000FBE8EEB90E195
:103100009093B1018093B0010E94632A0E94D62A55
:103110008091E20084608093E200789480910303C0
:103120008823A1F01091E9001F709091EC00892F85
:10313000817090FD80E8182B1092E9008091E800E2
:1031400083FD0E94C6261F701093E90082E084BDB3
:1031500093E095BD9AEF97BD80936E001092830225
:103160001092840210928502109286028091D800FB
:1031700080618093D8002AE12A95F1F700C0809100
:10318000D900182F117080FD04C00E94632A10928C
:10319000030310930F0310931003109300011111F8
:1031A0000E94FF2D8091000180910001811102C0D9
:1031B00094E001C090E09093900284E0891B80939A
:1031C0008F0206EA11E0D8018D918D018F3F11F039
:1031D0000E94F511B1E00C3A1B07A9F70CEA11E0C7
:1031E000F80181918F018F3F11F00E94F511F1E0FC
:1031F000003B1F07A9F788E0E5E9F2E0DF01282F8F
:103200001D922A95E9F7E7E8F2E0DF011D928A9521
:10321000E9F78FE090E00E94AD306F7B6F776093AD
:10322000110380E090E00E94B330863E9E4F11F083
:103230000E94AF1382E090E00E94A5308093E302E9
:1032400084E090E00E94B3309093940280939302C4
:1032500083E090E00E94A53090E00E94061E8091DD
:103260000F03811102C00E94022E80911003811170
:1032700002C00E940B210E94832585EC9AE0909366
:1032800062018093610186E190E090935D018093FB
:103290005C0186E390E09093600180935F0181E0A0
:1032A00091E0909315038093140348E1E42EF12CF0
:1032B00050E4D52E11E001E080910303853009F040
:1032C00047C020E1B22E32E1C32E80910303853046
:1032D00009F03AC080910303843019F10E949523CC
:1032E000109218030FB6F894A895E09260000FBEF4
:1032F000D092600083B7817F846083BF83B7816091
:1033000083BF7894889583B78E7F83BF0FB6F89478
:10331000A8958091600088618093600010926000A1
:103320000FBE80910203882309F4CFCF0E9495231A
:103330000E941515E5E9F2E081918111D3C122E0E7
:10334000ED39F207C9F7C1CF0E940B1E0E94982DDC
:103350000E9415158DE9A82E82E0B82E95E9892ED8
:1033600092E0992ED401F50191918D91892792E0F7
:10337000E53AF90719F08823B9F305C0811103C0B4
:103380000E94061736C030900F03C12CD4014D9017
:103390004D01F5015080542419F1712C6624639479
:1033A000852D8621B1F03320A1F07F82C8860E944E
:1033B000C32C9A8789870B8791E0842D862109F495
:1033C00090E09C874F81588569857A858B850E941E
:1033D000510B7394660CF6E07F12E2CFD5014C924C
:1033E000C394BFEFAB1ABB0AE8E0CE12CFCF0E9466
:1033F0000C120E94952381110E940C1286E0EEEEC1
:10340000F2E0DE01119601900D928A95E1F710929B
:10341000F0021092F1021092F2021092F3028B81EC
:10342000811104C08C81882309F45AC08091EC0278
:103430009091ED020E94A82CAC019091E702992393
:1034400039F02091630130E02417350758F048C067
:1034500020916401FAE02F9F900111242417350771
:1034600018F03EC09F3F19F09F5F9093E702CB801A
:10347000CC2061F00E94DC211C1414F09FEF01C0ED
:1034800091E0899F802D11248093F002CC80CC2084
:1034900061F00E94DC211C1414F09FEF01C091E048
:1034A000899F802D11248093F1028091F00288235E
:1034B000B9F0C090F102CC2099F00E941B22882321
:1034C00019F08093F00202C01093F0028C2D0E943C
:1034D0001B22882319F08093F10202C01093F1029D
:1034E0008D81811104C08E81882309F44EC08091A2
:1034F000EA029091EB020E94A82C9C019091E802B4
:10350000992309F405C12135310508F43EC09F3FD8
:1035100019F09F5F9093E802CD80CC2061F00E946B
:10352000A3211C1414F09FEF01C091E0899F802D0E
:1035300011248093F202CE80CC2061F00E94A3215E
:103540001C1414F09FEF01C091E0899F802D11247D
:103550008093F3028091F2028823B9F0C090F302C5
:10356000CC2099F00E941B22882319F08093F2024C
:1035700002C01093F2028C2D0E941B22882319F0A6
:103580008093F30202C01093F302BE016F5F7F4F7E
:103590008EEE92E00E94F82C811115C08091F0020D
:1035A00081110FC08091F10281110BC08091F20254
:1035B000811107C081E09091F302911103C080E076
:1035C00001C081E080FD0E94642586E0FE01319605
:1035D000AEEEB2E001900D928A95E1F70E94982D2F
:1035E0009091A502891721F08093A5020E94B72C23
:1035F00080910F03882309F45FCE8091110390918D
:10360000AB02891721F08093AB0201E001C000E01A
:103610006091A7027091A8028091A9029091AA02DC
:103620000E948C2C653F71408105910518F40023A0
:1036300009F441CE8AE08D879091A6029A3008F075
:1036400039CE19821A821B821C828A8311E01B8365
:1036500063E070E0CE0102960E94292289831093D4
:1036600043011092560100E010E020E030E044E019
:1036700050E0BE016F5F7F4F86E00E945C1188239F
:1036800009F418CE20E030E041E050E061E173E061
:1036900087E00E945C11882309F40CCE20E030E022
:1036A00041E050E0BE01635F7F4F88E00E945C1103
:1036B000882309F4FFCD20E030E040E050E060E0F6
:1036C00070E089E00E945C11882309F4F3CD0E9428
:1036D000B72C6093A7027093A8028093A9029093DD
:1036E000AA02E8CDB9BCC9BC09B400FEFDCF8091E7
:1036F000D8008F7D8093D8008091E0008260809315
:10370000E0008091E00081FDFCCF0E940B1EDDCD2A
:103710002B30310508F0FDCE38CFA0E0B0E0E3E972
:10372000FBE10C9477307C010091910210919202A0
:103730008091090290910A02082B192BCFE0D0E06A
:10374000CC24C394D12CC6010C2E02C0880F991F23
:103750000A94E2F780239123892B21F4219798F78B
:10376000B12C09C0BC2EB7018C2F0E9475120E948B
:103770009212019799F38B2DCDB7DEB7E9E00C9447
:103780009330CF93DF93EC010E948D1BBE010E940A
:1037900075120E949212DF91CF910895FC0124814D
:1037A0002223D9F0808191810E94C11B92959F7044
:1037B000963079F010F4925001C09A50923068F42B
:1037C000803F69F018F4883E40F409C0843F29F432
:1037D00006C0883E20F0813F11F080E0089581E02E
:1037E0000895A4E1B0E0E7EFFBE10C9474308C01A4
:1037F00086E0F801DE011F9601900D928A95E1F7AF
:10380000F8018481E5809CEB892E91E0992E9091BE
:10381000C001911120C0882309F463C1EE2009F48E
:1038200042C0C8010E94CE1BF82E8823E1F187E038
:10383000F801D40101900D928A95E1F78091C001C1
:10384000813031F48091BC019091BD010E94C11B77
:103850000E94BC1448C1F801D080C180A280B3800E
:10386000F090C1012091BE013091BF01FF2009F409
:10387000E7C0A501421B530B483C510508F09DC011
:10388000882309F430C18091C201282F207F9091B4
:10389000BD01222361F09C1509F460C0C8010E949B
:1038A000CE1B811163C0C8010E94100C1AC19C116B
:1038B00013C09091BC019D110FC0E1100DC08F701D
:1038C00080618093C2018CEB91E00E94100C80918A
:1038D000C201F801868303C1E1103AC040E06C2DBB
:1038E0008D2D0E94921440E06C2D8D2D0E9492141B
:1038F000E82E8111F4C0DF86C88A8F8598890E94DE
:10390000C11B292F22952F70243020F49F70223064
:1039100028F009C02A50223080F014C0992349F0C1
:10392000811107C013C0992321F0F8019681907F7F
:1039300069F0805E883030F409C0803F38F0815FE4
:10394000833020F0C8010E94100CEF2CFE2CCBC05D
:103950008091C20181608093C201C1C09091BC017D
:103960009D119CCFE1109ACFF80198C0EE2009F488
:103970009ACF2091C201822F82958F7090E002979A
:103980008CF08091BC019091BD0199878887BB869E
:10399000AA868091C0018C871D862E87CE0108964D
:1039A0000E94100C87E0F801ACEBB1E001900D92A1
:1039B0008A95E1F70E94BC1494C09091C201292F0E
:1039C000207F51F48CEB91E00E94100C87E0F40111
:1039D00011928A95E9F783C0882309F484C0809105
:1039E000BD018C110CC08091BC018D1108C0E1108B
:1039F00006C0F8019683C8010E94100C6AC0C80175
:103A00000E94CE1B882309F44ECFEE2009F44BCF41
:103A10002091C201822F82958F7090E0029714F25C
:103A20008091BC019091BD019A838983BC82AB8255
:103A30008091C0018D831E822F83CE010196B0CF6D
:103A4000A21AB30AF8ECAF16B10408F042C08823FA
:103A500009F447C0FE2CEE2009F425CF8091BD016A
:103A60008C1129C08091BC018D1125C09091C2019B
:103A700090FD18C0892F82958F70282F30E0211576
:103A8000310581F0F80196832F30310541F08F5FC9
:103A9000982F9295907F86818F70892B8683C8019D
:103AA0000E94100C87E0F801ACEBB1E001900D92A0
:103AB0008A95E1F718C0C8010E94CE1B811172CF10
:103AC0008091C20181608093C201C8010E94100CE4
:103AD0000AC087E0F40111928A95E9F704C0F12C3D
:103AE00002C0FF24F3948F2D6496ECE00C94903088
:103AF000983078F5863068F5E82FF0E086E0989FFA
:103B0000E00DF11D11249E2F977083E0F695E79547
:103B10008A95E1F7EE0FFF1FEE0FFF1FE455FD4FF3
:103B200040E050E080E0219130E0092E02C036955F
:103B300027950A94E2F721703327042E01C0220F43
:103B40000A94EAF7822B4F5F5F4F4430510559F7D3
:103B5000089580E00895983088F5863078F5E82F4C
:103B6000F0E086E0989FE00DF11D11248E2F877004
:103B700051E001C0550F8A95EAF783E0F695E79585
:103B80008A95E1F7EE0FFF1FEE0FFF1FE455FD4F83
:103B900020E030E070E04081CB01022E02C096951B
:103BA00087950A94E2F7817081958427852384277D
:103BB00081932F5F3F4F2430310569F7089590932B
:103BC000920280939102089521E030E002C0220F1A
:103BD000331F8A95E2F7209530958091910290915C
:103BE0009202822393230E94DF1D089521E030E09A
:103BF00002C0220F331F8A95E2F7809191029091C3
:103C00009202822B932B0E94DF1D089590930A024B
:103C1000809309020895CF9310920802C6E0E6EB64
:103C2000F1E0DF018C2F1D928A95E9F780E090E0AA
:103C30000E94652D80E090E00E94402D1092FF01CF
:103C40000E942A14EEEEF2E0DF011D92CA95E9F718
:103C50001092E7021092E8021092E9020E94642595
:103C6000CF910895882321F00E9423140E942A14E2
:103C70000895882339F090910802892B80930802D7
:103C80000E942A1408959091F002662309F471C0ED
:103C900091110CC09091F102911108C09091F30222
:103CA000911104C09091F202992331F098E0909321
:103CB000E70291E09093E8028D3C21F40E94DC2120
:103CC000819504C08E3C29F40E94DC218093F1028E
:103CD000C6C08F3C21F40E94DC21819504C0803D48
:103CE00029F40E94DC218093F002B9C0893D19F4C7
:103CF0000E94A32105C08A3D31F40E94A321819531
:103D00008093F202ACC08B3D21F40E94A3218195E7
:103D100004C08C3D29F40E94A3218093F3029FC02C
:103D20004FE2480F483080F421E030E0B901042E22
:103D300002C0660F771F0A94E2F7CB019091EF0261
:103D4000892B8093EF028EC08D3D21F48091E90292
:103D500081600CC08E3D21F48091E902826006C032
:103D60008F3D09F07FC08091E90284608093E90271
:103D700076C04FE2480F8D3C39F49091F10297FFE5
:103D800033C01092F10256C08E3C29F49091F1029A
:103D90001916BCF329C08F3C29F497FF25C0109257
:103DA000F00248C0803D19F41916CCF31DC0909163
:103DB000F202893D29F41916BCF41092F2023AC0BD
:103DC0008A3D19F497FF10C0F8CF8B3D39F49091DC
:103DD000F30297FF09C01092F3022CC08C3D21F42E
:103DE0009091F3021916BCF3483088F4815D21E00C
:103DF00030E0B90102C0660F771F8A95E2F7CB0168
:103E000080959091EF0289238093EF0213C08D3D3E
:103E100021F48091E9028E7F0BC08E3D21F48091C8
:103E2000E9028D7F05C08F3D29F48091E9028B7FE7
:103E30008093E9028091F002811106C08091F10225
:103E4000811102C01092E7028091F20281111AC022
:103E50008091F302811116C01092E80213C00E94F3
:103E6000642508954830D8F781E090E001C0880FBC
:103E70004A95EAF79091D602892B8093D6020E9448
:103E80006C230895483058F781E090E001C0880F16
:103E90004A95EAF780959091D6028923EECF882340
:103EA000C9F19CEF980F913A60F4E4EBF1E0928154
:103EB000891301C01282319691E0EA3BF907B9F704
:103EC0000DC090E2980F983060F4877091E001C0C7
:103ED000990F8A95EAF7892F0E9423140E942A14C9
:103EE00008959BE5980F933028F480E090E00E94BD
:103EF000652D089598E5980F9B3128F480E090E0B7
:103F00000E94402D089593E3980F933118F460E0D8
:103F10000E94431E0895CF93882309F492C0C82FAE
:103F20008CEF8C0F813AB8F58091E202813081F0FC
:103F300030F0823041F58C2F0E94402282C0809167
:103F40000802823209F05FC08C2F0E94C22220C07A
:103F5000809108028232C1F3C43191F060F4CB3019
:103F6000A9F0C03109F04DC082E08093E20288E3FD
:103F70000E9440220BC0C93219F0C83339F041C049
:103F80001092E2023EC01092E2023DC081E08170D8
:103F9000811157C038C080E28C0F883078F4C77028
:103FA00081E090E001C0880FCA95EAF7909108027D
:103FB000892B809308020E942A1443C0EBE5EC0F82
:103FC000E33040F4F0E0E559FE4F808190E00E943C
:103FD000652D37C0E8E5EC0FEB3150F4F0E0EE0F63
:103FE000FF1FE259FE4F808191810E94402D29C020
:103FF00083E38C0F833128F561E08C2F0E94431EF0
:1040000020C080E0C4CFE6EBF1E08CEB91E02191A1
:10401000C21721F08E179F07D1F70DC0E4EBF1E036
:104020008281C81301C01282319681E0EA3BF80711
:10403000B9F70E942A146C2F84EB91E00E94262D80
:10404000BACFCF9108951F93CF93DF93182FEB0131
:104050000E948B1F209741F08FE99FE00197F1F7B5
:1040600000C000002197F6CF812F0E944F1FDF91E3
:10407000CF911F9108958436910550F084342FE23A
:10408000920740F464E670E00E94FD30615003C086
:1040900060E001C067E78FE00E946D260895A2E10D
:1040A000B0E0E5E5F0E20C947A304D875E87062FAC
:1040B0006F87172F788B898B9A8B7E0137E0E30E01
:1040C000F11C86E0F70111928A95E9F780911003BF
:1040D000882319F080910E0302C080910D03811195
:1040E00011C060E080E50E946D268823C1F18091B7
:1040F0001003811103C0EDE0F3E002C0EEE0F3E055
:1041000081E080830E945826882349F180E50E943F
:10411000E62FFAEBFA95F1F700C066E070E0C70110
:104120000E942E308F81877051F080911003811191
:1041300003C0EDE0F3E002C0EEE0F3E010820E9485
:10414000463089859A859195819591099A878987C5
:104150008B859C859195819591099C878B8786E0BD
:10416000FE013796DE01119601900D928A95E1F7D6
:10417000898183FD04C087FD05C01092E1020F878D
:10418000188B23C02B813C818D819E814091E1025F
:10419000411103C041E04093E10220384FEF340762
:1041A00034F02038310524F02FE730E001C020E85A
:1041B0008038EFEF9E0734F08038910524F08FE7C8
:1041C00090E001C080E82F87888B86E0FE013D9655
:1041D000DE01179601900D928A95E1F72F813885BF
:1041E00049855A856B857C8580E090E06296E6E0A3
:1041F0000C949630CF938FE00E94A426C82F682F8E
:104200008FE00E946D2681E08C0F24E6829FC00122
:104210001124CF9108950F931F93CF93DF930E94A2
:10422000652F0E945826882309F488C025ED2A9519
:10423000F1F700000E94463085ED8A95F1F7000005
:104240006AE58AE30E946D26882309F477C09FEF10
:10425000E0E7F2E09150E040F040E1F700C00000FC
:1042600082E00E94A42683E00E94A42684E00E94AB
:10427000A42685E00E94A42686E00E94A4266DE183
:1042800083E10E946D26882309F458C08FE39CE9DE
:104290000197F1F700C0000068E183E10E946D26FC
:1042A0000E945826882309F449C082EE0E94E62F16
:1042B00090E59A95F1F7C8E2D3E006E213E1FE013A
:1042C00084910E94E62FF0E5FA95F1F721960C17FC
:1042D0001D07A9F78FE193E00197F1F700C00000F7
:1042E0008AE20E94A42660E080E10E946D260E947E
:1042F0004630EFE3FCE93197F1F700C000006FE0D2
:104300008FE00E946D268FE99FE00197F1F700C0D2
:10431000000060E080E10E946D2667EE81E10E946E
:104320006D2662E083E60E946D2680E00E94A4264E
:104330008FE30E94A4268AE20E94A426DF91CF91F7
:104340001F910F9108958091E90280FF08C060914C
:10435000680170E0759567957595679521C081FF37
:1043600006C06091680170E07595679519C082FF7D
:1043700004C06091680170E010C09091E802992338
:1043800099F0609167019617A0F780916801899F65
:10439000C001112470E00E9411316038710540F4B1
:1043A0006115710519F406C061E070E0862F08956B
:1043B0008FE7089581E008958091E90280FF06C0AB
:1043C0006091660170E0660F771F26C081FF04C010
:1043D0006091660184E005C082FF07C060916601BC
:1043E00088E0689FB001112417C09091E7029923DB
:1043F000D1F060916501961788F72091660188E0F9
:10440000289F90011124929FA001939F500D112489
:1044100070E0CA010E9411316038710540F46115E5
:10442000710519F406C068E070E0862F08958FE7E3
:10443000089581E00895282F35EB2303C00111244E
:1044400097FF03C08058910902C080589F4F892F61
:104450000895FC01680F791F8FEF91E3E617F707C6
:1044600071F02191822728E030E087FF03C0880F98
:10447000892701C0880F21503109B9F7EFCF08957E
:10448000893289F1F0F4843171F1B0F4873009F0A8
:1044900077C081E08093640184E1809363018AE0C6
:1044A000809366018EE18093650188E080936801C6
:1044B00088E28093670164C092EE980F9A30F0F022
:1044C0005FC0803509F444C028F48F3409F058C027
:1044D0008AE03FC0813529F0823509F051C081E082
:1044E00038C08FEF36C08091E602882379F11092B0
:1044F000E6021092E5021092E40242C08D518093D0
:10450000E602833099F038F4813069F08230D9F4D2
:1045100083E691E00DC0853099F078F0863099F40B
:1045200087E691E005C084E691E002C086E691E06E
:104530009093E5028093E40223C085E691E0F8CFF2
:1045400088E691E0F5CF1092E6021AC080E0089567
:1045500086EFE091E402F091E502309789F0208146
:10456000082E000C990B820F911D8F3F910519F0B9
:1045700014F08FEF04C097FF02C0108201C0808347
:1045800081E008958B3109F469C058F58B3009F446
:1045900093C078F4863009F446C020F4853009F4DD
:1045A0004CC08CC0873009F44BC0883009F484C0FB
:1045B00085C0803109F465C068F48E3009F07EC092
:1045C0008091E30282FB222720F991E0922790FB61
:1045D00082F94DC0863109F46FC0893109F46CC08D
:1045E0006DC08A32E9F060F4873209F45FC028F4C4
:1045F0008E3108F463C08D514FC08932F1F05EC036
:10460000833450F48A3308F046C0853309F44EC031
:10461000883309F451C052C0833409F447C04EC0F6
:104620000E94AF1349C08091E302817F8E7F809307
:10463000E30281E08093E20208950E94E10B3CC016
:104640008091E302982F9095917090FB80F9809370
:10465000E302911131C0897F877F10C08091E3020E
:1046600081FB222720F991E0922790FB81F980932A
:10467000E302992309F18091E30281608093E302D0
:104680001BC08091E30283FB222720F991E092274F
:1046900090FB83F9ECCF895321E030E0A90102C0FF
:1046A000440F551F8A95E2F7CA0102C081E090E0ED
:1046B0000E94061E0E940B1E81E0089580E008956E
:1046C00020911003211103C00E943B200895909374
:1046D000E0028093DF020895CF9364EC72E085EDF1
:1046E00092E00E94F82CC82F882321F085ED92E0FB
:1046F0000E948A2D9091D60286E0E5EDF2E0DF017E
:10470000282F1D922A95E9F79093D602A4ECB2E0E7
:1047100001900D928A95E1F781E0C11103C09111DA
:1047200001C080E08170CF910895ACE3B0E0EBE987
:10473000F3E20C947D3080910F03811102C080E080
:104740003BC16091DB027091DC028091DD029091AF
:10475000DE020E948C2C672B682B692B81F30E9450
:10476000B72C6093DB027093DC028093DD029093A0
:10477000DE028091100381111BC04091D50250913F
:10478000D6026091D7027091D8028091D90290919F
:10479000DA020E944F202093D5023093D602409334
:1047A000D7025093D8026093D9027093DA0209C0FD
:1047B00086E0EFECF2E0A5EDB2E001900D928A9573
:1047C000E1F786E0E5EDF2E0DE015F9601900D9203
:1047D0008A95E1F71091D80211951AA386E0FE019F
:1047E0007F96DE01539601900D928A95E1F71E8B1C
:1047F00086E0FE017396DE01599601900D928A952E
:10480000E1F71C8F86E0FE017996A5EDB2E00190FC
:104810000D928A95E1F786E0E5EDF2E0DE01D196B2
:1048200001900D928A95E1F78091D7023091D802DC
:104830002091D9029091DA0240910F03442309F4A8
:1048400079C04091110346FF41C06091CC02709144
:10485000CD02680F711D87FD7A957093CD0260932C
:10486000CC024091CA025091CB02410F511D17FD5D
:104870005A955093CB024093CA02FB0177FF04C0C4
:10488000EE27FF27E61BF70B379754F0161617068F
:1048900014F09FEF01C091E01092CD021092CC0273
:1048A000BA0157FF04C066277727641B750B673072
:1048B000710554F01416150614F02FEF01C021E015
:1048C0001092CB021092CA0230E080E08BAB3CAB7E
:1048D0002DAB9EAB46E0FE01F196DE011D960190E8
:1048E0000D924A95E1F78F87388B298B9A8B46E09A
:1048F000FE013D96DE01119601900D924A95E1F779
:104900008B833C832D839E8346E0FE013196DE013E
:10491000179601900D924A95E1F789873A872B8780
:104920009C8746E0FE013796DE01D19601900D92FC
:104930004A95E1F78BAB3CAB2DAB9EAB46E0FE015D
:10494000F196DE01959601900D924A95E1F78FA3BD
:1049500038A729A79AA746E0FE01B596DE019B96E7
:1049600001900D924A95E1F78DA73EA72FA798AB2E
:1049700086E0FE01BB96A5EDB2E001900D928A950E
:10498000E1F786E0EEEEF2E0DE01D79601900D92BF
:104990008A95E1F79091D60288AD892B8093D60253
:1049A0000E946C23811103C08091CE0202C081E07D
:1049B00090E01092CE028170EC96E3E00C94993076
:1049C0000F931F93CF93DF93C42FD22FFC018581C8
:1049D0008823B1F04093F6020E94C32C9093F50215
:1049E0008093F40280E28C0F883008F068C0C770B2
:1049F00081E001C0880FCA95EAF70E94391E5FC0A6
:104A00008091F60248133DC08091F4029091F50226
:104A10000E94A82C883C9105A0F510E21D0FCD172F
:104A2000E9F080E28C0F883040F4C77081E001C06B
:104A3000880FCA95EAF70E94321E183078F581E097
:104A40009D2F977001C0880F9A95EAF70E94391E32
:104A5000093351F560E570E089E329C0093319F4A1
:104A600060E570E002C060E070E0802F0E942320CB
:104A7000183028F5D77081E001C0880FDA95EAF781
:104A80000AC080E28C0F8830D0F4C77081E001C08A
:104A9000880FCA95EAF70E94321E11C0093351F4FB
:104AA00060E570E089E309C060E070E0802F0E945B
:104AB0002320E0CF60E070E0802F0E942320DF9170
:104AC000CF911F910F9108950E94C32C2091F00265
:104AD000211104C02091F102222321F09093ED02D4
:104AE0008093EC022091F202211104C02091F30284
:104AF000222321F09093EB028093EA028EEE92E063
:104B00000E948A2D08958091110386FF03C088ECCE
:104B100090E015C087FF0CC08295837090E00196ED
:104B200028ECAC01249FC001259F900D112407C0E3
:104B30008F7058EC859FC0011124805E9C4F0E94AD
:104B400060230895A0E0B0E0E8EAF5E20C94763046
:104B5000EC018AE0A82EFE012491222309F4A3C0CF
:104B6000213009F044C031968491813059F4229665
:104B7000FE018491893319F060E070E08EC060E539
:104B800070E08BC0823031F42296FE0184910E9445
:104B90008B1F87C0833031F42296FE0184910E94DE
:104BA0004F1F7FC0843009F07BC02296FE01249104
:104BB00080E090E030E0205331092A30310560F484
:104BC000A89EA001A99E500D1124C901840F951F14
:104BD0002196FE012491EECF009709F462C0EFE91F
:104BE000FFE03197F1F700C000000197F5CFE22F09
:104BF000F0E0EA56FB4EB490822F86958695869516
:104C000090E0FC01EA57FB4EE4902770F12C022E55
:104C100002C0F594E7940A94E2F7F1E0EF22FF2452
:104C2000FC01EA58FB4EC490D12C022E02C0D59450
:104C3000C7940A94E2F731E0C322DD24FC01EA596B
:104C4000FB4E049110E002C0159507952A95E2F7F6
:104C500001701127E114F10419F081EE0E948B1FFD
:104C6000C114D10419F086EE0E948B1F60E070E041
:104C70008B2D0E942320C114D10419F086EE0E94CE
:104C80004F1FE114F10419F081EE0E944F1F01152E
:104C9000110539F060E070E08CE20E94232001C031
:104CA000EF01219658CFCDB7DEB7EAE00C949230F1
:104CB000CF9328E030E043E060E086E30E946D2F70
:104CC000C82F811103C00E94463004C085E08A9538
:104CD000F1F700008C2FCF910895A2E0B0E0E3E758
:104CE000F6E20C947B30182FF62E0E945826082FDF
:104CF000811102C000E023C0103551F080911003F3
:104D0000811103C0EDE0F3E002C0EEE0F3E01082B9
:104D100010681983FA8262E070E0CE0101960E9469
:104D20001630892B39F78AEB8A95F1F700C00E947B
:104D3000463083E492E00197F1F700C00000802F35
:104D40002296E5E00C949730CF93C82F0E94582606
:104D50008823C9F08C2F8F770E94E62F8FE792E08F
:104D60000197F1F700C000000E94FE2FC82F95E0C8
:104D70009A95F1F700000E94463085E68A95F1F792
:104D800000008C2F01C080E0CF910895AAE2B0E02E
:104D9000ECECF6E20C947D30E5E0F3E08DE093E09E
:104DA0002091F10021938E179F07D1F78091060380
:104DB000833009F461C030F4813071F0823009F43D
:104DC0009BC0B2C08A3009F487C08B3009F46CC034
:104DD000893009F0A9C020C080910503813A09F00B
:104DE000A3C08091E800877F8093E8008091090349
:104DF00090910A03892B21F468E089EF92E003C0C7
:104E000060E080E090E070E00E94082C8091E80073
:104E10008B778093E80088C080910503813209F088
:104E200083C08091090390910A03029708F07CC027
:104E30008091E800877F8093E8008091E80082FD00
:104E400005C0809103038111F8CF6EC02091F3005B
:104E50008091F20090E0922B029731F48091F10062
:104E6000813011F0863021F48091F1008093F802B6
:104E70008091E8008B7754C080910503813A09F056
:104E800053C08091090390910A03892B09F04CC00B
:104E90008091E800877F8093E8008091E80080FFA0
:104EA000FCCF8091690137C0809105038132E1F523
:104EB0008091090390910A03892BB1F58091E80054
:104EC000877F8093E8000E94822A80910703809365
:104ED00069010E940B1E28C080910503813221F5D3
:104EE0008091E800877F8093E8000E94822A809169
:104EF00008038093F70218C080910503813AA1F45A
:104F00008091E800877F8093E8008091E80080FF2F
:104F1000FCCF8091F7028093F1008091E8008E77BA
:104F20008093E8000E94822A8091E80083FFCEC12E
:104F30008091050390910603492F50E04A305105B6
:104F400008F0C4C1FA01E656FF4F0C9425318038B1
:104F500021F0823809F0BAC108C080910103909114
:104F60000203992389F082600FC0809109038F703A
:104F7000873008F0ABC18093E9008091EB0085FB9E
:104F8000882780F91092E9009091E800977F90932C
:104F9000E8008093F1001092F10065C1282F2D7F69
:104FA00009F094C1882319F0823061F08FC180919B
:104FB0000703813009F08AC1933009F080E08093C3
:104FC00002032EC08091070381112AC0809109033A
:104FD0008F702FEF280F263008F078C18093E900FA
:104FE0002091EB0020FF1CC0933021F48091EB0056
:104FF000806214C09091EB0090619093EB0021E0EF
:1050000030E0A90102C0440F551F8A95E2F7409392
:10501000EA001092EA008091EB0088608093EB0038
:105020001092E9008091E800877F20C181114EC174
:10503000109107031F778091E3008078812B809384
:10504000E3008091E800877F8093E8000E94822A35
:105050008091E80080FFFCCF8091E300806880931E
:10506000E300111102C082E001C083E080930303DA
:105070002DC18058823008F029C18091070390919A
:1050800008038C3D53E0950779F583E08A838AE233
:1050900089834FB7F894DE01139620E03EE051E299
:1050A000E32FF0E050935700E49120FF03C0E29516
:1050B000EF703F5FEF708E2F90E0EA3010F0C796F0
:1050C00001C0C0968D939D932F5F243149F74FBF48
:1050D0008091E800877F8093E8006AE270E0CE016B
:1050E00001960E94082CAEC04091090350910A031A
:1050F000292F332723303105A9F068F421303105F9
:1051000009F4F3C02230310509F0E0C08BE390E0F0
:10511000E5EEF3E144C02132310521F122323105BF
:1051200071F1D4C0992781309105A1F058F0029710
:1051300009F0CCC0E2E3F4E1E4918E2F90E0E2E3E9
:10514000F4E12AC0E2E6F4E1E4918E2F90E0E2E699
:10515000F4E122C0EEE4F4E1E4918E2F90E0EEE47D
:10516000F4E11AC04115510509F4C4C0413051059C
:1051700009F0ACC089E090E0E0E1F4E110C0411535
:10518000510509F4BCC04130510509F09FC08BE7BF
:1051900090E0E6E2F3E103C0009709F497C02091A4
:1051A000E800277F2093E80020910B0330910C0347
:1051B0008217930708F49C0140E02115310589F11D
:1051C00080910303882309F43DC08530D9F1809193
:1051D000E80083FD37C08091E80082FD2FC08091F8
:1051E000E80080FFEACF4091F3008091F20090E068
:1051F000942B2115310559F08830910540F44491E4
:105200004093F1003196215031090196F2CF41E0EF
:10521000089709F040E08091E8008E778093E800DD
:10522000CCCF4111CDCF0AC080910303882351F028
:10523000853041F08091E80083FD04C08091E80052
:1052400082FFF2CF8091E8008B778093E8003EC028
:105250008038E1F58091E800877F8093E8008091B5
:1052600004038093F1008091E8008E778093E8003A
:105270000E94822A2BC0811129C08091070390913E
:1052800008039927029714F58091E800877F80939F
:10529000E80010910703109304030E94822A111161
:1052A00006C08091E30087FD02C081E001C084E078
:1052B0008093030342E061EC81E00E94A12A42E274
:1052C00061EC82E00E94A12A809103038091E800B2
:1052D00083FF1AC08091E800877F8093E800809167
:1052E000EB0080628093EB000FC082E190E0E0E28F
:1052F000F4E155CF89E090E0E7EFF3E150CF84E4AB
:1053000090E0E1EAF3E14BCFAA96E3E00C94993008
:105310002091E4003091E50095E64091EC00842F67
:10532000817040FF23C08091E80080FD1DC0809106
:105330000303882399F0853099F08091EB0085FD77
:1053400011C04091E4005091E5002417350729F37E
:10535000915011F09A01E1CF84E0089582E0089520
:1053600083E0089581E0089580E008954091E80089
:1053700042FFDDCF089508958091F80208950F93BC
:105380001F93CF93DF938B01EA0190910303943035
:1053900079F58F708093E9008FEF9091E80081504C
:1053A00095FD06C095ED9A95F1F700008111F5CFB6
:1053B0008091E80085FF1CC00E948829882361F045
:1053C0008091E8008E778093E80012C0F801819107
:1053D0008F018093F1002197209791F38091E8004D
:1053E00085FDF4CF8091E8008E778093E800E4CFCC
:1053F000DF91CF911F910F91089543E050E0BC01E0
:1054000082E00E94BF29089546E050E0BC0182E09E
:105410000E94BF290895CF93DF93EC0148E050E04C
:10542000BC0181E00E94BF2988E0FE01A9EFB2E043
:1054300001900D928A95E1F7DF91CF9108951F9227
:105440000F920FB60F9211242F933F934F935F93B8
:105450006F937F938F939F93AF93BF93CF93DF937C
:10546000EF93FF93C091E900CF708091EC00D82FAB
:10547000D17080FDD0E81092E9008091F000877F24
:105480008093F00078940E94C6261092E9008091E3
:10549000F00088608093F000CD2BCF70C093E900BE
:1054A000FF91EF91DF91CF91BF91AF919F918F913C
:1054B0007F916F915F914F913F912F910F900FBE10
:1054C0000F901F901895E8EDF0E080818E7F80832B
:1054D0001092E2001092DA001092E100A0EEB0E02B
:1054E0008C9181608C9380818F77808319BCA7ED2C
:1054F000B0E08C918E7F8C9380818F7E8083109220
:105500001D0308958091050387FF11C08091E80075
:1055100082FD05C0809103038111F8CF11C08091F5
:10552000E8008B770BC080910303882349F08091BA
:10553000E80080FFF8CF8091E8008E778093E80044
:105540000895982F973068F59093E900981739F0EF
:105550007091EC002091ED005091F00003C0242FD9
:10556000762F50E021FD02C09F5FECCF3091EB0021
:105570003E7F3093EB003091ED003D7F3093ED00A6
:105580003091EB0031603093EB007093EC0020938E
:10559000ED005093F0002091EE0027FDE5CF80E074
:1055A00008958F708093E90081E00895A0E0B0E055
:1055B000ECEDFAE20C947830C8EDD0E088818F7E73
:1055C0008883E7EDF0E080818160808384E082BFA2
:1055D00081E080931D0388818E7F888302EE10E036
:1055E000F80110821092DA0081EEC82ED12CF6015B
:1055F000108288818F7788838881806888838881FA
:105600008F7D888319BC10920303109204031092BB
:1056100002031092010390EEE92EF12CF701808134
:105620008B7F808388818160888342E060E080E0B6
:105630000E94A12AF60180818E7F8083F8018081FB
:1056400081608083808188608083F70180818E7F84
:105650008083888180618883CDB7DEB7E8E00C94D1
:1056600094301F920F920FB60F9211242F933F93F5
:105670004F935F936F937F938F939F93AF93BF935A
:10568000EF93FF938091E10082FF09C08091E200D7
:1056900082FF05C08091E1008B7F8093E1008091C3
:1056A000DA0080FF2AC08091D80080FF26C0809158
:1056B000DA008E7F8093DA008091D90080FF18C0D5
:1056C00080E189BD82E189BD09B400FEFDCF81E0A2
:1056D0008093030380911D0381110FC00E94632AF0
:1056E0000E94D62A8091E20084608093E20005C087
:1056F00019BC1092030310921D038091E10080FFFA
:1057000017C08091E20080FF13C08091E2008E7F7D
:105710008093E2008091E20080618093E2008091BA
:10572000D80080628093D80019BC85E08093030381
:105730008091E10084FF30C08091E20084FF2CC0A2
:1057400080E189BD82E189BD09B400FEFDCF809171
:10575000D8008F7D8093D8008091E1008F7E809368
:10576000E1008091E2008F7E8093E2008091E20070
:1057700081608093E20080910403882311F084E02B
:1057800007C08091E30087FD02C081E001C083E093
:1057900080930303809103038091E10083FF27C07E
:1057A0008091E20083FF23C08091E100877F809396
:1057B000E10082E080930303109204038091E100F2
:1057C0008E7F8093E1008091E2008E7F8093E200E3
:1057D0008091E20080618093E20042E060E080E03E
:1057E0000E94A12A8091F00088608093F000FF91D0
:1057F000EF91BF91AF919F918F917F916F915F9149
:105800004F913F912F910F900FBE0F901F901895C1
:1058100020910B0330910C032617370748F06115D0
:10582000710539F42091E8002E772093E80001C03B
:10583000B901FC0120E06115710579F18091030344
:105840008823F1F18530F1F18091E80083FD3CC0BF
:105850008091E80082FD2EC08091E80080FFEBCFB0
:105860002091F3008091F20090E0922B6115710578
:1058700051F08830910538F421912093F100615066
:1058800071090196F3CF21E0089709F020E080919B
:10589000E8008E778093E800CECF2111CFCF0AC0E9
:1058A00080910303882361F0853061F08091E800E6
:1058B00083FD0AC08091E80082FFF2CF80E0089566
:1058C00082E0089583E0089581E0089578941F921E
:1058D0000F920FB60F9211248F939F93AF93BF93A4
:1058E0008091190390911A03A0911B03B0911C039E
:1058F0000196A11DB11D8093190390931A03A093E3
:105900001B03B0931C03BF91AF919F918F910F9098
:105910000FBE0F901F901895CF92DF92EF92FF92DB
:105920002FB7F894C0901903D0901A03E0901B038E
:10593000F0901C032FBFA7019601261B370B480BC5
:10594000590BCA01B901FF90EF90DF90CF900895F5
:105950009C014FB7F8948091190390911A03A0917C
:105960001B03B0911C034FBF821B930B08952FB7ED
:10597000F8946091190370911A0380911B03909120
:105980001C032FBF08952FB7F894809119039091AD
:105990001A03A0911B03B0911C032FBF08951F92FF
:1059A0000F920FB60F9211248F939F93AF93BF93D3
:1059B00080911803811113C08091190390911A03EB
:1059C000A0911B03B0911C034196A11DB11D8093B2
:1059D000190390931A03A0931B03B0931C03BF9168
:1059E000AF919F918F910F900FBE0F901F901895C0
:1059F000DC01FB0111969C9111978181981321C0C4
:105A000012968C911297882319F09281891319C0EC
:105A100013968C911397882319F09381891311C0E1
:105A200015968C911597882319F09581891309C0D3
:105A300014969C91992339F081E02481291304C0A4
:105A400002C081E001C080E0817008959C01FC01EA
:105A500032969FEF80E04191461789F09F3F19F4FD
:105A6000411101C0982F8F5F8630A9F79F3F39F011
:105A7000F901E90FF11D97FDFA95628308950895E4
:105A8000A3E0B0E0E6E4FDE20C947E302091160342
:105A90003091170328173907A1F0909317038093CB
:105AA0001603E0911403F0911503309751F024E0B0
:105AB00029839B838A830084F185E02DCE010196A2
:105AC00009952396E2E00C949A30A3E0B0E0EBE66F
:105AD000FDE20C947E3020911203309113032817BD
