:100000000C94D3010C94071A0C94F0010C94F00199
:100010000C94F0010C94F0010C94F0010C94F0019C
:100020000C94F0010C94F0010C942F210C940322F9
:100030000C94481C0C94F0010C94F0010C94F00109
:100040000C94F0010C94F0010C94F0010C94F0016C
:100050000C94F0010C94EB1C0C94F0010C94F00146
:100060000C94F0010C94F0010C94F0010C94F0014C
:100070000C94F0010C94F0010C94F0010C94F0013C
:100080000C94F0010C94F0010C94F0010C94F0012C
:100090000C94F0010C94F0010C94F0010C94F0011C
:1000A0000C94F0010C94F0010C94F001000000009D
:1000B00000000000000000002B002D023600370079
:1000C00013001C00290004001200080018000C0096
:1000D0000000330214000D000E001B0000000000A1
:1000E0000000000022522152000000000000000029
:1000F0000000E1000000000000000000000000001F
:1001000009000A00060015000F002A0007000B0076
:100110001700110016002800050010001A00190031
:100120001D002C002C00E00000000000000000007A
:10013000E3000000000000000000000000000000DC
:1001400000000000000000002B00380236021F02F1
:1001500035022302290034022E002602270225023E
:10016000000033022F002F02210250000000000087
:1001700051005200000000000000000000000000DC
:10018000000000000000000000000000000000006F
:10019000220224021E022E0231002A002002340014
:1001A00038002D00330028004F00310230023000AB
:1001B000370200002C00E0000000000000000000FA
:1001C000E30000000000000000000000000000004C
:1001D000000000000000000000000000000000001F
:1001E0000000000000001E001F0020002100000091
:1001F0000000330250005100220000000000000007
:1002000000000000000000000000000000000000EE
:1002100000000000000000000000000000000000DE
:10022000000000000000000000002A000000240080
:1002300025002600270028000000230052004F0060
:10024000E10000002C00830000000000000000001E
:100250003700000000000000000000002C034400F4
:1002600061006300740079006C002D004D00610096
:100270006E00750066006F0072006D00200028009F
:10028000350078003600290000000E03740073006A
:1002900068006F0072007400000004030904090282
:1002A0003B00020100A0FA09040000010301010063
:1002B0000921110100012240000705810308000106
:1002C00009040100010300000009211101000122BD
:1002D0007B000705820320000112010002000000DC
:1002E000084D44363501000102000105010902A153
:1002F0000185020901A10005091901290815002538
:100300000195087501810205010930093115812522
:100310007F95027508810609381581257F9501753D
:10032000088106050C0A38021581257F950175089C
:100330008106C0C005010980A101850319012AB702
:1003400000150126B700950175108100C0050C0944
:1003500001A101850419012AA002150126A0029518
:100360000175108100C005010906A101050719E00A
:1003700029E7150025019508750181029501750889
:1003800081010507190029FF150026FF0095067554
:100390000881000508190129059505750191029547
:1003A0000175039101C011241FBECFEFDAE0DEBF5B
:1003B000CDBF11E0A0E0B1E0E4E7F9E402C00590B0
:1003C0000D92A23AB107D9F722E0A2EAB1E001C04A
:1003D0001D92A53BB207E1F70E94C5130C94792446
:1003E0000C9400008330B8F46C30A8F4463098F4D4
:1003F00050E096E0699F400D511D1124FA0198E4E8
:10040000899FE00DF11D1124EE0FFF1FE455FF4FF2
:1004100085919491089580E090E008950E94F20102
:10042000089581E0089581E008950E9413020895DF
:1004300008950E9418020895A5E0B0E0E2E2F2E01B
:100440000C94E52349835A833091A90189819A81CB
:10045000311119C0662399F0222389F00E942A08DD
:10046000182F682F89819A810E94060869817A81F4
:10047000812F0E94BF0E2596E3E00C9401240E9478
:100480001808182FF3CF0E942A0869817A81F1CFCA
:10049000FC01262F408151816281738184810E94F9
:1004A0001C02089581E00895CF93DF93EC0160E092
:1004B0000E944802BE010E941902DF91CF91089567
:1004C0000E94171008950E941B10089508950E941D
:1004D000D5060E9466022FEF84E39CE02150804005
:1004E0009040E1F700C0000008950E9467020E945A
:1004F0000F1D08950E9467020E94201D08950F930A
:100500001F93CF93DF938C0161E00E944802EC01BE
:10051000B8010E941502811106C080E0DF91CF91E1
:100520001F910F910895B801CE010E9425198823CB
:10053000A1F3B801CE010E946E16882371F3B801B1
:10054000CE010E949718882341F3F8018281882305
:1005500061F0C330FCE7DF07E9F058F4C115ECE7C0
:10056000DE07A9F0C130DC47B9F0C8010E941102D2
:10057000D5CFCB358CE7D807A9F0CC35ECE7DE0733
:1005800071F0CA35DC4789F70E94640CEECF0E94F7
:100590007502C3CF0E946C0C0E947A02BECF0E94EB
:1005A0005A0CE3CF0E94680CE0CF0E94251C0E94E9
:1005B000FF0208950E9403030E942A1C08950895D3
:1005C0000E94DF02089581E008950895CF93DF939C
:1005D000D82F0E94E302C82F882319F08D2F0E9484
:1005E000E5028C2FDF91CF9108950895CF93C82F06
:1005F0000E94E0028C2F0E94E602CF91089580E0D5
:100600000E94F60208950E942D1B0E94F602089592
:10061000CF930E942D1BC82F8091A4018C1779F0D5
:10062000C093A4010E94B41C6093A5017093A6011D
:100630008093A7019093A8018C2F0E94F602CF917E
:100640000895ABE0B0E0E7E2F3E00C94E6234F83DB
:10065000588769877A878B8761110E94A50B1E8254
:100660001D8285E0FE013796DE01119601900D9204
:100670008A95E1F78C819D81892B61F449815A81AA
:100680006B817C818D819E810E94CE0A2B96E2E057
:100690000C94022489819A8189238F3F79F3CE01BA
:1006A00001960E9452028111E9CFF0CFFC018081B6
:1006B00091810E945C080895662329F00E944914E4
:1006C0000E941C1508950E94A314FACFCF93C82F3F
:1006D0008823C9F08238C9F40E942D1B81FD13C004
:1006E00089E30E945D0B0E94C60B2FEF87EE93E01B
:1006F000215080409040E1F700C0000089E30E9453
:10070000650B0E94C60BCF9108958338A1F40E9417
:100710002D1B80FDF8CF83E50E945D0B0E94C60B68
:100720002FEF81EE94E0215080409040E1F700C02F
:10073000000083E5E4CF8438A1F40E942D1B82FDE4
:10074000E2CF87E40E945D0B0E94C60B2FEF81EE83
:1007500094E0215080409040E1F700C0000087E421
:10076000CECF8CEF8C0F813AB8F48C2F0E94DB1720
:100770008111C9CF6C2F80910001909101010E94DD
:10078000B61B882329F08C2F0E94650B0E94C60B94
:100790008C2F0E945D0BB5CF80E28C0F883048F41F
:1007A000C77081E001C0880FCA95EAF70E94880BE4
:1007B000A8CFEBE5EC0FE33040F4F0E0E45AFE4F55
:1007C000808190E00E945A1B9ECFE8E5EC0FE93152
:1007D00050F4F0E0EE0FFF1FE65DFE4F8081918147
:1007E0000E947F1B90CF83E38C0F833108F08BCF67
:1007F00061E08C2F0E945C0386CF882309F456C0E9
:10080000823879F40E942D1B81FF50C089E30E9439
:100810005D0B0E94C60B89E30E94650B0E94C60B0C
:100820000895833859F40E942D1B80FF3FC083E553
:100830000E945D0B0E94C60B83E5EECF843859F40D
:100840000E942D1B82FF32C087E40E945D0B0E9434
:10085000C60B87E4E1CF9CEF980F913AE8F290E263
:10086000980F983050F4877091E001C0990F8A95E5
:10087000EAF7892F0E948E0BD1CF9BE5980F93301A
:1008800028F490E080E00E945A1B089598E5980FA4
:10089000993128F490E080E00E947F1B089593E353
:1008A000980F933118F460E00E945C0308951F9341
:1008B000CF93DF93182FEB010E946603209739F442
:1008C000812F0E94FD03DF91CF911F9108958FE941
:1008D0009FE00197F1F700C000002197EFCF70E093
:1008E00060E0893311F460E570E00E9457040895D8
:1008F000882321F00E94880B0E94C60B089588234C
:1009000021F00E948E0B0E94C60B0895B0E0A0E07B
:10091000ECE8F4E00C94DF236C01D62FC72FFC0128
:100920001281F580F2949FE0F9220E947E0BE82E5E
:100930008823B9F0E12E1123A1F08C2F807F803421
:1009400021F080E28D0F8830D0F08091890282FF03
:1009500016C082E00E94290C0E947E0B91E0E82ED6
:10096000E926BC2EB2948FE0B822FBE0FB1508F418
:1009700068C0EB2DF0E0E558FB4D0C94D023E12C42
:10098000F0CF0C2F0F70C07F11F00295007F112364
:1009900099F0002359F080E28D0F883010F0D111CA
:1009A00007C0802F0E94880B0E94C60B8D2F41C06C
:1009B000802F0E94980BF8CF8D2F0E94FD030023FB
:1009C00009F43FC080E28D0F883010F0D11104C0CF
:1009D000802F0E948E0B03C0802F0E949E0B0E94CE
:1009E000C60B2FC00C2F0F70C07FC03211F00295C4
:1009F000007FDD2381F0D13009F468C0112309F4B0
:100A000072C0FF2009F468C0F601858180FFCECF57
:100A10008F70858361C08091890282FD33C011236C
:100A200059F0002329F0802F0E94880B0E94C60BEA
:100A300080E00E94660305C080E00E94FD03011172
:100A4000C7CFEB2DE850FF0B349720F40E942D1BED
:100A50000E94F602EE2089F00E947A0B80FD0DC004
:100A6000F60112820E94740B0E946407C6010E9464
:100A700095060E94740B0E947407CDB7DEB7E9E0BB
:100A80000C94FB23112389F0F11006C00E94A80BDF
:100A9000802B0E947804D5CF21E0F212F7CF0E947C
:100AA000A80B802B0E94AF0BCCCFF11006C00E9488
:100AB000BC0B802F0E947F04C4CF31E0F31609F2F3
:100AC000802F0E947F040E94BC0BBBCF112331F00A
:100AD00085E08F1508F4B5CF802FDBCF94E09F150C
:100AE00008F4AFCFE6CFFF2021F3D93349F4FFEF6D
:100AF00027EE33E0F15020403040E1F700C0000025
:100B00008D2F0E94FD039DCF8C2F86958695837037
:100B100069F0813009F095CF8D2F9C2F93701111C2
:100B200002C080E090E00E947F1B8BCF8D2F9C2F16
:100B30009370111102C080E090E00E945A1B81CF97
:100B4000612F8D2F0E945C037CCF8C2F8370A1F5C9
:100B5000111177CF4D2F429546954770440F440FA2
:100B60002D2F2F7030E0042E02C0220F331F0A9465
:100B7000E2F790E080E0D4FF09C08FE090E002C08F
:100B8000880F991F4A95E2F780959095C695C6956E
:100B9000C370822B932BC23049F058F4C13019F046
:100BA0000E9434074ECF0E942B074BCF0E943D0777
:100BB00048CF0E94280745CF8695112311F08C2F2E
:100BC0008170882309F43DCF4D2F4295469547709B
:100BD000440F440F2D2F2F7030E0042E02C0220F3F
:100BE000331F0A94E2F790E080E0D4FF09C08FE061
:100BF00090E002C0880F991F4A95E2F78095909582
:100C0000C695C695C370822B932BC23049F058F419
:100C1000C13019F00E949F0714CF0E94960711CF90
:100C20000E94A8070ECF0E944C070BCFCF70112354
:100C300029F08C2F0E9464078D2F2BCF8D2F0E94BF
:100C40007F048C2F0E947407FCCED23F51F160F4D8
:100C5000D03FB9F0D13F81F0112309F449C0F11020
:100C6000A5CE8C2F8F7121C0D33F11F1D43FA1F7B6
:100C70008091890282FD26C08C2F8F71112311F380
:100C800014C0112349F084E08F1508F4DACE8C2FBC
:100C90008F710E948607D5CE95E09F1508F4D1CEBE
:100CA000F6CF8C2F8F711111CDCF0E946407C9CE62
:100CB000112329F08C2F8F710E945807C2CE0E94F9
:100CC0005307BFCE112349F0CF718C2F0E946407C8
:100CD00063E08C2F0E940B0CB4CE81E00E94290CA3
:100CE000E1E0EF1508F0ADCE82E00E94290CA9CE1C
:100CF000F110FBCE8C2F8F71A5CF0F931F93CF9345
:100D0000DF93EC01688179818A810E9467088C01F8
:100D10000E94B1070E942707B801CE010E948604F5
:100D2000DF91CF911F910F910895CF93DF93EC0145
:100D30008B819C81892B29F08881998189238F3F20
:100D400051F4DF91CF910895CE010E947D06CE012E
:100D50000E945402F6CFCE010E947F028111F4CF8F
:100D60000E947E0B882369F38A81882351F3809146
:100D7000890282FFE6CF82E00E94290CE2CF90E058
:100D800080E00E945A1B90E080E00E947F1B0E943E
:100D9000A50B0E94C60B0E9438150E941C150895D1
:100DA0000E946D0B0E94BF0608950E94950B0E9441
:100DB000D006089592959F70963091F058F4925F06
:100DC0009F70923058F4803F19F030F4883E30F430
:100DD00081E008959A5FF4CF843FD1F380E00895D5
:100DE000883EB0F3813FD1F7F3CFFC01838194813A
:100DF000892B29F08081918189238F3F11F480E034
:100E00000895808191810E945C080E94DA0608950D
:100E1000A5E0B0E0EEE0F7E00C94E6232596E2E0F2
:100E20000C940224A6E0B0E0E8E1F7E00C94E6239D
:100E30002696E2E00C94022408950E941C0708956F
:100E40000E941D079093D1018093D00108950895C9
:100E50000E94200708952091D0013091D101822B6A
:100E6000932B0E94200708952091D0013091D10149
:100E7000822393230E94200708952091D00130916E
:100E8000D101822793270E94200708950E941C0702
:100E900008950E94460708950E9449079093CF0144
:100EA0008093CE01089590E080E00E944C07089561
:100EB00021E030E0A90102C0440F551F8A95E2F7F6
:100EC000CA010E944C07089521E030E002C0220FC1
:100ED000331F8A95E2F78091CE019091CF01822B4A
:100EE000932B0E944C07089521E030E002C0220FAE
:100EF000331F8A95E2F7209530958091CE0190912D
:100F0000CF01822393230E944C07089521E030E013
:100F100002C0220F331F8A95E2F78091CE01909193
:100F2000CF01822793270E944C0708952091CE017C
:100F30003091CF01822B932B0E944C070895209172
:100F4000CE013091CF01822393230E944C07089554
:100F50002091CE013091CF01822793270E944C0728
:100F600008950895262F277091E001C0990F2A95C2
:100F7000EAF723E0769567952A95E1F7660F771FE4
:100F8000660F771FFA01E60FF71F50E040E0682F69
:100F900070E08191DF0111979B01042E02C036950C
:100FA00027950A94E2F721702195282729232827DD
:100FB0002C934F5F5F4F4430510559F70895A82F88
:100FC000A77023E0969587952A95E1F7880F991FDA
:100FD000880F991FFB01E80FF91F50E040E080E007
:100FE000219130E00A2E02C0369527950A94E2F747
:100FF00021703327042E01C0220F0A94EAF7822BB6
:101000004F5F5F4F4430510559F70895262F9C30AC
:1010100070F4863060F4682F70E086E0989F600D71
:10102000711D11244AEA51E0822F0E94B2070895EF
:10103000292F9C3068F4863058F490E06AEA71E019
:1010400036E0239F800D911D11240E94DF07089533
:1010500080E00895B0E0A0E0E0E3F8E00C94DF2346
:101060007C010091CE011091CF018091D00190912F
:10107000D101082B192BCFE0D0E0CC24C394D12C84
:10108000BC2EC6010C2E02C0880F991F0A94E2F7ED
:1010900080239123892B49F4219790F7B12C8B2D34
:1010A000CDB7DEB7E9E00C94FB23B7018C2F0E948B
:1010B000CB0E019789F3F3CFCF93DF93EC010E941E
:1010C0002A08BE010E94CB0EDF91CF9108951F9395
:1010D000CF93DF93EB019091A901992339F0CB01D4
:1010E0000E945C08DF91CF911F910895882369F0D9
:1010F000CB010E942A08182F682FCE010E940608F3
:10110000BE01812F0E94CB0EEDCFCB010E941808AB
:10111000182FF6CF1F93CF93DF93C091D20116E023
:101120008091D3018C1304C0DF91CF911F9108955A
:10113000D0E01C9FF0011D9FF00D1124EC52FE4FDA
:101140004081518162817381848195810E9412075F
:101150002196C770E5CF409104025091050260913D
:1011600006027091070280910802909109020E9484
:10117000120708952091D2019091D30156E02913CE
:1011800002C080E0089530E0529FF001539FF00DBF
:101190001124EC52FE4F7181761306C070817813D2
:1011A00003C07281741304C02F5F3F4F2770E7CFD5
:1011B00081E008951F93CF93DF9380910902807F90
:1011C00009F049C080910602882309F444C0809147
:1011D000D201C091D3016091040270910502A091E7
:1011E0000702B0910802D62FD72316E0C81799F14D
:1011F00090E0109711F0DF3F19F401968770F6CF59
:10120000189F9001199F300D1124F901EC52FE4FE7
:1012100041814713F2CF40814613EFCF4281411104
:10122000ECCF438154814A1B5B0B483C510528F7A6
:10123000809109028F70806180930902F901E75261
:10124000FE4F80818F708061808384E092E00E94F5
:1012500095060E948A08DF91CF911F910895A1E120
:10126000B0E0E5E3F9E00C94DC238C0185E0F801C3
:10127000DE011D9601900D928A95E1F7D801129634
:10128000EC90129784E0A82E82E0B82E40910702DD
:10129000509108024115510509F461C19091040271
:1012A00020910502892F82238F3F09F458C1CC90E9
:1012B0001196DC90119713968D909C901497F09056
:1012C0000602F401E41BF50BFF2009F4F6C080913F
:1012D0000902382F307FE83CF10508F0B0C0311129
:1012E0007BC0FE2CD21217C09C1115C0E11013C098
:1012F0008F708061809309020E94AB08C5010E9433
:10130000950680910902D80115968C938F2D6196D0
:10131000ECE00C94F8238114910429F08D2D8C219C
:101320008F3F09F038C180E080FF15C04E2D6D2D34
:101330008C2D0E94BA08882371F084E092E00E940C
:10134000950686E0E4E0F2E0DF011D928A95E9F778
:101350000E94AB083FC08114910429F08D2D8C218F
:101360008F3F09F015C180E0B82FB170AB2E80FF20
:1013700029C04E2D6D2D8C2D0E94BA08B82E8111DA
:1013800021C0CD86DE868D859E850E945C08292F32
:1013900022952F70223050F0243078F49F7051F055
:1013A000F8019581907F31F4FB2CB0CF9F7011F044
:1013B0008823D1F3805E8830B8F3C8010E94950677
:1013C000BA2CF2CFEE2009F4A1CF809109028160FE
:1013D00080930902F12C9ACFD21205C09C1103C050
:1013E000EE2009F487C0C8010E94F506882319F190
:1013F000EE2009F180910902803270F02091040200
:101400003091050238872F8319869B868A868C87C0
:10141000CE0107960E94950686E0F801A4E0B2E0AE
:1014200001900D928A95E1F70E94DA080E94AB08BC
:10143000FF24F3946BCFC8010E949506F9CF3111B8
:1014400012C0782D998A888AA6016E2D89890E94FA
:10145000080784E092E00E94950686E0F50111926B
:101460008A95E9F775CFD2120FC09C110DC0E1101B
:101470000BC015968C93C8010E94950686E0F50175
:1014800011928A95E9F742CFC8010E94F506882398
:1014900091F2EE2081F280910902803208F4BCCFF3
:1014A00020910402309105023A8329831B829D8298
:1014B0008C828E83CE010196ADCFE83CF10508F019
:1014C00040C0FE2CEE2009F4B6CFD2122CC09C11E5
:1014D0002AC08091090280FD1DC0982F907FD1F015
:1014E00015968C931597903F39F0982F907F905FC9
:1014F0008F70892B15968C93C8010E94950686E003
:10150000F801A4E0B2E001900D928A95E1F70E9403
:10151000AB08FCCE86E0F801A4E0B2E001900D92A9
:101520008A95E1F7F3CEC8010E94F506811174CFC8
:1015300080910902816080930902C8010E9495068A
:10154000E5CE782D998A888AA6016E2D89890E9418
:10155000080786E0F50111928A95E9F7D8CFEE20C9
:1015600009F469CFC8010E94F506F82E882309F412
:1015700062CF86E0F801A4E0B2E001900D928A9576
:10158000E1F784E092E00E9456030E94DA08BFCFA0
:1015900081E08E25E9CE81E08E25C6CEACE0B0E0BC
:1015A000E4EDFAE00C94E5234F83588769877A8746
:1015B0008B879C87CE0107960E942F09882369F0AC
:1015C0008A859B85892B39F04F815885842F852307
:1015D0008F3F09F06BC016E05FC086E0FE013796D2
:1015E000DE01119601900D928A95E1F78A859B851F
:1015F000892B89F388859F8189238F3F61F320910F
:10160000D30130E0C9010196877099274091D2013A
:101610004817190671F40E94D5061092D301109252
:10162000D20186E0E4E0F2E0DF011D928A95E9F75D
:10163000D2CF96E0929FD001939FB00D1124AC526F
:10164000BE4FFE01319601900D929A95E1F780937D
:10165000D3010E948A08BFCF819FC00111248C5200
:101660009E4F0E942F098823E9F0E091D2011E9F2E
:10167000F0011124EC52FE4F40815181628173814F
:10168000848195810E9412078091D20190E0019699
:10169000877099278093D2018091D2019091D301D4
:1016A0008913DACF2C96E3E00C94012469857A85BE
:1016B0008B859C850E9412078ECF682F8091000138
:1016C000909101010E94EC1B0895682F8091000108
:1016D000909101010E94EF1B08958091000190916B
:1016E00001010E94F21B0895809112028595859553
:1016F0008595089580911202877008959091120245
:10170000977081E009F480E0089580911D020895AA
:1017100090911D02892B80931D02089580959091D0
:101720001D02982390931D02089510921D020895A2
:1017300090911C02892B80931C02089580959091B2
:101740001C02982390931C02089510921C02089585
:1017500080911302089508950E94AB0B0895909113
:10176000890292FF08C090911302981721F080938C
:1017700013020E94AC0B089580911302882329F074
:101780001092130280E00E94AC0B0895CF93DF9378
:10179000E0910001F091010180911D028083E091B0
:1017A0000001F0910101808190911C02892B8083BE
:1017B00090911302992381F0E0910001F0910101D1
:1017C0008081892B808380910001909101010E948A
:1017D000A41B81110E94BC0BC0910001D09101019A
:1017E00048E050E06AE072E0CE010E942124892B9B
:1017F00059F088E0FE01AAE0B2E001900D928A95CE
:10180000E1F7CE010E94411BDF91CF910895089529
:101810000E94070C08959091890292FF11C098E0F0
:10182000899F90011124622B609312020E94640729
:10183000809112028595859585950E94080C0895E2
:101840000E94640708951092120280E00E94080C22
:101850000895909112028095892380931202282F77
:10186000277091F4282F082E000C330B92171306C3
:1018700059F09091890292FF07C0859585958595CD
:101880000E9474070E94230C08959091890292FB94
:10189000222720F9281769F080FB92F9909389029A
:1018A00080918802909189020E948D0C82E00E94B2
:1018B000290C08958091890282FB882780F991E0A4
:1018C00089270E94450C089581E00E94450C0895E7
:1018D00080E00E94450C08956FEF7FEF90E080E07C
:1018E0000E946324089590E080E00E943F2421E05C
:1018F000873E9E4F09F020E0822F089582E090E01D
:101900000E943724089583E090E00E9437240895D0
:1019100084E090E00E943F240895BC0184E090E0C0
:101920000E9463240895AB01BC018FE090E00E9407
:1019300057240895AB01BC0183E190E00E94572435
:10194000089560E070E0CB010E949A0C089560E079
:1019500070E0CB010E94930C0E94A10C089567EEE9
:101960007EEF90E080E00E94632460E082E090E0FF
:101970000E94452460E083E090E00E94452410929C
:10198000D1011092D00160E074E184E090E00E9407
:10199000632460E086E090E00E9445246FEF87E0DA
:1019A00090E00E94452440E050E0BA0188E090E0D9
:1019B0000E94572460E08DE090E00E94452440E0C2
:1019C00050E0BA0188E190E00E94572460E087E18E
:1019D00090E00E94452440E050E0BA018CE190E0A4
:1019E0000E94572470E060E080E290E00E9463244F
:1019F00040E050E0BA0188E190E00E9457240E9444
:101A0000A70C08950E94AF0C0895682F8EE090E017
:101A10000E94452408950E94B41C60933002709384
:101A20003102809332029093330260932C027093C0
:101A30002D0280932E0290932F0208950895089509
:101A40000E941F0D089508950E94230D089585EFAB
:101A50009FE00E94231B0E941E0D0E94200D0895EE
:101A60000E94C1110895089508950E94330D0E94A7
:101A7000340D08950E94F80F0E94F50208950E9407
:101A80009F1C0E94B50F0E94DC110E9422110E942F
:101A90003A0D0E9456160E94E6110E94240D0895E8
:101AA000AAE0B0E0E6E5FDE00C94DE230E944511DB
:101AB00080E2A82E82E0B82E750110E0F7010191B6
:101AC0007F01812F0E941E101F5F1C3009F440C04F
:101AD0000817A1F38091340281FD0E9424100E9416
:101AE000300DC82E10E0812F0E941E10082FF50126
:101AF00081915F01081731F1F12CEE24E394D02E8F
:101B0000D8268D2D8E21B1F0CC20A1F0FE821F832E
:101B100091E0802F8E2109F490E098870E94A81C04
:101B20008160782F9A8789874E815F8168858A8551
:101B30000E942103F394EE0CF6E0FF12E2CFF501D0
:101B4000319700831F5F1C3071F60E940B0D20C07F
:101B50000813C0CF0E94A81C8C0180911E02909196
:101B60001F0208171907A1F08FEF89838A831B8250
:101B70000E94A81C8160782F9D838C8349815A81A3
:101B80006B818D810E94210310931F0200931E021E
:101B90000E94C1110E945A150E9408032A96EAE089
:101BA0000C94FA23CF93DF930E94D00EEC018115A1
:101BB00020E59207D0F5811530E4930708F086C040
:101BC000803E910518F58D3C910508F07DC0883A5E
:101BD000910570F4853A910508F06EC08130910549
:101BE00001F10097F1F00497E0F4D0E0C0E019C0F3
:101BF000813C9105D0F7C85AD0E0CC0FDD1FC15A07
:101C0000DE4F0990D881C02DD4640BC0811590425D
:101C100008F0A8C0C11581E0D80718F4C83ED10566
:101C200020F7CE01DF91CF910895803622E592070B
:101C300010F5803432E5930708F052C080329245A7
:101C400008F047C0C11582E5D80708F47DC02C2FE5
:101C50002695269540E2249F900111248C2F8370B5
:101C6000C1E0D0E002C0CC0FDD1F8A95E2F7C22BA5
:101C7000D32BDD68D6CF803A22E5920760F4803816
:101C800032E5930708F441C0CF71D0E0DC2FCC27B8
:101C9000C46FD06AC6CF803C42E5940708F449C0BF
:101CA000C03E82E5D80708F0A0CFDC2FCC27CC2798
:101CB000DF71C06FD06AB5CFC55AD0E0CF56DE4FC6
:101CC000C881D0E0D064ADCFD065ABCFDF70D06A33
:101CD000A8CFCF71D0E0DC2FCC27C16FD06AA1CFC5
:101CE000282F26952695277080E2289F90011124A1
:101CF0008C2F8370C1E0D0E002C0CC0FDD1F8A952D
:101D0000E2F7C22BD32BDC688CCF282F26952695A3
:101D1000277040E2249F900111248370C1E0D0E03D
:101D200002C0CC0FDD1F8A95E2F7C22BD32BDA68F5
:101D300078CF8F710E94720FC82FD0E0DC2FCC2794
:101D4000CC27DF71D0626DCF8C2F8F710E94720F04
:101D500035E0D695C7953A95E1F7CF709C2FEC0109
:101D6000D0695FCF8D2F8F710E94720F90E0982FF6
:101D7000882788279F719C012C2BE901E3CF462FF0
:101D80007C3030F4663020F4672F0E940E020895F4
:101D900090E080E008950E94BF0E0E94D20D089549
:101DA00082389105B9F1B0F48133910509F47DC011
:101DB00048F48932910509F46DC08A32910509F41D
:101DC0007BC008958533910509F45FC0893391057F
:101DD00009F10895833E9105D9F138F4803E9105CB
:101DE00029F1823E910579F10895863E9105D9F158
:101DF000873E910509F43EC0843E910541F520914E
:101E0000890221FF24C08091880284FD19C087EED9
:101E100090E0089520918802237009F05AC0209123
:101E2000890223FF14C089E290E00895209188027E
:101E300020FD38C03091890230FF09C024FF43C023
:101E400090E080E008952091880222FDF7CF089568
:101E50002091880222FD3AC03091890230FD39C0BC
:101E600024FFF5CFEDCF2091880223FFF0CF24FD92
:101E7000E7CFCDCF2091880223FD2EC0309189027B
:101E800031FFEECF84EE90E008952091880225FF87
:101E9000DECFC9CF2091880225FD21C02091890283
:101EA00023FFD5CF89E390E0D2CF2091880226FF8F
:101EB000CECF8AE290E008952091880226FFC7CF16
:101EC00081E390E0089583EE90E0089582EE90E043
:101ED000089580EE90E0089586EE90E0089585E301
:101EE00090E008959091880292FF06C0282F2871F3
:101EF0002830F9F4877F846093FF06C0282F28716B
:101F00002831F1F4877E84612091890220FF06C088
:101F1000382F38713830D9F4877F816021FF06C0AF
:101F2000282F28712831D1F4877E816194FD877E26
:101F30000895282F24712430F9F68B7F8860DCCF38
:101F4000282F2471243101F78B7E8861DDCF382F53
:101F50003171313019F78E7F8860E0CF282F2171E1
:101F6000213121F78E7E8861E1CF10928402109298
:101F7000850210928602109287020895CF92DF9216
:101F8000EF92FF926B017C010E94C11181110EC082
:101F90000E94B41CC61AD70AE80AF90AC092840241
:101FA000D0928502E0928602F0928702FF90EF9035
:101FB000DF90CF9008950F931F930E94C111882343
:101FC00029F00E94B41C1F910F9108950E94B41C27
:101FD000009184021091850220918602309187023F
:101FE000600F711F821F931FEECF80E00895089548
:101FF0000E94730C811102C00E94020D0E947E0C8F
:10200000809334020E94880C909389028093880206
:102010000E94F70F0E94830C90E00E942807809195
:10202000CE019091CF010E944907089508950E9422
:102030001610089508950E941A100895E82FF0E0F0
:10204000E956FD4F80810895089580EA8A95F1F759
:10205000089500C008950E942510089508950E94D3
:102060002E100895A6E0B0E0E8E3F0E10C94E2233E
:102070000E94C111F82E6091A302882309F440C088
:1020800086E0E82E8E010F5F1F4FF8018E2D119212
:102090008A95E9F7862F90E0B80189569D4F0E94F6
:1020A000F4118823B9F080918A0290E046E050E074
:1020B000B80189569D4F0E94212421E020933502CA
:1020C000892B91F4F12C0E9463028F2D2696E6E075
:1020D0000C94FE23809135028823A1F3F80111921C
:1020E000EA94E9F710923502A0918A02B0E0A9566D
:1020F000BD4F86E0F80101900D928A95E1F7E3CF9C
:1021000070E069567D4F80918A0290E089569D4F1C
:102110000E947B120E942F10D8CFF894E82FE295EE
:10212000EF70F0E031A1282F2F7081E090E001C026
:10213000880F2A95EAF7982F9095932391A392A15F
:10214000892B82A3789408950F931F93CF93DF93E5
:10215000CAE9D1E089918F3F11F00E948D1081E092
:10216000C03AD807B9F7C4E9D1E00AE911E089918A
:102170008F3F11F00E948D100C171D07C1F7DF91E2
:10218000CF911F910F910895B0E0A0E0EAECF0E14B
:102190000C94E023EC01D62E062F10E0C8018656E1
:1021A0009E4F7C01FC0180818F3F09F444C0F8946C
:1021B000E82FE295EF70F0E091A18F7021E030E020
:1021C00001C0220F8A95EAF7892F822B81A382A171
:1021D0002095282322A378940E942910E4E9F1E0B5
:1021E00031E0C12C21912F3F59F1A22FA295AF7060
:1021F000B0E090968C9190E02F7002C095958795F5
:102200002A95E2F780FD1CC0832FC82A330F81E096
:10221000EA39F80739F7F70180818F3F11F00E9402
:102220008D1061E0C11001C060E08D2D0E942B1067
:10223000C00FD11FC882CDB7DEB7E8E00C94FC23F5
:1022400080E0E3CF809102018091020196E081114C
:1022500090E09093A30286E0891B80938A020E94FB
:10226000A4108CE0E7E9F2E0DF01982F1D929A9527
:10227000E9F7EBE8F2E0DF011D928A95E9F786E0E5
:102280000E9483110E9460020895ACE0B0E0EBE48C
:10229000F1E10C94E3238E010F5F1F4F8CE0F801F6
:1022A00011928A95E9F7F12C6F2DC8010E94C41094
:1022B000F394F6E0FF12F8CF4CE050E0B8018BE861
:1022C00092E00E94212421E0009709F420E0892B6C
:1022D00041F08CE0F801ABE8B2E001900D928A95F4
:1022E000E1F76091A30270E069567D4F46E08BE80C
:1022F00092E00E948411182F0E943210812B2C969C
:10230000E5E00C94FF230895CF92DF92EF92FF92C5
:102310000F931F93CF936C017B01042F222349F06D
:1023200081E0809338020E94A81C9093370280932A
:102330003602C0913802C1110AC0C0E08C2FCF9183
:102340001F910F91FF90EF90DF90CF9008958091B3
:102350003602909137020E94C01C059770F310E07E
:10236000A801B601C7010E942124892B41F0A801D0
:10237000B601C7010E942E2410923802DFCFC0E0C0
:10238000FBCF80913B02811107C00E94AF238823BD
:1023900051F081E080933B0281E090913B029130CB
:1023A00009F080E0089582E080933B020E94AA2316
:1023B000F3CF0E94C11108950E94D91180930201A8
:1023C0000E94C11181110E942A1208950E94C11118
:1023D000811102C00E942D12089581E090913C026B
:1023E0009A3008F080E008950F931F93CF93DF9306
:1023F000EC018B0180913C028A30B8F4B801CE0127
:102400000E947812C82F811122C080913C028F3F18
:10241000B9F40E94A81C90933A02809339028C2F41
:10242000DF91CF911F910F91089580913902909182
:102430003A020E94C01C843F914000F7C0E0EFCFF9
:102440008F5F80933C028A3020F7C1E0E8CF109282
:102450003C02E5CF0E94C11908950E94C419089555
:10246000B0E0A0E0E6E3F2E10C94E1237901C82FAB
:10247000880FDD0B41155105A9F0FE0193E0EE0F29
:10248000FF1F9A95E1F7ED5FFE4F81819281835C9A
:102490009D4F208130E04217530708F49A01A901AB
:1024A0000E942E24CE010E94AD1AD82E8823D1F08E
:1024B00001151105B9F083E0CC0FDD1F8A95E1F716
:1024C000FE01ED5FFE4F438150E00417150708F44D
:1024D000A801CD5FDE4F6C817D81635C7D4FC701BC
:1024E0000E942E248D2DCDB7DEB7E7E00C94FD239E
:1024F0000E946A1308950E9481130895A4E0B0E039
:10250000E4E8F2E10C94E4236091560270915702E2
:1025100080915802909159020E94CF1C11E06436BC
:1025200071058105910518F10E94DB0F6E5F7F4FE9
:102530008F4F9F4F69837A838B839C8310E000E0E9
:1025400030E020E044E050E0BE016F5F7F4F82E06A
:102550000E943012182F882351F00E94B41C6093FF
:102560005602709357028093580290935902812F1C
:102570002496E4E00C940024B0E0A0E0E2ECF2E168
:102580000C94DE237C015B016A010E94ED1101E0E5
:1025900010E0882311F00AE010E0C1E0D0E0B501BE
:1025A000C701F6010995811104C021960C171D077A
:1025B0002CF4CDB7DEB7EAE00C94FA23CC9F90015F
:1025C000CD9F300D300D112490E080E045E34A9519
:1025D000F1F70000019682179307C1F7E0CFA7E05B
:1025E000B0E0E5EFF2E10C94DE237B01C090A001A6
:1025F000D090A10101E010E09E01295F3F4F50E023
:1026000040E070E060E080E00E943012182F8823E4
:1026100009F448C056018FEFA81AB80A6091520217
:102620007091530280915402909155020E94CF1CE8
:10263000643671058105910568F106E010E09E01A0
:102640002F5F3F4F50E040E070E060E081E00E948B
:102650003012D82E66E070E0C5010E94571611E0D6
:102660009F81981310E01D2141F10E94B41C6093DA
:10267000520270935302809354029093550286E065
:10268000FE013196ACE4B2E001900D928A95E1F73B
:1026900011E013C066E070E0C5010E9457169F81EB
:1026A0008913CBCF86E0F6013196DE0111960190B9
:1026B0000D928A95E1F71111E2CF86E0ECE4F2E0A9
:1026C000D70101900D928A95E1F7812F2796EAE0D4
:1026D0000C94FA230F931F93CF93DF93EC018B019C
:1026E0004FEE52E10E94BC12882331F04EE752E1D6
:1026F000B801CE010E94BC12DF91CF911F910F91C2
:1027000008950F931F93CF93DF93C091A001D091B1
:10271000A101CE01019626E0FB01DC0101900D92A2
:102720002A95E1F766E070E00E94571688836F8172
:10273000788589859A8500914802109149022091F7
:102740004A0230914B02601771078207930751F0DC
:10275000609348027093490280934A0290934B021F
:102760000E94BE0FDF91CF911F910F9108950E949B
:10277000851E0E943F0D0E94921E08950E94971E82
:102780000E94500D0E94B11E08950E94411C0E949B
:102790006B1E0E94270D0E94B7130E94BE130E9459
:1027A000350DFBCF8091620280FF0DC060911F014B
:1027B00070E0660F771F6038710570F5611571055F
:1027C00069F1862F089581FF07C060911F0184E0A1
:1027D000689FB0011124EFCF60911F0182FD0AC0F4
:1027E000809161028823A9F020911E0160911F0150
:1027F000821710F088E0ECCF869FC001112433E0EF
:10280000880F991F3A95E1F7622F70E00E94BC2370
:10281000D2CF68E070E0D5CF8FE7089581E00895CA
:102820008091620280FF0CC060911C0170E0759580
:102830006795759567956115710549F1862F08951E
:1028400081FF06C060911C0170E075956795F3CF1C
:1028500060911C0182FD0BC0909160029923A1F050
:1028600060911B0180911C01961738F0682F70E071
:102870006038710500F38FE70895899FC001112426
:1028800070E00E94BC23F4CF61E070E0D7CF81E01C
:1028900008958D3C31F40E94D21381958093660295
:1028A00008958E3C19F40E94D213F8CF8F3C31F476
:1028B0000E94D2138195809365020895803D19F49A
:1028C0000E94D213F8CF893D29F40E9410148093FE
:1028D000670208958A3D21F40E9410148195F7CF74
:1028E0008B3D31F40E941014819580936802089505
:1028F0008C3D19F40E941014F8CF9FE2980F983085
:1029000070F4815D990B21E030E001C0220F8A95BF
:10291000EAF780916402822B8093640208958D3DD2
:1029200031F48091620281608093620208958E3D4D
:1029300021F4809162028260F7CF8F3DB9F78091D8
:1029400062028460F1CF409165028D3C59F4809120
:10295000660287FF0DC01092660241110BC01092F3
:10296000610208C08E3C81F48091660218169CF3C7
:10297000442381F08091670290916802892B09F0CD
:102980005AC01092600208958F3C49F447FFF0CF7F
:1029900010926502809166028111ECCFE0CF803DFC
:1029A00019F41416ACF3E4CF90916702893D29F431
:1029B0001916F4F610926702DBCF8A3D19F497FFDF
:1029C000D7CFF8CF909168028B3D29F497FFD0CFF5
:1029D00010926802CDCF8C3D19F41916CCF3C8CFF4
:1029E0009FE2980F983090F4815D990B21E030E0E0
:1029F000B90102C0660F771F8A95E2F7CB01809577
:102A000090916402892380936402B2CF8D3D31F4AA
:102A1000809162028E7F80936202AACF8E3D21F464
:102A2000809162028D7FF7CF8F3D09F0A1CF809119
:102A300062028B7FF0CF08950E94A81C9C019091A8
:102A4000650280916602982B21F030935F022093FB
:102A50005E029091670280916802982B21F030937A
:102A60005D0220935C0283E692E00E944C1B089575
:102A700086E0E3E6F2E0DF011D928A95E9F7109225
:102A8000610210926002109262020895FC0182813C
:102A900081110EC0838181110BC08481811108C016
:102AA00091E08581811101C090E0892F81700895A6
:102AB00081E0FCCFA6E0B0E0E0E6F5E10C94E52390
:102AC00086E0E3E6F2E0DE01119601900D928A9530
:102AD000E1F710926502109266021092670210925E
:102AE00068028B819C81892B89F080915E02909194
:102AF0005F020E94C01CAC01909161029923C9F150
:102B0000809120018417150608F440C08D819E81B4
:102B1000892B91F080915C0290915D020E94C01C13
:102B2000AC0190916002992309F471C080911D015C
:102B30008417150608F479C0BE016F5F7F4F83E6E6
:102B400092E00E94F91B811105C083E692E00E9489
:102B5000461581110E941C1586E0FE013196A3E600
:102B6000B2E001900D928A95E1F72696E3E00C948D
:102B7000012420915B028AE0289F900111242417F0
:102B8000350720F69F5F9093610202C09F3FD1F707
:102B90001B81112359F00E94D2139FEF11160CF4E0
:102BA00091E0899F802D1124809365021C8111235F
:102BB00059F00E94D2139FEF11160CF491E0899FF7
:102BC000802D11248093660230916502332309F42D
:102BD0009DCF20916602222309F498CF45EB340360
:102BE000C0011124992359F09093650245EB240309
:102BF00090011124332339F03093660287CF81E0AE
:102C000080936502F3CF81E0809366027FCF2091AD
:102C10005A028AE0289F900111242417350708F0F2
:102C20008BCF9F5F9093600202C09F3FD1F71D81C1
:102C3000112359F00E9410149FEF11160CF491E02B
:102C4000899F802D1124809367021E81112359F0E2
:102C50000E9410149FEF11160CF491E0899F802DB3
:102C600011248093680230916702332309F464CF02
:102C700020916802222309F45FCF45EB3403C001A1
:102C80001124992359F09093670245EB2403900196
:102C90001124332339F0309368024ECF81E08093C2
:102CA0006702F3CF81E08093680246CF0895FC016C
:102CB000680F791F8FEF91E3E617F70709F408957E
:102CC0002191822728E030E087FF06C0880F8927FE
:102CD00021503109C9F7F0CF880FFACFCF93DF9396
:102CE000EC01FB018281882309F4D2C09E01305798
:102CF0002332310508F0B2C00E94880C90938902FB
:102D000080938802FE01E150F047E232F10520F4A1
:102D1000E957FB4D0C94D023809188028160809309
:102D2000880293C0809189028860809389028DC057
:102D3000809188028260F3CF809188028460EFCF17
:102D4000809188028860EBCF809189028160EDCF0D
:102D5000809189028260E9CF809188028061DFCF13
:102D6000809188028062DBCF809188028064D7CF17
:102D70000E94D506809188028068D1CF8091880218
:102D80008C60CDCF809189028360CFCF8091880203
:102D90008E7FC5CF80918902877FC7CF80918802BF
:102DA0008D7FBDCF809188028B7FB9CF80918802C3
:102DB000877FB5CF809189028E7FB7CF80918902BE
:102DC0008D7FB3CF809188028F7EA9CF80918802BA
:102DD0008F7DA5CF809188028F7BA1CF0E94D506E1
:102DE000809188028F779BCF80918802837F97CFD5
:102DF000809189028C7F99CF8091880282FB9927EC
:102E000090F921E0922790FB82F990FB83F987CF1C
:102E100080918902982F909591708E7F892B90FBDD
:102E200081F983CF90918802892F8F7B96FF8064F0
:102E300076CF0E94D50690918802892F97FB87F95B
:102E400080586DCF81E00E94050D8091880290919D
:102E500089020E948D0C0E94D50680E0DF91CF91FF
:102E6000089580E0F0CF90918802892F8F7E94FFA3
:102E7000806155CF90918802892F8E7F90FF81606D
:102E80004ECF90918902892F877F93FF88604DCF25
:102E900081E0E4CF8B3109F465C040F58B3071F0EF
:102EA00078F4863009F447C020F4853059F180E089
:102EB0000895873009F448C08830C9F781E0089543
:102EC000803109F45DC068F48E3089F79091340246
:102ED000892F8B7F92FF84608093340282FD4CC0E7
:102EE000EDCF863159F3893149F3E1CF8A3201F1CF
:102EF00060F48732B1F020F48E31C8F28D514CC0AD
:102F00008932A9F60E947502D9CF833440F48A33FE
:102F100008F041C0853329F0883381F2C8CF83346B
:102F200031F681E090E00E9428070E94D506C6CFC6
:102F30000E94020DC3CF80913402807F80933402BF
:102F400081E080936C02089590913402892F8E7FE6
:102F500090FF81608093340280FDB0CF817F8093A9
:102F60003402ACCF90913402892F8D7F91FF826023
:102F70008093340281FFA2CF809134028160EFCF31
:102F800090913402892F877F93FF88608093340269
:102F900083FDF2CF93CF895321E030E0A90102C035
:102FA000440F551F8A95E2F7CA01BDCF80E008950E
:102FB0000E94D6170895CF93C82F80916C0281305C
:102FC000B9F0882331F08230A1F110926C0280E0D8
:102FD0000DC00E94850B8232D1F78C2F0E94D6172C
:102FE00081111BC08C2F0E944A178170CF910895C8
:102FF0000E94850B823289F38C2F0E94D817811191
:103000000AC0C43199F060F4CB3029F0C03169F7BF
:1030100082E080936C0281E0E8CF81E090E0E5CF30
:10302000C93221F0C833B9F380E0DFCF10926C02CF
:10303000FBCFC93209F43FC0E8F4C431E1F128F410
:10304000C73009F45BC081E0D1CF82EE8C0F8A30AB
:10305000D0F7CD51C0936B02C33009F446C0B0F530
:10306000C13009F43FC080E291E0C230B1F110926A
:103070006B02E9CFC03509F452C0B8F48AE0CF340E
:1030800011F7E0916902F0916A023097E1F2208134
:10309000082E000C990B820F911D8F3F910509F0AE
:1030A0000CF441C08FEF8083CECFC135D1F181E0E8
:1030B000C23539F39BCF80916B02882321F21092A5
:1030C0006B0210926A0210926902BDCFC53099F06E
:1030D00078F08BE191E0C63051F690936A028093CC
:1030E0006902B1CF8BE592E0F8CF8FE191E0F5CFA7
:1030F0008EE191E0F2CF8CE191E0EFCF10925B0294
:1031000084E180932001C0931F018CE380931E0112
:1031100088E080931C0188E280931B0194CF86EFA6
:10312000B0CF8FEFAECF97FFBECF10828CCFCF93B3
:10313000DF93EB0186319C4711F50E94850B9A8144
:10314000992399F08A7A91E009F490E090936D02C6
:10315000811109C089E20E945D0B0E94C60B80E0CC
:10316000DF91CF91089585E3F6CF80916D028111B3
:1031700004C089E20E94650BF0CF85E3FBCF81E0BC
:10318000EFCF0F931F93CF93DF93C42FD22FFC0168
:1031900082818823C9F0409370020E94A81C9093FA
:1031A0006F0280936E0280E28C0F883040F4C7700B
:1031B00081E001C0880FCA95EAF70E947804DF9188
:1031C000CF911F910F91089510917002141332C086
:1031D00080916E0290916F020E94C01C883C910504
:1031E00048F5C0E2CD0F1D17B9F080E2810F88309D
:1031F00040F4177081E001C0880F1A95EAF70E9429
:103200007F04C83048F481E09D2F977001C0880F7B
:103210009A95EAF70E947804802F0E946F04C830C4
:1032200070F6D77081E001C0880FDA95EAF70E9446
:103230007F04C5CF80E28C0F883008F6C77081E02C
:1032400001C0880FCA95EAF7F2CF0F93DB018851CE
:103250009C4787309105A0F5FC01E755FB4D0C9488
:10326000D02306E221EE41EE6AE17CE7CD010E9427
:10327000C11880E00F91089507E225EE45EE6BE15D
:103280007CE7F4CF06E221EE40EE68E17CE7EECF8A
:1032900007E225EE44EE69E17CE7E8CF06E221EEA5
:1032A00042EE6CE17CE7E2CF07E225EE46EE6DE10F
:1032B0007CE7DCCF08E221E045EE6EE17CE7D6CF8B
:1032C00012968C91882319F010927002D3CF81E06E
:1032D000D1CF8EE1489B02C08150E1F7489BFECFE1
:1032E0000895589880E28A95F1F7589A0895FC015C
:1032F0003BE03A95F1F798E020E080E031E040E1F2
:103300004A95F1F7880F489B02C08160232742E06D
:103310004A95F1F7000040E14A95F1F7915079F7AD
:1033200090E19A95F1F799B132E03A95F1F7000002
:1033300040E14A95F1F7917092272081920F908396
:103340000895A1E0B0E0E7EAF9E10C94E2231982E4
:103350008C017C01E60EF11C0E151F0541F481E085
:103360009981911180E02196E6E00C94FE230E9461
:103370006919CE0101960E947719F80181938F0196
:10338000EBCF509A589A08955098589AE89AE9E6DF
:10339000F0E080818C7F808308956150770B91E00D
:1033A00001C0990F6A95EAF720E031E0911108C059
:1033B000222391F0589A80E28A95F1F7589808955F
:1033C000492F482339F0589A232740E24A95F1F7CC
:1033D0009695ECCF5898F9CF5898EDCFFF920F9370
:1033E0001F93CF93DF93EC018C01060F111DC017C3
:1033F000D10729F4CDB7DEB7E5E00C94FF23F990AF
:103400000E94711968E08F2D0E94CD19F0CF1F9294
:103410000F920FB60F9211240F931F932F933F9388
:103420004F935F936F937F938F939F93AF93BF93CC
:10343000EF93FF93CF93DF930F92CDB7DEB719824F
:103440000E946919CE0101960E947719082F0695EE
:1034500006950695282F22952570902F9570290F97
:10346000922F937026952695920F982797708981B1
:10347000982B09F05CC0043008F059C080E18A95AF
:10348000F1F7589A509A82E08A95F1F700C058985F
:1034900088E0089F80011124D801AD5FBE4F1696C9
:1034A000ED91FC9117973097A9F06091A001709170
:1034B000A10114962D913C911597260F371F119657
:1034C0008D919C911297680F791F13964C911397C9
:1034D0008C910995F801ED5FFE4F6381662351F0F1
:1034E0002091A0013091A10184819581820F931FC9
:1034F0000E94EE190E94711980E18A95F1F758989F
:103500005098589A80E18A95F1F7F801ED5FFE4FE7
:103510006081662351F02091A0013091A101818149
:103520009281820F931F0E94A1190E9469190F9026
:10353000DF91CF91FF91EF91BF91AF919F918F91CB
:103540007F916F915F914F913F912F911F910F91BB
:103550000F900FBE0F901F9018950F931F93CF934E
:10356000DF93EC0104970CF04CC0F894509A5898F3
:1035700085E08A95F1F700009C2F969595708C2F29
:103580008570980F892F83709695969523E0CC0FC0
:10359000DD1F2A95E1F7980F8E01092B0E94711902
:1035A00000C068E0802F0E94CD1980E18A95F1F774
:1035B0005098589A489B1EC087E090E048991CC0DC
:1035C000FE01ED5FFE4F63816623F9F02091A001BB
:1035D0003091A10184819581820F931F0E94A119CE
:1035E000811113C0509A589A7894DF91CF911F910E
:1035F0000F91089500C0DECF019729F4509A589A90
:10360000789480E0F2CF00C0D9CF0E94691980E29F
:103610008A95F1F75898509A80E18A95F1F7CD5F35
:10362000DE4F6881662351F02091A0013091A10105
:1036300089819A81820F931F0E94EE190E9471194D
:10364000789481E0D2CF9093A3018093A201089552
:10365000909377028093760208950E94C1118111A0
:1036600003C0809171020895E0917602F091770293
:10367000309729F00190F081E02D0995089580E0C0
:103680000895E0917602F0917702309721F0028060
:10369000F381E02D09950895E0917602F09177028B
:1036A000309739F022E0DC012C930480F581E02D85
:1036B00009950895A3E0B0E0E0E6FBE10C94E62371
:1036C000209174023091750228173907A1F0909368
:1036D000750280937402E0917602F0917702309740
:1036E00051F023E029839B838A830680F781E02DB4
:1036F000CE01019609952396E2E00C940224A3E002
:10370000B0E0E5E8FBE10C94E623209172023091F1
:10371000730228173907A1F0909373028093720205
:10372000E0917602F0917702309751F024E02983FE
:103730009B838A830680F781E02DCE01019609954F
:103740002396E2E00C9402249C012E5F3F4FAC01D3
:10375000485F5F4F80E02417350709F40895F901A9
:1037600091919F019923B9F38F5FF5CF662349F0BB
:10377000FC01329608962191261729F0E817F907DF
:10378000D1F780E0089581E008959C01FC01329614
:103790009FEF80E04191461751F09F3F19F441118E
:1037A00001C0982F8F5F8630A9F79F3F09F40895D5
:1037B000290F311D97FD3A95F90162830895FC01A7
:1037C000329608962191261303C0DF0111971C92AF
:1037D000E817F907B9F708950E94C51B08950E94DC
:1037E000DF1B0895029626E0FC0111922A95E9F765
:1037F000089546E050E00E94212421E0892B09F43D
:1038000020E0822F089508950E94031C08958111DD
:1038100006C081E0809378020E94041C089582E033
:10382000F9CF83E0809378020E94041C08950E94DF
:10383000071C089581E0809378020E94041C08957B
:103840000E941A1C0895089508950E94241C08954A
:10385000089508950E94231C0895CF930E94281C68
:103860000E9445110E94291CC0E08C2F0E941E104E
:10387000811105C0CF5FCC30C1F7CF91089581E0B1
:10388000FCCF85B7806885BF85B7806885BF089500
:103890001F921FB61F9211248F939F93AF93BF93D4
:1038A00080917902811113C08091A4029091A502A8
:1038B000A091A602B091A7024196A11DB11D8093CF
:1038C000A4029093A502A093A602B093A702BF9171
:1038D000AF919F918F911F901FBE1F90189580915F
:1038E000AC02843031F10E94D5021092790288E155
:1038F00090E020E40FB6F894A895809360000FBE86
:103900002093600083B7817F846083BF83B7816029
:1039100083BF7894889583B78E7F83BF0FB6F89462
:10392000A89580916000886180936000109260008B
:103930000FBE08950E94D5060E94DA02089582E023
:1039400084BD93E095BD9AEF97BD80936E00089576
:103950002FB7F8948091A4029091A502A091A6029D
:10396000B091A7022FBF08952FB7F8946091A402D9
:103970007091A5028091A6029091A7022FBF089591
:103980009C014FB7F8948091A4029091A502A09158
:10399000A602B091A7024FBF821B930B0895CF924E
:1039A000DF92EF92FF922FB7F894C090A402D090CC
:1039B000A502E090A602F090A7022FBFA7019601F2
:1039C000261B370B480B590BCA01B901FF90EF902A
:1039D000DF90CF90089578941F921FB61F92112404
:1039E0008F939F93AF93BF938091A4029091A50270
:1039F000A091A602B091A7020196A11DB11D8093CE
:103A0000A4029093A502A093A602B093A702BF912F
:103A1000AF919F918F911F901FBE1F90189587E7C0
:103A200097E7909301088093000888E19AE00FB629
:103A3000F894A895809360000FBE90936000FFCF2C
:103A400088E19AE00FB6F894A895809360000FBEC5
:103A500090936000FFCF8091820208959B01BA018C
:103A60009091AC029430E9F48F708093E9009FEF5D
:103A70008091E800915085FD06C085ED8A95F1F7AB
:103A800000009111F5CF8091E80085FF0AC050E059
:103A900040E0C9010E94231F8091E8008E77809347
:103AA000E800089543E050E0BC0182E00E942E1D32
:103AB000089546E050E0BC0182E00E942E1D08956A
:103AC000CF93DF93EC0148E050E0BC0181E00E941D
:103AD0002E1D88E0FE01AAE7B2E001900D928A95C2
:103AE000E1F7DF91CF9108958091AB02811109C078
:103AF0000E94B3200E9410218091E2008460809394
:103B0000E20008951092AB0208950E941A1C0895D5
:103B10006091A80281E0611101C080E00E94111C47
:103B200008959091AC0281E0943009F080E06091BA
:103B3000A8020E94171C089542E061EC81E00E94F7
:103B40002F2042E261EC82E00E942F209091AC0293
:103B500081E0943009F080E06091A8020E94071C87
:103B600008958091AE02833009F461C030F4813051
:103B7000D1F1823009F49EC008958A3009F48AC0D8
:103B80008B3009F46FC0893009F050C08091AD02CC
:103B9000813209F04BC08091B1029091B20202973C
:103BA00008F044C08091E800877F8093E80080910E
:103BB000E80082FF37C09091F3008091F2000297F5
:103BC00031F48091F100813011F0863021F4809140
:103BD000F100809382028091E8008B778093E80067
:103BE0000E94632023C08091AD02813AF9F4809154
:103BF000E800877F8093E8008091B1029091B20243
:103C0000892B61F468E08AE792E070E00E94721FFD
:103C10008091E8008B778093E800089560E090E061
:103C200080E0F3CF8091AC028111C1CF08958091E3
:103C3000AD02813AD9F78091B1029091B202892BFD
:103C4000A9F78091E800877F8093E8008091E800E1
:103C500080FFFCCF809129018093F1008091E800E2
:103C60008E77BCCF8091AD02813201F78091B10295
:103C70009091B202892BD1F68091E800877F8093E2
:103C8000E8000E9463208091AF02809329010E9486
:103C9000D50608958091AD02813241F68091E80009
:103CA000877F8093E8000E9463208091B002809318
:103CB000830208958091AD02813A09F0B7CF8091D7
:103CC000E800877F8093E8008091E80080FFFCCFC8
:103CD00080918302C1CF84B7877F84BF0FB6F894E9
:103CE000A8958091600088618093600010926000C8
:103CF0000FBE80E890E00FB6F89480936100909337
:103D000061000FBE0E94201C08950E94B3200E94F3
:103D10001021E2EEF0E080818460808378940E943C
:103D20008F23089581E291E00E94281B08958091DD
:103D3000AC02853031F48091AC02853019F00E94DC
:103D40009A1C08950E946F1C8091AA02882399F3FF
:103D50000E942D1C882379F30E940D1F0E94D50616
:103D6000EACF08950E94B51E0895292F33272330E6
:103D7000310519F168F42130310509F444C02230CD
:103D8000310509F445C090E080E030E020E025C036
:103D90002132310549F122323105A9F780E490E062
:103DA00026E633E061157105C1F08BE790E02BEE5C
:103DB00032E06130710589F0E6CF992781309105B5
:103DC00081F0009729F00297F1F6ECE5F2E002C0ED
:103DD000EAE9F2E0849190E09F01FA0131832083C7
:103DE0000895EAE8F2E0F6CF89E090E020EB32E0D7
:103DF0006115710591F389E090E029EC32E06130C2
:103E0000710559F3C0CF82E190E029ED32E0E5CFB2
:103E10008BE390E02EE932E0E0CF80E189BD82E1E2
:103E200089BD09B400FEFDCF8091D8008F7D8093BD
:103E3000D8008091E00082608093E0008091E000F3
:103E400081FDFCCF0895AF92BF92CF92DF92FF9297
:103E50000F931F93CF93DF936C01EB018A010E94B4
:103E60008220F82E811123C00115110539F0F801C7
:103E700080819181C81BD90BC80ED91EB12CA12CF1
:103E80002097A9F08091E80085FD22C08091E8008C
:103E90008E778093E80001151105A1F0F80180816B
:103EA0009181A80EB91EB182A08285E0F82E8F2DD7
:103EB000DF91CF911F910F91FF90DF90CF90BF9036
:103EC000AF9008950E9482208823D1F2F82EEFCF80
:103ED000F60181916F018093F1002197FFEFAF1AF6
:103EE000BF0ACECFFC018091B3029091B402861735
:103EF0009707A0F06115710529F49091E8009E776D
:103F00009093E80090E06115710551F4911108C09B
:103F10008091E80082FF34C080E00895BC01F2CFB8
:103F20008091AC028823C1F18530C1F18091E80015
:103F300083FD30C08091E80082FDEACF8091E800E7
:103F400080FFE1CF8091F3002091F200382F6115BE
:103F5000710519F02830310558F091E0283031050D
:103F600009F090E02091E8002E772093E800CBCF75
:103F700081918093F100615071092F5F3F4FE7CF2E
:103F80008091AC02882341F0853041F08091E800B7
:103F900083FFBECF81E0089582E0089583E0089515
:103FA000FC018091B3029091B40286179707A0F0AC
:103FB0006115710529F48091E8008E778093E800FF
:103FC00090E06115710551F4911108C08091E800ED
:103FD00082FF35C080E00895BC01F2CF8091AC0231
:103FE0008823C9F18530C9F18091E80083FD31C093
:103FF0008091E80082FDEACF8091E80080FFE1CF68
:104000008091F3002091F200382F6115710519F0AD
:104010002830310558F091E02830310509F090E062
:104020008091E8008E778093E800CBCF84918093D5
:10403000F1003196615071092F5F3F4FE6CF8091BB
:10404000AC02882341F0853041F08091E80083FF85
:10405000BDCF81E0089582E0089583E00895982F10
:10406000973028F08F708093E90081E00895909355
:10407000E900242F762F50E0981731F07091EC0072
:104080002091ED005091F00021FD02C09F5FE8CF2C
:104090003091EB003E7F3093EB003091ED003D7F9F
:1040A0003093ED003091EB0031603093EB00709372
:1040B000EC002093ED005093F0002091EE0027FDDE
:1040C000E5CF80E008958091AD0287FF13C0809115
:1040D000E80082FF06C08091E8008B778093E800BB
:1040E00004C08091AC028111F2CF08958091AC029E
:1040F0008823D9F38091E80080FFF8CF8091E80011
:104100008E77ECCF2091E4003091E50095E6A9018F
:104110002091EC00822F817020FF06C08091E80082
:1041200080FF06C080E008952091E80022FD1AC0BB
:104130008091AC02882389F0853089F08091EB0072
:1041400085FD0FC02091E4003091E5004217530730
:10415000F9F29150E1F684E0089582E0089583E059
:10416000089581E008950E9422210E942A21E0EE14
:10417000F0E0808181608083E8EDF0E080818F77DE
:10418000808319BCA7EDB0E08C918E7F8C938081E9
:104190008F7E80831092AB0208950F931F93CF936D
:1041A000DF930E9422210E942A21C8EDD0E088815D
:1041B0008F77888388818068888388818F7D8883D2
:1041C00019BC1092AC021092A8021092AA0210928E
:1041D000A90200EE10E0F80180818B7F8083888146
:1041E0008160888342E060E080E00E942F20E1EE61
:1041F000F0E080818E7F8083E2EEF0E0808181605C
:104200008083808188608083F80180818E7F8083B5
:10421000888180618883DF91CF911F910F910895EC
:10422000E8EDF0E080818F7E8083E7EDF0E0808133
:104230008160808384E082BF81E08093AB020E9432
:10424000CD200895E8EDF0E080818E7F808310928C
:10425000E20008951092DA001092E10008951F9292
:104260000F920FB60F9211242F933F934F935F93AA
:104270006F937F938F939F93AF93BF93EF93FF932E
:104280008091E10082FF0BC08091E20082FF07C0B5
:104290008091E1008B7F8093E1000E948E238091CA
:1042A000DA0080FF19C08091D80080FF15C080918E
:1042B000DA008E7F8093DA008091D90080FF96C06B
:1042C00080E189BD82E189BD09B400FEFDCF81E0B6
:1042D0008093AC020E94741D8091E10080FF19C0A0
:1042E0008091E20080FF15C08091E2008E7F809374
:1042F000E2008091E20080618093E2008091D8002A
:1043000080628093D80019BC85E08093AC020E9443
:10431000881D8091E10084FF2BC08091E20084FF22
:1043200027C080E189BD82E189BD89B5982F917050
:1043300080FFFBCF8091D8008F7D8093D800809143
:10434000E1008F7E8093E1008091E2008F7E809378
:10435000E2008091E20081608093E2008091A802F7
:10436000882309F449C084E08093AC020E94911D27
:104370008091E10083FF29C08091E20083FF25C086
:104380008091E100877F8093E10082E08093AC021E
:104390001092A8028091E1008E7F8093E1008091CD
:1043A000E2008E7F8093E2008091E2008061809342
:1043B000E20042E060E080E00E942F208091F00067
:1043C00088608093F0000E94851DFF91EF91BF915E
:1043D000AF919F918F917F916F915F914F913F919D
:1043E0002F910F900FBE0F901F90189519BC10922F
:1043F000AC020E94821D70CF8091E30087FD93E0A4
:104400009093AC02B3CF1F920F920FB60F9211246C
:104410002F933F934F935F936F937F938F939F93CC
:10442000AF93BF93CF93DF93EF93FF93D091E900C6
:10443000DF708091EC00C82FC17080FDC0E8109241
:10444000E9008091F000877F8093F00078940E94CB
:1044500047221092E9008091F00088608093F0007C
:10446000CD2BCF70C093E900FF91EF91DF91CF91F9
:10447000BF91AF919F918F917F916F915F914F917C
:104480003F912F910F900FBE0F901F901895AAE2A9
:10449000B0E0EDE4F2E20C94E5238DEA92E02091A5
:1044A000F100FC012193CF01F2E0853B9F07B9F7B2
:1044B0000E94B11D8091E80083FF1EC18091AD0272
:1044C0009091AE029A3008F017C1E92FF0E0E05564
:1044D000FB4D0C94D023803899F0823809F00CC140
:1044E0008091B1028F70873008F006C18093E90097
:1044F0008091EB0085FB882780F91092E90006C0C7
:104500008091A9029091AA02911182609091E80095
:10451000977F9093E8008093F1001092F1008091D2
:10452000E8008E77E5C0882309F4D3C0823009F013
:10453000E3C08091AF028111D6C08091B1028F702B
:104540002FEF280F263008F0D7C08093E900209184
:10455000EB0020FFC8C0933031F48091EB00806203
:104560008093EB00C0C09091EB0090619093EB00C2
:1045700021E030E001C0220F8A95EAF72093EA009B
:104580001092EA008091EB008860EACF8111B4C0FC
:104590001091AF021F778091E3008078812B809388
:1045A000E3008091E800877F8093E8000E94632009
:1045B0008091E80080FFFCCF8091E30080688093C9
:1045C000E30082E0111183E08093AC0295C0805833
:1045D000823008F091C08091AF029091B0028C3D82
:1045E00023E09207A1F583E08A838AE289834FB7AB
:1045F000F894DE01139620E03EE051E2E32FF0E074
:1046000050935700E49120FF03C0E295EF703F5FA5
:10461000EF708E2F90E0EA30C0F0C7968D939D9397
:104620002F5F243159F74FBF8091E800877F809337
:10463000E8006AE270E0CE0101960E94721F80914C
:10464000E8008B778093E80057C0C096E7CF609171
:10465000B1027091B202AE014F5F5F4F0E94B21E75
:10466000BC01892B09F448C09091E800977F909392
:10467000E80089819A810E94D01FE1CF8038E1F55E
:104680008091E800877F8093E8008091A802809362
:10469000F10045CF811130C09091AF02923060F5AA
:1046A0008091E800877F8093E8009093A8020E94A1
:1046B00063208091A802882311F084E005C08091D6
:1046C000E30087FDFACF81E08093AC020E949C1D3D
:1046D00013C08091AF02813079F481E0933009F00A
:1046E00080E08093AA021092E9008091E800877F21
:1046F0008093E8000E9463208091E80083FF0AC055
:104700008091E800877F8093E8008091EB008062D1
:104710008093EB00AA96E3E00C9401240895CF93D4
:104720008091AC028823A1F0C091E900CF709091F4
:10473000EC00892F817090FD80E8C82B1092E90071
:104740008091E80083FD0E944722CF70C093E9006A
:10475000CF9108950E94B3201092AC020895E8ED25
:10476000F0E08081806180838AE18A95F1F700C062
:104770008091D9008170089597FB072E16F400945C
:1047800007D077FD09D00E940D2407FC05D03EF428
:10479000909581959F4F0895709561957F4F0895ED
:1047A000EE0FFF1F0590F491E02D09942F923F9298
:1047B0004F925F926F927F928F929F92AF92BF9231
:1047C000CF92DF92EF92FF920F931F93CF93DF93DD
:1047D000CDB7DEB7CA1BDB0B0FB6F894DEBF0FBE3A
:1047E000CDBF09942A88398848885F846E847D8487
:1047F0008C849B84AA84B984C884DF80EE80FD8089
:104800000C811B81AA81B981CE0FD11D0FB6F894FE
:10481000DEBF0FBECDBFED010895AA1BBB1B51E14A
:1048200007C0AA1FBB1FA617B70710F0A61BB70B20
:10483000881F991F5A95A9F780959095BC01CD01C5
:104840000895FB01DC0104C08D910190801921F4D1
:1048500041505040C8F7881B990B0895FB01DC01BB
:1048600002C001900D9241505040D8F70895F99937
:10487000FECF92BD81BDF89A992780B50895A8E131
:10488000B0E042E050E00C946B24262FF999FECF63
:1048900092BD81BDF89A019700B4021639F01FBA93
:1048A00020BD0FB6F894FA9AF99A0FBE08950396B0
:1048B000272F0E9446240E944524252F0E9446242B
:1048C000242F0C9446240196272F0E9446240C94F2
:1048D0004524DC01CB01FC01F999FECF06C0F2BDF5
:1048E000E1BDF89A319600B40D9241505040B8F7AE
:1048F0000895F894FFCFC104C104F204F2048405C2
:10490000A00521052105A505160625062506C616BE
:104910003A17CE1698169C16D216A016D616E21680
:10492000AC163317B016E616B416EA161217B816F8
:10493000EE161917BE16F416FC16A416DA16A816EB
:10494000DE16C216F8160817221731179216CA1665
:1049500041174219481931193C194E1954195A195D
:104960006B2293227C2393227C23C622E7227C2382
:044970003E234A2375
:104974001402010000000100000000000000060114
:1049840000000004070000000000002808503C0755
:10499400142B1D601D591D521D01E200E900EA009F
:1049A400B500B600B700CD008301CC008A019201A6
:1049B40094012102230224022502260227022A024C
:1049C400B300B4006F0070009F01CB01818283E2C9
:1049D40000E900EA00B500B600B700CD008301CCC1
:1049E400008A019201940121022302240225022655
:1049F4000227022A02B300B4006F0070009F01CBAB
:104A040001818283946697C63435F6F731333236A2
:024A14003D0261
:00000001FF
